:020000040800F2
:1000000050130020B5020008DD6F0008C763000828
:10001000D96F000849090008B181000800000000FC
:10002000000000000000000000000000B97000089F
:10003000710F000800000000517000083D710008B9
:10004000CF020008CF020008CF020008CF0200084C
:10005000CF020008CF020008CF020008CF0200083C
:10006000CF020008CF020008CF0200086D09000887
:100070007D0900088D0900089D090008AD090008E8
:10008000BD090008CD090008CF020008CF02000812
:10009000CF020008CF020008CF020008CF020008FC
:1000A000CF020008C1710008CF020008CF0200088B
:1000B000CF020008CF020008CF020008CF020008DC
:1000C000CF020008CF020008CF020008CF020008CC
:1000D000CF0200081181000825810008CF02000826
:1000E000CF020008CF020008CF020008CF020008AC
:1000F000CF020008CF020008CF020008CF0200089C
:10010000CF020008CF020008CF020008CF0200088B
:10011000CF020008CF020008E17100080172000858
:10012000ED090008FD090008CF020008CF02000811
:10013000CF020008CF020008CF020008CF0200085B
:10014000CF020008CF020008CF020008CF0200084B
:10015000CF020008CF020008CF020008CF0200083B
:10016000CF020008CF020008CF020008CF0200082B
:10017000CF020008CF020008CF020008CF0200081B
:10018000CF020008CF020008CF020008CF0200080B
:10019000CF02000800000000790F0008CF0200081D
:1001A000CF020008CF020008CF020008CF020008EB
:1001B000CF020008CF020008CF020008CF020008DB
:1001C000DD090008CF020008CF020008CF020008B6
:1001D000CF020008CF02000800F002F800F05AF841
:1001E0000AA090E8000C82448344AAF10107DA4592
:1001F00001D100F04FF8AFF2090EBAE80F0013F08A
:10020000010F18BFFB1A43F001031847448D00008B
:10021000848D00000A4410F8014B14F00F0508BF4C
:1002200010F8015B240908BF10F8014B6D1E05D0C2
:1002300010F8013B6D1E01F8013BF9D1641E03D09B
:10024000641E01F8015BFBD19142E4D370470000CA
:10025000103A24BF78C878C1FAD8520724BF30C8F2
:1002600030C144BF04680C607047000000230024C4
:1002700000250026103A28BF78C1FBD8520728BFB6
:1002800030C148BF0B6070471FB508F0FDFC1FBDB3
:1002900010B510BD00F046F91146FFF7F5FF08F064
:1002A0006DF800F064F903B4FFF7F2FF03BC00F04F
:1002B000E7F900000948804709480047FEE7FEE7E4
:1002C000FEE7FEE7FEE7FEE7FEE7FEE7FEE7FEE706
:1002D00004480549054A064B70470000AD71000807
:1002E000D9010008500D002050130020500F0020AD
:1002F000500F002053EA020C00F069802DE9F04B0A
:100300004FF00006002B1FBFB3FA83F503FA05F484
:1003100024FA05F65E4012BF1643B2FA82F502FADD
:1003200005F4C5F120051EBF22FA05FC44EA0C04C1
:10033000203556EA044C4FEA144418BF641C4FF0B1
:1003400000084FF00009904271EB030C39D30029EB
:1003500019BFB1FA81F701FA07F6B0FA80F700FA8F
:1003600007F6C7F120071EBF20FA07FC46EA0C0675
:100370002037B6FBF4FCA7EB0507103F07F01F0B77
:10038000CBF120060CFA0BFB2CFA06F644BFB34661
:100390000026202FA4BF5E464FF0000B5BEA060C40
:1003A00008BF4FF0010B19EB0B09ABFB027C48EBCC
:1003B0000608C01B06FB02CC0BFB03CC71EB0C0147
:1003C000C1E70B46024641464846BDE8F08B13B5EF
:1003D0004FF000004FF00001AFF30080BDE81C407B
:1003E0007047032A40F2308010F0030C00F01580B3
:1003F00011F8013BBCF1020F624498BF11F801CB28
:1004000000F8013B38BF11F8013BA2F1040298BF8C
:1004100000F801CB38BF00F8013B11F0030300F0F6
:100420004F80083AC0F0088051F8043B083A51F870
:1004300004CBA0E80810F5E7121D5CBF51F8043B9F
:1004400040F8043BAFF30080D20724BF11F8013B12
:1004500011F801CB48BF11F8012B24BF00F8013B74
:1004600000F801CB48BF00F8012B70474FF00002A5
:1004700000B5134694469646203922BFA0E80C509A
:10048000A0E80C50B1F12001BFF4F7AF090728BF75
:10049000A0E80C5048BF0CC05DF804EB890028BFF1
:1004A00040F8042B08BF704748BF20F8022B11F01A
:1004B000804F18BF00F8012B704770477047704796
:1004C00010B5203AC0F00B80B1E81850203AA0E8EF
:1004D0001850B1E81850A0E81850BFF4F5AF5FEA23
:1004E000027C24BFB1E81850A0E8185044BF18C9D6
:1004F00018C0BDE810405FEA827C24BF51F8043B7D
:1005000040F8043B08BF7047D20728BF31F8023BD0
:1005100048BF11F8012B28BF20F8023B48BF00F864
:10052000012B7047754600F033F8AE46050069466A
:10053000534620F00700854618B020B5FFF7C8FEE7
:10054000BDE820404FF000064FF000074FF00008D4
:100550004FF0000B21F00701AC46ACE8C009ACE855
:10056000C009ACE8C009ACE8C0098D46704710B5B9
:100570000446AFF300802046BDE81040FFF793BE6D
:1005800010B500F027F8BDE8104000F01DB80000DD
:1005900000487047F00C00201FB584B000200A9C72
:1005A00006AB04AA02A90094AFF3008018B1DDE9FC
:1005B000020108B010BD03482040FFF7E1FF002012
:1005C0000146F6E70000207C002801D000F058B872
:1005D0007047000010B5022803D0410103D50DA1DA
:1005E00012E0002010BD010101D50FA10CE0C100F7
:1005F00001D511A108E0810001D512A104E040005D
:1006000001D513A100E0002115A000F03FF8012062
:1006100010BD0000496E76616C6964204F70657290
:100620006174696F6E0000004469766964652042F8
:1006300079205A65726F00004F766572666C6F772D
:1006400000000000556E646572666C6F77000000F4
:10065000496E657861637420526573756C7400002F
:100660005349474650453A2041726974686D657434
:10067000696320657863657074696F6E3A20000065
:1006800001491820ABBEFEE72600020070B5054602
:100690000C460A2000E06D1C00F011F835B12878F6
:1006A0000028F8D102E0641C00F009F814B12078A9
:1006B0000028F8D1BDE870400A20AFF3008008B5EB
:1006C00069468DF800000320ABBE08BD704740F6B8
:1006D000934CC1F2000C604740F24F2CC1F2000C69
:1006E000604740F2212CC1F2000C604740F6574CA5
:1006F000C1F2000C604740F2650CC1F2000C60478B
:1007000041F23D5CC1F2000C604740F2453CC1F251
:10071000000C604770B50546AC6AE06D00F0500013
:1007200098BBE06D40F40070E0652068006800F060
:100730000800A8B1206805F087FE10B32068C068E3
:1007400000F40050E8B9E06D20F48070E065E06DE1
:1007500000F48050A8B9E06D40F00100E06510E0C1
:100760002068C06800F0020058B9E06D20F4807085
:10077000E065E06D00F4805018B9E06D40F00100D4
:10078000E065204601F0D2F80CE0FFE7E06D00F0F4
:10079000100018B1204601F0CBF803E0606D416B0A
:1007A0002846884770BD70B50546AC6AE06D40F0DC
:1007B0004000E065206E40F004002066204601F015
:1007C000B7F870BD70B50446A56A284601F0AFF8C9
:1007D00070BD000070B50446206805F017FE06469F
:1007E000206805F018FE98B396BB2068806800F07A
:1007F0000D0001280AD1206881681A4A1140891C1D
:10080000816000BF03202168086009E0E06D40F0CE
:100810001000E065206E40F001002066012070BDF0
:1008200002F094FA054614E002F090FA401B022808
:100830000FD92068806800F0010050B1E06D40F0F1
:100840001000E065206E40F0010020660120E6E720
:1008500005E02068806800F001000028E4D1002055
:10086000DDE70000C0FFFF7F38B5044600200090A0
:10087000206805F0D0FD002858D1206880682C49F8
:10088000084048B1E06D40F01000E065206E40F097
:1008900001002066012038BD206805F097FD216821
:1008A000B1F1A04F03D0234A2168914201D12249DE
:1008B00000E02249084605F091FD00F4000080B1F7
:1008C0001F4800681F49B0FBF1F0401C00EB4000DE
:1008D0008000009002E00098401E009000980028E0
:1008E000F9D102F033FA05461AE0206805F093FDCD
:1008F00010B9206805F06AFD02F028FA401B0228B2
:100900000ED92068006800F0010048B9E06D40F0A1
:100910001000E065206E40F0010020660120BAE77B
:100920002068006800F001000028DED00020B2E757
:100930003F000080000100500003005000070050FD
:1009400010000020400D030000BFFEE7102806D174
:10095000044A0B7813700022034B9A6100BF00BF5A
:100960007047000078000020E019001010B5024820
:1009700001F024FC10BD0000D402002010B5024894
:1009800001F01CFC10BD00007402002010B50248EC
:1009900001F014FC10BD00002C09002010B5024825
:1009A00001F00CFC10BD00008C09002010B50248BD
:1009B00001F004FC10BD00006C08002010B50248D6
:1009C00001F0FCFB10BD0000CC08002010B502486F
:1009D00001F0F4FB10BD00005405002010B50248E2
:1009E00001F0ECFB10BD0000B405002010B502487A
:1009F00001F0E4FB10BD00003403002010B50248F4
:100A000001F0DCFB10BD00009403002030B50E4D5A
:100A10000468AC4201D20D4901E00C4920310B467B
:100A20000478083C1425B4FBF5F2446CA40803EBED
:100A300084048464054C8034C46402F01F050124DE
:100A4000AC40046530BD00000804024000080240CC
:100A500001794A1E064B03EB82024265044A40328A
:100A600082654A1E02F01F0301229A40C265704748
:100A70000009024030B5D0E913546C60446D14B1E4
:100A8000D0E916546C6090F8444004F01F0501242E
:100A9000AC40056C6C60046863608468102C04D101
:100AA0000468A2600468E16003E00468A16004686F
:100AB000E26030BD10B501460A2900DC09B900200A
:100AC00010BD042202EB8102D0B20023074C04F8CF
:100AD00021308A00521CA35480238A00921CA35404
:100AE0007F238A00D21CA35400BFE9E7A00C00209A
:100AF00010B52DED020B0C4890F82D00401C0A4952
:100B000081F82D00084690F82D000A2800DD1CBD54
:100B1000054890F82D00401E8006020E02496846E6
:100B200000F0DAFA00BFF2E7A00C002010B504468E
:100B300000F018F8094991F82D00FFF7BBFF0749AD
:100B400081F82C002C22064805F00CF800200349FF
:100B500081F82D0081F82C0010BD0000A00C0020B1
:100B6000D807002010B52DED028BF4480078072837
:100B70007ED2DFE800F00469ACBBF0EEED00F04897
:100B80000078C0F3800000EE900AF8EE600AB0EE44
:100B9000600AFFF7ADFFEA480078C0F3C00000EE3E
:100BA000900AF8EE600AB0EE600AFFF7A1FFE44891
:100BB000007800F0010000EE900AF8EE600AB0EE56
:100BC000600AFFF795FFDE480078C0F3400000EEB2
:100BD000900AF8EE600AB0EE600AFFF789FFD84885
:100BE0000078C0F3001000EE900AF8EE600AB0EE54
:100BF000600AFFF77DFFD2480078C0F3401000EE96
:100C0000900AF8EE600AB0EE600AFFF771FFCD4877
:100C1000D0ED010AB0EE600AFFF76AFFCA48D0EDD6
:100C2000010AB0EE600AFFF763FFC748D0ED020A81
:100C3000B0EE600AFFF75CFFC448D0ED020AB0EEE8
:100C4000600AFFF755FF74E1C148D0ED000AB0EE2D
:100C5000600AFFF74DFFBE48D0ED010AB0EE600A12
:100C6000FFF746FFB848D0ED000AB0EE600A00E09A
:100C70005EE1FFF73DFFB448D0ED010AB0EE600A37
:100C8000FFF736FFB148D0ED000AB0EE600AFFF77B
:100C90002FFFAE48D0ED010AB0EE600AFFF728FF43
:100CA000A948D0ED020AB0EE600AFFF721FFA7487D
:100CB000D0ED020AB0EE600AFFF71AFFA5480078EF
:100CC00000EE100AB8EE400AFFF712FF31E1A24829
:100CD000D0ED010AB0EE600AFFF70AFF9948D0EDA7
:100CE000010AB0EE600AFFF703FF22E19548D0ED5C
:100CF000000AB0EE600AFFF7FBFE9748D0ED000A4D
:100D0000B0EE600AFFF7F4FE9348D0ED010AB0EEB2
:100D1000600AFFF7EDFE9148D0ED000AB0EE600AE0
:100D2000FFF7E6FE8D48D0ED010AB0EE600AFFF74E
:100D3000DFFE8948D0ED020AB0EE600AFFF7D8FE68
:100D40008648D0ED020AB0EE600AFFF7D1FEF0E06F
:100D5000A0E047E0FFE78248D0ED000AB0EE600A6D
:100D6000FFF7C6FE7F48D0ED010AB0EE600AFFF73C
:100D7000BFFE7748D0ED000AB0EE600AFFF7B8FE7C
:100D80007348D0ED010AB0EE600AFFF7B1FE6E487D
:100D9000D0ED000AB0EE600AFFF7AAFE6A48D0ED77
:100DA000010AB0EE600AFFF7A3FE6848D0ED010A21
:100DB000B0EE600AFFF79CFE6748D0ED000AB0EE87
:100DC000600AFFF795FE6048D0ED020AB0EE600AB7
:100DD000FFF78EFE5D48D0ED020AB0EE600AFFF725
:100DE00087FEA6E05748D0ED000AB0EE600AFFF794
:100DF0007FFE5948D0ED000AB0EE600AFFF778FE9A
:100E00005648D0ED000AB0EE600AFFF771FE4D487B
:100E1000D0ED010AB0EE600AFFF76AFE4E48D0ED51
:100E2000010AB0EE600AFFF763FE4C48D0ED010AFC
:100E3000B0EE600AFFF75CFE4848D0ED020AB0EE63
:100E4000600AFFF755FE4848408800EE100AB8EEE9
:100E5000400ADFED460A80EE201AB0EE418AB0EE7D
:100E6000480AFFF745FE4048008800EE100AB8EE39
:100E7000400ADFED3E0A80EE201AB0EE418AB0EE65
:100E8000480AFFF735FE3848406800EE100AFFF7C1
:100E90002FFE4EE03248D0ED000AB0EE600AFFF7B8
:100EA00027FE284890ED020A2C48D0ED020A80EE79
:100EB000201AB0EE418AB0EE480AFFF719FE244826
:100EC000D0ED000AB0EE600AFFF712FE2048D0ED28
:100ED000010AB0EE600AFFF70BFE1B48D0ED000AD6
:100EE000B0EE600AFFF704FE1748D0ED010AB0EE3D
:100EF000600AFFF7FDFD1548D0ED010AB0EE600A6B
:100F0000FFF7F6FD1448D0ED000AB0EE600AFFF7D7
:100F1000EFFD0D48D0ED020AB0EE600AFFF7E8FDE4
:100F20000A48D0ED020AB0EE600AFFF7E1FD00E0EA
:100F300000BF00BFBDEC028B10BD00006C000020A4
:100F4000DC190010C4190010E01B0010101C001068
:100F5000F01B0010A8190010B8190010AC190010EF
:100F6000D0190010001C0010240A002000007A4450
:100F7000704772B600BFFEE710B5024801F080FB73
:100F800010BD0000F403002010B51D4A1D4C03687D
:100F9000A34201D102F554721B4C0368A34201D154
:100FA00002F5D46202640368D3F8803023F4F814A5
:100FB000838E44EA03430468C4F8803002F170036E
:100FC00043640368D3F8803023F0706490F83830BD
:100FD00044EA03630468C4F8803002F1B003836418
:100FE000D833C364D833036518334365114602E030
:100FF00000230B60091D02F554739942F8D310BD0C
:1010000000A4004000680040006C00402DE9F04161
:10101000054614461E46D1F804C0BCF1000F0AD1A3
:10102000D1F810C0D1F808804CEA080CB1F8008063
:101030004CEA88430BE0D1F810C04CF0804CD1F85A
:1010400008804CEA080CD1F800804CEA080391F8BB
:101050002080D1F81CC04CEA086CD1F818804CEA0A
:10106000080CD1F814804CEA080CB1F80C804CEA5A
:10107000084706EBC608D5F854C00CEBC80213604D
:10108000121D1760121D002019E000F1030C14F866
:101090000CC04FEA0C6800F1020C14F80CC048EACE
:1010A0000C4800F1010C14F80CC048EA0C2C14F8A0
:1010B00000804CEA080CC2F800C0121D001DDFF8C9
:1010C0001480D1F80CC018F80CC08445DDD8BDE8F8
:1010D000F0810000168F000830B503461C788C5450
:1010E0005D78541C0D559D78941C0D55DD78D41CED
:1010F0000D5530BD02464FF0FF30D2F8E0308B4244
:1011000001D1062022E0D2F8E4308B4201D1002048
:101110001CE0D2F8E8308B4201D1012016E0D2F871
:10112000EC308B4201D1022010E0D2F8F0308B423B
:1011300001D103200AE0D2F8F4308B4201D104201F
:1011400004E0D2F8F8308B4200D10520704700004F
:10115000F8B504460D460020009000BF94F85800F2
:10116000012801D10220F8BD012084F8580000BFF9
:101170002046FFF72FFB06468EBBE06D20F488501B
:1011800040F00200E065206881681B4A114005F0CC
:10119000804242F000421143816000BF13E000989A
:1011A000401C00901549009888420CD3E06D20F057
:1011B000020040F01000E06500BF002084F85800F5
:1011C00000BF0120CFE720688168C90F0029E6D160
:1011D000E06D20F0020040F00100E06504E0FFE770
:1011E000E06D40F01000E06500BF002084F858007A
:1011F00000BF3046B7E70000C0FFFF3F02DE04003B
:101200002DE9F0439BB004460E464FF000083068CD
:1012100000B100BF00BF94F85800012803D102209C
:101220001BB0BDE8F083012084F8580000BF002007
:10123000179018902068B0F1A04F02D15848009044
:1012400008E058492068884202D15748009001E0E0
:1012500000200090009850B9E06D40F02000E0655B
:1012600000BF002084F8580000BF0120D8E7009894
:1012700005F0E5F80746206805F0E1F800287DD183
:10128000002F7FD12068B0F1A04F03D044492068DF
:10129000884201D1454800E0454805463068D8B34A
:1012A00094F83800716841EA4030A96821F460413F
:1012B0000843A8602068B0F1A04F03D038492068E7
:1012C000884201D1394800E03948384988420AD17A
:1012D0004FF0A04005F0A4F88146314805F0A0F891
:1012E00049EA00000DE02F4805F09AF881462E48A3
:1012F00005F096F849EA00092E4805F091F849EA08
:101300000000E0BBB16830680843A96840F61F726E
:1013100091430843A8603BE0FFE7A86820F46040E1
:10132000A8602068B0F1A04F03D01D492068884212
:1013300001D11E4800E01E481C4988420AD14FF0E6
:10134000A04005F06DF88146154805F069F849EAB6
:1013500000000DE0134805F063F88146124805F0DF
:101360005FF849EA0009134805F05AF849EA000015
:1013700028B9A86840F61F71884301E002E007E041
:10138000A86005E0E06D40F02000E0654FF0010846
:1013900000BF002084F8580000BF404640E700002E
:1013A00000010050000400500005005000030050F0
:1013B00000070050000600502DE9F84F05460C4686
:1013C0004FF0000A00200090FE49E068884200D0FB
:1013D00000E000BF00BF95F85800012802D10220AC
:1013E000BDE8F88F012085F8580000BF286805F097
:1013F00021F800287DD12968D4E9002001F1300CC2
:10140000C0F3012B0CEB8B03D3F800C000F01F0ED0
:101410004FF01F0B0BFA0EFB2CEA0B0C00F01F0B0E
:10142000C2F3846E0EFA0BFE4CEA0E0CC3F800C039
:1014300000BF286804F0FEFF8146286804F0E1FF41
:101440008046B9F1000F64D1B8F1000FFBD1A0685C
:10145000B0F1004F0AD121680022286805F006F893
:101460004FF00041286805F026F808E0A2682168DE
:10147000286804F0FBFF0021286805F01CF860696B
:101480002968C968C1F3C101490000FA01F7206960
:1014900004283FD028682268216900F1600C0CEB19
:1014A0008103D3F800C0DFF820B30CEA0B0C02F084
:1014B000F84B4BF0004B4BEA070B4CEA0B0CC3F814
:1014C00000C000BF2868A269216900F1600C0CEB24
:1014D0008103D3F800C02CF0807C4CEA020CC3F8E6
:1014E00000C000BF2868227F2169012A02D152066C
:1014F00001E0F6E10022134600F1600C0CEB8102E2
:10150000D2F800C02CF0007C4CEA030CC2F800C0FA
:1015100000BFA7E00021286804F06AFFC0F31200B2
:1015200030B90021286804F063FFC0F3846007E04D
:101530000021286804F05CFF90FAA0F0B0FA80F077
:101540002168C1F3120119B92168C1F3846104E073
:10155000216891FAA1F1B1FA81F1884204D1002207
:101560001146286804F09CFF0121286804F040FF20
:10157000C0F3120030B90121286804F039FFC0F32C
:10158000846007E00121286804F032FF90FAA0F09F
:10159000B0FA80F02168C1F3120119B92168C1F3D2
:1015A000846104E0216891FAA1F1B1FA81F18842E5
:1015B00004D100220121286804F072FF022128686A
:1015C00004F016FFC0F3120030B90221286804F0BD
:1015D0000FFFC0F3846007E00221286804F008FFD1
:1015E00090FAA0F0B0FA80F02168C1F3120119B9A5
:1015F0002168C1F3846104E0216891FAA1F1B1FA94
:1016000081F1884204D100220221286804F048FFB9
:101610000321286804F0ECFEC0F3120030B9032166
:10162000286804F0E5FEC0F3846007E00321286821
:1016300004F0DEFE90FAA0F0B0FA80F02168C1F369
:10164000120119B92168C1F3846104E0216891FA9B
:10165000A1F1B1FA81F1884204D100220321286866
:1016600004F01EFF286804F0D6FE002870D1286818
:10167000E2682168D0F8B0C0C1F312032CEA030C71
:1016800002F0180B514B23FA0BF30B404CEA030CFE
:10169000C0F8B0C000BF4B49E068884258D1236809
:1016A000C3F312031BB92368C3F3846304E0236804
:1016B00093FAA3F3B3FA83F35B1C03F01F03092B24
:1016C0003ED82368C3F312031BB92368C3F38463B2
:1016D00004E0236893FAA3F3B3FA83F35B1C03F0EB
:1016E0001F034FF0010C0CFA03FC2368C3F3120331
:1016F0001BB92368C3F3846304E0236893FAA3F35C
:10170000B3FA83F35B1C03F01F034CEA836C23687A
:10171000C3F312031BB92368C3F3846304E0236893
:1017200093FAA3F3B3FA83F35B1C03F01F0303EBF9
:1017300043034FF0000B4BEA03534CEA03033FE033
:101740002368C3F3120323B92368C3F3846305E05A
:1017500042E0236893FAA3F3B3FA83F35B1C03F02C
:101760001F034FF0010C0CFA03FC2368C3F31203B0
:101770001BB92368C3F3846304E0236893FAA3F3DB
:10178000B3FA83F35B1C03F01F034CEA836C2368FA
:10179000C3F312031BB92368C3F3846304E0236813
:1017A00093FAA3F3B3FA83F35B1C03F01F030A3B22
:1017B00003EB43034FF0007B4BEA03534CEA030374
:1017C000194605E000007F4000F0FF03FFFF07001F
:1017D000A268286804F04AFE4849206808400028AA
:1017E00042D02968B1F1A04F03D0454A29689142FF
:1017F00001D1444900E04449084604F0EFFD0646A3
:1018000042492068884203D04149206888422CD14F
:1018100006F4000048BB2868B0F1A04F03D03D4952
:101820002868884263D12A68B2F1A04F03D0344BB4
:101830002A689A4201D1334A00E0334A104646F4FE
:10184000000104F027FE344800683449B0FBF1F091
:10185000401C00EB40008000009002E00098401E19
:10186000009000980028F9D141E02D492068884275
:101870001BD106F08070C0B921492868884203D185
:1018800028492868884232D02A68B2F1A04F03D094
:101890001B4B2A689A4201D11A4A00E01A4A1046A4
:1018A00046F0807104F0F6FD21E01F49206888426F
:1018B0001DD106F48000D0B911492868884216D09D
:1018C0002A68B2F1A04F03D00B462A689A4201D190
:1018D0000C4A00E00C4A104646F4800104F0DAFDA0
:1018E00005E0E86D40F02000E8654FF0010A00BF18
:1018F000002085F8580000BF504671E500000880C0
:10190000000100500003005000070050000021C3F8
:101910001000C0900006005010000020400D030091
:10192000000052C700050050000084CB704770478C
:10193000704700002DE9F84304464FF000080020EE
:10194000009014B90120BDE8F883606920B194F8D3
:101950002400012800D100BFE06D30B9204600F01E
:1019600045F90020206684F8580020688168C1F39A
:10197000407131B120688168914A1140816000BF97
:1019800000BF206804F051FDB0B9206881688D4A1D
:10199000114041F08051816000BF8B4800688B4945
:1019A000B0FBF1F0401C4000009002E00098401EA7
:1019B000009000980028F9D1206804F036FD48B95D
:1019C000E06D40F01000E065206E40F00100206600
:1019D0004FF00108206804F02DFD0646E06D00F090
:1019E000100000287ED1002EFCD1E06D20F4807024
:1019F00040F00200E065206804F00DFD88BB20681F
:101A0000B0F1A04F03D072492068884201D17148DB
:101A100000E071486F4988420AD14FF0A04004F0BD
:101A2000FAFC81466A4804F0F6FC49EA00000DE041
:101A30006A4804F0F0FC8146694804F0ECFC49EA8D
:101A40000009684804F0E7FC49EA000048B9226848
:101A5000B2F1A04F03D05E4B22689A4202D15D4A98
:101A600001E009E05C4A10466168826822F47C1259
:101A70000A43826000BF00BF607FE16B41EA4030F3
:101A8000E1680843A168084394F8241040EA01453E
:101A900094F82400012803D1208D401E45EA4045DA
:101AA000E06A28B1A08D00F47870216B08430543EB
:101AB0002068C0684C49084028432168C8602068F5
:101AC000006920F04060616B08432168086120686C
:101AD00004F097FC0746EEBBE7BB207F002141EAFC
:101AE000803100E064E094F8380041EA4005206865
:101AF000C06844F20201884328432168C860206915
:101B000080B12068006940F4803021680861206855
:101B1000D0F8C0006FF30D00216908432168C1F8B7
:101B2000C0000DE02068006920F480302168086161
:101B30002068D0F8C0006FF30D002168C1F8C00024
:101B400094F84000012813D1606C40F00101A06CB2
:101B5000084300E012E0E16C0843216D084321686E
:101B6000096940F2FC72914308432168086105E06D
:101B70002068006920F0010021680861606901287F
:101B800009D12068006B20F00F00216A491E08432C
:101B90002168086305E02068006B20F00F002168D1
:101BA0000863E06D20F0020040F00100E06505E010
:101BB000E06D40F01000E0654FF001084046C2E6DD
:101BC000C0FFFF5FC0FFFF7F10000020400D03003B
:101BD00000010050000300500007005000040050B6
:101BE00000050050000600500740F0FF10B59CB003
:101BF0000446142117A8FEF739FC542102A8FEF769
:101C000035FC2068B0F1A04F71D14FF40040029034
:101C10008003139002A802F08FF808B1FFF7A9F92A
:101C2000BF480068401CBE4908600846006801289B
:101C30000DD100BFBB48C06C40F40050B949C86426
:101C40000846C06C00F40050019000BF00BF00BF08
:101C5000B448C06C40F00100B249C8640846C06C8A
:101C600000F00100019000BF00BF00BF0846C06C3B
:101C700040F00200C8640846C06C00F00200019009
:101C800000BF00BF07201790032018900020199074
:101C900017A94FF0904000F06DFF4FF4804017906F
:101CA000032018900020199017A99F4800F062FFA8
:101CB0009E489F4908600520486000219C4881603B
:101CC000C160802101614900416189008161202159
:101CD000C1614FF44051016200F0F0FA08B1FFF722
:101CE00048F900BF92486065846216E1FFE79149B8
:101CF0002068884258D1C00102908003139002A846
:101D000002F01AF808B1FFF734F985480068401C62
:101D1000834908600846006801280DD100BF81484A
:101D2000C06C40F400507F49C8640846C06C00F4A1
:101D30000050019000BF00BF00BF7A48C06C40F067
:101D400001007849C8640846C06C00F001000190A9
:101D500000BF00BFF22017900320189000201990B8
:101D600017A94FF0904000F005FF704814387249F1
:101D700008602420486000216F488160C160802194
:101D8000016149004161890081612021C1614FF4F5
:101D90004051016200F092FA08B1FFF7EAF800BF83
:101DA000654860658462B8E064492068884256D11D
:101DB00080010290C003149002A801F0BDFF08B199
:101DC000FFF7D7F85E480068401C5D490860084688
:101DD000006801280DD100BF5248C06C40F480401B
:101DE0005049C8640846C06C00F48040019000BFB0
:101DF00000BF00BF4B48C06C40F002004949C864B6
:101E00000846C06C00F00200019000BF00BF022035
:101E10001790032018900020199017A9424800F04D
:101E2000A9FE4848484908602520486000214648E6
:101E30008160C16080210161490041618900816147
:101E40002021C1614FF44051016200F037FA08B11E
:101E5000FFF78FF800BF3C48606584625DE03B4956
:101E60002068884259D14FF480300290C00314900A
:101E700002A801F061FF08B1FFF77BF83048006865
:101E8000401C2F4908600846006801280DD100BF9A
:101E90002448C06C40F480402249C8640846C06CA5
:101EA00000F48040019000BF00BF00BF1D48C06C1F
:101EB00040F002001B49C8640846C06C00F00200F4
:101EC000019000BF00BF4FF480401790032018908E
:101ED0000020199017A9144800F04CFE194814303E
:101EE0001B49086026204860002119488160C160B4
:101EF0008021016149004161890081612021C16126
:101F00004FF44051016200F0D9F908B1FFF731F800
:101F100000BF0F486065846200BF1CB010BD0000A8
:101F20000000002000100240000400481C00024095
:101F30007402002000010050D40200200004005070
:101F40000400002008040240340300200005005073
:101F5000940300202DE9F04104460F469046216885
:101F6000B1F1A04F03D0484A2168914201D14749BD
:101F700000E04749084604F036FA0646206804F0B7
:101F800059FA00287CD100BF94F85800012802D1EA
:101F90000220BDE8F081012084F8580000BF3D49CF
:101FA0002068884201D1012000E0002020B91EB144
:101FB000052E01D0092E5DD12046FEF755FC0546C1
:101FC000002D52D1E06D40F60161884340F48070ED
:101FD000E0652D492068884202D14FF0A04006E01C
:101FE0002D492068884201D12C4800E020682168F2
:101FF000884200D01EB9E06D20F48010E065E06DED
:1020000000F4805020B1206E20F00600206601E030
:10201000002020662248616DC8622248616D086315
:102020002148616D48631C202168086000BF0020C2
:1020300084F8580000BF2068406840F01000216814
:1020400048602068C06840F001002168C8602268CC
:1020500002F1400143463A46606D00F097F90546AB
:10206000206804F0FBF90CE00AE000BF002084F8CF
:10207000580006E0012500BF002084F8580000E069
:102080000225284685E700000001005000030050AB
:1020900000070050000600500005005000040050EA
:1020A00015070008C5070008A7070008014600201B
:1020B00091F82520022A03D00422CA63012027E0D8
:1020C0000A68126822F00E020B681A608A6C1268A5
:1020D00022F480728B6C1A600A68126822F0010286
:1020E0000B681A6091F8442002F01F0301229A4005
:1020F0000B6C5A60D1E913325A604A6D42B14A6D95
:10210000126822F480724B6D1A60D1E916325A605F
:10211000012281F8252000BF002281F8242000BF81
:10212000704770B50446002594F8250002280BD0AE
:102130000420E063012084F8250000BF002084F81B
:10214000240000BF012534E02068006820F00E0064
:10215000216808602068006820F00100216808609C
:10216000A06C006820F48070A16C086094F84400B2
:1021700000F01F0101208840216C4860D4E9131051
:102180004860606D40B1606D006820F48070616DE2
:102190000860D4E916104860012084F8250000BFCB
:1021A000002084F8240000BFA06B10B12046A16B72
:1021B0008847284670BD0146C86B704770B5044615
:1021C000206C05682068066894F8440000F01F0140
:1021D000042088402840E0B106F00400C8B120681F
:1021E000006800F0200028B92068006820F0040092
:1021F0002168086094F8440000F01F010420884022
:10220000216C4860206B002856D02046216B8847FF
:1022100052E094F8440000F01F010220884028405A
:1022200018B306F0020000B32068006800F0200038
:1022300040B92068006820F00A0021680860012089
:1022400084F8250094F8440000F01F010220884023
:10225000216C486000BF002084F8240000BFE06AC1
:1022600050B32046E16A884726E094F8440000F025
:102270001F01082088402840F0B106F00800D8B1BE
:102280002068006820F00E002168086094F844007F
:1022900000F01F0101208840216C48600120E063AC
:1022A00084F8250000BF002084F8240000BF606B84
:1022B00010B12046616B884770BD000070B50446C0
:1022C0000CB9012070BD2F49206888420BD22E49DD
:1022D0002068401A1421B0FBF1F0800060642A48A5
:1022E000083820640AE027492068401A1421B0FB0E
:1022F000F1F080006064234808382064022084F8EC
:1023000025002068056847F6F0708543D4E902018E
:1023100008432169084361690843A1690843E169E9
:102320000843216A08430543206805602046FEF7FC
:102330006DFBA068B0F5804F01D10020606020796E
:10234000A16C0860D4E913104860606860B16068EF
:10235000042809D82046FEF77BFB0020616D086049
:10236000D4E91610486003E000206065A065E065D0
:102370000020E063012084F82500002084F8240078
:1023800000BF9FE708040240080002402DE9F04129
:1023900004460D4616461F464FF0000800BF94F84D
:1023A0002400012802D10220BDE8F081012084F838
:1023B000240000BF94F8250001283FD1022084F8B2
:1023C00025000020E0632068006820F001002168FB
:1023D00008603B46324629462046FEF74BFB206B01
:1023E00030B12068006840F00E00216808600BE002
:1023F0002068006820F004002168086020680068F8
:1024000040F00A0021680860A06C006800F4803089
:1024100028B1A06C006840F48070A16C0860606D09
:1024200028B1606D006840F48070616D08602068BC
:10243000006840F001002168086006E000BF00204D
:1024400084F8240000BF4FF002084046ACE72DE9B5
:10245000F04104460E461746706800B900E000BF20
:1024600094F85C00022821D12068D0F8C40000F460
:10247000001030B1206E40F4007020660120BDE8ED
:10248000F0812068D0F8C400C0F301452B463A46DD
:1024900031462046FEF7BAFD0120A8402168C1F868
:1024A000CC000120A840A0650020E8E7206E40F0A5
:1024B000080020660120E2E7F0B5024692F85C6071
:1024C000012E01D0022E23D1086880B9087A800736
:1024D0000F7B40EAC7600F8A40EA07404F6940EA35
:1024E0000704176C486807EB80031C600EE00F7B45
:1024F000086940EA47740F7A486940EA8775576C63
:10250000486807EBC0031C601B1D1D600020F0BD68
:10251000106E40F0020010660120F8E77047704727
:102520002DE9F04304460E469C46002394F85C8057
:10253000B8F1020F7DD1402E25D12068D0F890004F
:1025400000F00F0030B9206E40F48070206601204A
:10255000BDE8F0832068D0F89000C0F3006030B18F
:102560002068D0F88000C0F3402000B1012320682B
:10257000D0F89000C0F30120034403EBC309A06C22
:1025800000EBC90123E02068D0F8980000F00F00AC
:1025900028B9206E40F4807020660120D8E72068BA
:1025A000D0F89800C0F3006030B12068D0F8800007
:1025B000C0F3002000B101232068D0F89800C0F3D8
:1025C0000120034403EBC309E06C00EBC901086878
:1025D00000F080405060506820B90868C0F38A401D
:1025E000106003E0086820F060401060086800F0A8
:1025F00000509060086800F000401061091D0888D4
:1026000080B2D0610868C0F30340D060086800F46D
:1026100080105061086800F4001090610868C0F3F1
:10262000066010620868C00F5062091D0F46002541
:1026300004E015E0785D0CF805006D1CDFF82C90C7
:10264000D06819F80000A842F4D8402E03D12068C1
:10265000C0F8943002E02068C0F89C30002077E792
:10266000206E40F008002066012071E7168F0008F8
:1026700001460A68D2F8C42002F00700704770478C
:102680002DE9FC5F04462068006D00F4E0572068E7
:10269000406D07402068006D00F007082068406D1D
:1026A00000EA08082068006D00F038092068406DD5
:1026B00000EA09092068006D00F4710A2068406D85
:1026C00000EA0A0A2068006D00F4602B2068406D63
:1026D00000EA0B0B2068456D2068066DC6F380107C
:1026E00040B1C5F3801028B140202168086520461C
:1026F000FFF7C5FFC6F30020A0B1C5F3002088B1E5
:102700002068D0F8D80000902068D0F8E000009948
:10271000084000904FF480702168086520460099B9
:1027200000F024FA2FB1206807653946204600F0F2
:102730001FFAB8F1000F06D02068C0F8508041465B
:10274000204600F0D1F9B9F1000F06D02068C0F89A
:1027500050904946204600F0EFF9C6F3402048B1BA
:10276000C5F3402030B14FF4007021680865204661
:1027700000F0FFF9C6F3C01098B1C5F3C01080B1E6
:102780002068D0F8D40001902068D0F8DC000199CE
:10279000084001908020216808652046019900F0DA
:1027A000E6F9C6F3403048B1C5F3403030B14FF4DC
:1027B000005021680865204600F0D7F9C6F3C03004
:1027C00048B1C5F3C03030B14FF40040216808650E
:1027D000204600F0C9F9C6F3803050B1C5F380300F
:1027E00038B14FF4804021680865206E40F08000C9
:1027F0002066BBF1000F06D02068C0F850B05946E3
:102800002046FFF78CFEBAF1000F06D02068C0F812
:1028100050A0206E40EA0A002066206E10B12046CB
:10282000FFF77CFEBDE8FC9F70B504460CB90120A3
:1028300070BD81492068884200D100BFA068B0F512
:10284000407F00D100BF94F85C0028B9002084F8D4
:102850005D00204600F0F4F82068806920F0100048
:102860002168886100F072FA05460DE000F06EFA0A
:10287000401B0A2808D9206E40F001002066032082
:1028800084F85C000120D3E72068806900F008002C
:102890000828EBD02068806940F001002168886139
:1028A00000F054FA05460DE000F050FA401B0A28EB
:1028B00008D9206E40F001002066032084F85C00F7
:1028C0000120B5E72068806900F001000028EBD006
:1028D0002068806940F002002168886156492068BC
:1028E000884202D1554960680860207C012806D1E1
:1028F0002068806920F040002168886105E0206838
:10290000806940F0400021688861607C012806D120
:102910002068806940F480402168886105E0206873
:10292000806920F4804021688861A07C012806D15C
:102930002068806920F480502168886105E0206863
:10294000806940F48050216888612068806920F4A3
:102950004070A1680843216888612068806920F080
:10296000A400216888612068006920F010002168B7
:102970000861E068012806D12068806940F0040001
:102980002168886120E0E068F0B1E068022815D095
:102990002068806940F080002168886120680069B3
:1029A00040F0100021680861E06803280CD120681D
:1029B000806940F020002168886105E02068806916
:1029C00040F0200021688861207E401E4106E069B9
:1029D000401E41EA0020216A491E0843A18A491E7F
:1029E00040EA01402168C861A068B0F5407F0FD17E
:1029F000A06A401EE16A491E40EA0121206B401E88
:102A000041EA0011A08C401E41EA00402168C860E4
:102A10002068D0F8C000E16B08432168C1F8C0000D
:102A20002046FEF7B1FA0020A0652066012084F858
:102A30005C000020FCE600000064004000650040EF
:102A400010B59CB00446142117A8FDF70FFD5421C2
:102A500002A8FDF70BFD2149206888423BD1801474
:102A600002904003109002A801F066F908B1FEF749
:102A700080FA00BF1A48806D40F0007018498865E0
:102A80000846806D00F00070019000BF00BF00BFDD
:102A90000846C06C40F00200C8640846C06C00F0F4
:102AA0000200019000BF00BF4FF440501790022079
:102AB00018900020199003201A9009201B9017A944
:102AC000084800F057F800220321562001F04CF886
:102AD000562001F035F81CB010BD00000068004021
:102AE000001002400004004870B504460D460E492F
:102AF0002068884217D10D4B0D4A40212046FFF730
:102B00000FFD0B480068102803D10849FDF71EFF90
:102B100000E000BF00BF07480068406D40F00100C2
:102B200004490968486570BD00680040200C002019
:102B3000F80B0020F40300207047014691F85C0078
:102B400001280BD1022081F85C000868806920F020
:102B500001000A689061002008667047086E40F026
:102B6000040008660120F8E7704770477047704717
:102B70007047704778B502460B460021CAE001262F
:102B80008E401D6805EA0604002C73D01D7905F0FF
:102B90000305012D04D01D7905F00305022D13D185
:102BA00090684E000325B540A8434E00DD68B5404F
:102BB00028439060506801258D40A8431D79C5F3D6
:102BC00000158D40284350601D7905F00305032D45
:102BD00009D0D0684E000325B540A8434E009D683B
:102BE000B5402843D0601D7905F00305022D13D1AF
:102BF000CE0802F1200555F826004D07EE0E0F25F0
:102C0000B540A8434E07F60E1D69B5402843CE08CF
:102C100002F1200545F8260010684E000325B54056
:102C2000A8431D7905F003054E00B5402843106008
:102C30005D6805F44035002D6BD000BF384D2D6E1A
:102C400045F00105364E356635462D6E05F0010519
:102C5000009500BF00BF4FEAB6358E0855F8260034
:102C60008D072E0F0F25B540A843B2F1904F02D12A
:102C700000251AE04DE02B4DAA4201D1012514E0B8
:102C8000294DAA4201D102250FE0284DAA4201D1C7
:102C900003250AE0264DAA4201D1042505E0254D71
:102CA000AA4201D1052500E006258E07360FB54062
:102CB0002843214D8E0845F82600204D2868A04362
:102CC0005D6805F4801505B120431C4D28602D1D5D
:102CD0002868A0435D6805F4001505B12043174D31
:102CE0002D1D2860154D2D1F2868A0435D6805F433
:102CF000003505B12043114D2D1F28602D1F286878
:102D0000A0435D6805F4803505B120430B4D083DB7
:102D10002860491C1D68CD40002D7FF430AF78BD80
:102D2000001002400004004800080048000C004861
:102D30000010004800140048080001400804014049
:102D40000AB1816100E081627047000001480068BB
:102D5000704700009C00002010B5034693F8DD008A
:102D6000022800D110BD00BF93F8DC00012801D17A
:102D70000220F7E7012083F8DC0000BF022083F87F
:102D8000DD00202945D00CDC042927D004DC0129F2
:102D900012D002296AD118E0082928D0102965D15B
:102DA0002EE040293ED0802945D0B1F5807F4BD020
:102DB000B1F5007F5AD150E01868D0F8000462F3F2
:102DC00004001C68C4F8000459E01868D0F8000436
:102DD00062F38A101C68C4F8000450E01868D0F848
:102DE000000462F310301C68C4F8000447E018685F
:102DF000D0F8000462F396401C68C4F800043EE07A
:102E00001868D0F8000462F31C601C68C4F8000461
:102E100035E01868D0F8040462F304001C68C4F8B4
:102E200004042CE01868D0F8040462F38A101C68CB
:102E3000C4F8040423E01868D0F8040462F31030E6
:102E40001C68C4F804041AE01868D0F8040462F39B
:102E500096401C68C4F8040411E01868D0F8040413
:102E600062F31C601C68C4F8040408E0072083F8BF
:102E7000DD0000BF002083F8DC0000BF00BF00BF02
:102E800093F8DD00072801D101206BE7012083F8CA
:102E9000DD0000BF002083F8DC0000BF00BF61E759
:102EA000F0B503460D4693F8DD00022800D1F0BDD1
:102EB00000BF93F8DC00012801D10220F7E70120D0
:102EC00083F8DC0000BF022083F8DD001868D0F82A
:102ED00080431868D0F8FC13202D63D00CDC042D3F
:102EE0002DD004DC012D12D0022D77D11AE0082D4F
:102EF00032D0102DF9D13CE0402D73D0802D6FD011
:102F0000B5F5807F6DD0B5F5007FEED1BFE024F43C
:102F1000E024106800F4E020044356681868C0F804
:102F2000BC63DAE024F460144FF46016106806EA1B
:102F3000C000044356681868C0F8C063CDE024F0B0
:102F4000E0744FF0E076106806EA8010044356689B
:102F50001868C0F8C463C0E024F060644FF0606695
:102F6000106806EA4020044356681868C0F8C86331
:102F7000B3E021F007011068C0F302400143186874
:102F8000D0F8F80320F01F061868C0F8F863186836
:102F9000D0F8F803167906F01F0630431E68C6F80D
:102FA000F8039AE021F070017026106806EA1030EC
:102FB00001431868D0F8F80320F478761868C0F850
:102FC000F8631868D0F8F8034FF47877566807EA82
:102FD000461630431E68C6F8F8037EE074E001E050
:102FE0001DE039E021F4E0614FF4E066106806EA84
:102FF000102001431868D0F8F80320F4F846186848
:10300000C0F8F8631868D0F8F8034FF4F84756682A
:1030100007EA862630431E68C6F8F8035DE021F40F
:10302000E0414FF4E046106806EA101001431868CA
:10303000D0F8F80320F4F8161868C0F8F863186898
:10304000D0F8F80396884FF4F81707EA064630439D
:103050001E68C6F8F80340E021F4E021106800F48F
:10306000E02001431868D0F8F80320F0787618685B
:10307000C0F8F8631868D0F8F80396884FF07877AE
:1030800007EA465630431E68C6F8F80325E021F4E7
:10309000E0014FF4E006106806EA001001431868EA
:1030A000D0F8F80320F0F8461868C0F8F8631868FC
:1030B000D0F8F80316794FF0F84707EA86663043F0
:1030C0001E68C6F8F80308E0072083F8DD0000BF9B
:1030D000002083F8DC0000BF00BF00BF93F8DD00D4
:1030E000072801D10120E2E6102D03D21868C0F8AC
:1030F000804302E01868C0F8FC13012083F8DD006B
:1031000000BF002083F8DC0000BF00BFCFE670479F
:10311000704770477047704770477047024600BF5E
:1031200092F8DC00012801D102207047012082F8CA
:10313000DC0000BF022082F8DD00481C80B9106866
:10314000D0F8CC0320F002031068C0F8CC3310682C
:10315000D0F8CC0340F001031068C0F8CC3318E07D
:103160001068D0F8CC0340F002031068C0F8CC33EC
:103170001068D0F8CC0320F00C0008431368C3F8A3
:10318000CC031068D0F8CC0340F001031068C0F8FD
:10319000CC33012082F8DD000020C6E730B50346BD
:1031A0000C4693F8DD00022800D130BD00BF93F833
:1031B000DC00012801D10220F7E7012083F8DC00C0
:1031C00000BF022083F8DD00108800F4E0519088F1
:1031D000C0F308000143108900F400700143108A15
:1031E00000F480400143908900F400400143908A3C
:1031F000134D05EA00400143906900F0007001435F
:10320000106A00F080400143D06900F000400143A3
:103210001868803000EBC410806B0A4D28400843CA
:103220001D68803505EBC415A863012083F8DD0017
:1032300000BF002083F8DC0000BF00BFB5E700003E
:103240000000FF010020003C70477047F8B50446BD
:103250000CB90120F8BD0220E03404F8030C002072
:1032600020606060A060E06020616061A061E03C7F
:10327000207A00F0010008B33549206888420DD15A
:1032800000BF3448006E40F080603249086608464E
:10329000006E00F08060009000BF00BF20680668EC
:1032A00026F44046208A00F44040064326F4405667
:1032B000A08A00F44050064320680660204600F0D3
:1032C0004BF8207A00F0020048B12068066826F426
:1032D0004076A08900F44070064320680660012013
:1032E00084F8DD0000BF002084F8DC0000BF00256A
:1032F00029E00021C5EBC50204F1180040F82210B6
:10330000C5EBC50200EB82004160C5EBC50204F1CC
:10331000180000EB82008160C5EBC50204F11800C3
:1033200000EB8200C160C5EBC50204F1180000EBA0
:1033300082000161C5EBC50204F1180000EB8200B8
:103340008161681CC5B2062DD3D9002082E7000038
:10335000006801400010024038B504462849206842
:1033600088424CD100BF2748006E40F0806025495C
:1033700008660846006E00F08060009000BF00BF45
:103380002148224908606020486000211F48816070
:10339000C160802101614900416189008161202172
:1033A000C1614FF440510162FEF788FF08B1FDF79B
:1033B000E0FD00BF1548C4F8E400846200BF124875
:1033C0001430134908606120486000211048816072
:1033D000C160802101614900416189008161202132
:1033E000C1614FF440510162FEF768FF08B1FDF77B
:1033F000C0FD00BF0648C4F8E800846200BF38BDC5
:103400000068014000100240800002405405002086
:10341000B405002010B586B00446142101A8FDF7BC
:1034200025F81249206888421DD100BF1048C06CA1
:1034300040F001000E49C8640846C06C00F001006D
:10344000009000BF00BF4FF4706001900220029016
:1034500000200390012004900D20059001A94FF059
:103460009040FFF787FB06B010BD000000680140E8
:1034700000100240704770477047704770B50446AF
:103480000D46FFF763FC06460CE0681C50B1FFF7E1
:103490005DFC801BA84200D825B9072084F8DD0018
:1034A000032070BD2068D0F88803C0F300400028D6
:1034B000EBD0012084F8DD0000BF002084F8DC00A0
:1034C00000BF00BFEDE770477047704770B5044616
:1034D0000D46164694F8DD00022800D170BD02208A
:1034E00084F8DD00062D04D13146204602F012FD9D
:1034F00004E032462946204602F0F2FD012084F81D
:10350000DD000020EAE730B5044694F8DD0002282B
:1035100000D130BD00BF94F8DC00012801D10220A9
:10352000F7E7012084F8DC0000BF022084F8DD000A
:10353000062928D1012A06D0022A08D0042A0AD056
:10354000082A10D10BE018682568E86114E01868B3
:103550002568686210E018682568A8620CE01868A1
:103560002568E86208E0072084F8DD0000BF00203D
:1035700084F8DC0000BF00BF00BF94F8DD0007281E
:103580007DD10120C5E7012A06D0022A0BD0042AEA
:103590004CD0082A74D150E01D682068803000EBC0
:1035A000C110C5619AE01D682068803000EBC11031
:1035B0004562586868B32068803000EBC11000682D
:1035C00020F440552068803000EBC1100560206871
:1035D000803000EBC11000685D68284325688035A5
:1035E00005EBC11528605868B0F5005F06D19D68ED
:1035F0002068803000EBC110C56116E05868B0F556
:10360000405F12D19D682068803000EBC110856258
:103610000BE02068803000EBC110006820F44050BF
:103620002568803505EBC115286057E01D682068C6
:10363000803000EBC110856250E01D68206880304A
:1036400000EBC110C562586888B32068803000EB79
:10365000C110006820F440452068803000EBC110A4
:1036600005602068803000EBC11000685D6840EAAA
:1036700085052068803000EBC110056001E034E072
:1036800023E05868B0F5005F06D19D68206880305F
:1036900000EBC110C56117E05868B0F5405F13D169
:1036A0009D682068803000EBC11085620CE0FFE768
:1036B0002068803000EBC110006820F4404025688D
:1036C000803505EBC115286008E0072084F8DD008F
:1036D00000BF002084F8DC0000BF00BF00BF94F8EA
:1036E000DD00072801D1012013E7012084F8DD0067
:1036F00000BF002084F8DC0000BF00BF09E7000025
:103700002DE9F04104460F4694F8DD00022801D16E
:10371000BDE8F081022084F8DD0000BF94F8DC00F1
:10372000012801D10220F3E7012084F8DC0000BF6A
:1037300007F4803020B3D4F8CC0008B34748D4F85D
:10374000E01048634648D4F8E010C862D4E9352355
:10375000D4F8D010D4F8E000FEF718FE48B10720E6
:1037600084F8DD0000BF002084F8DC0000BF0120E9
:10377000CEE72068C168D4F8CC0001432068C1605E
:10378000002559E0374850F825003840002851D02E
:10379000C5EBC50104F1180000EB8100C0680028EA
:1037A00048D02946204602F093FB06464EB9072032
:1037B00084F8DD0000BF002084F8DC0000BF012099
:1037C000A6E7264870632848F062C5EBC50C04F1F3
:1037D000180000EB8C00C5EBC50C836904F11800E0
:1037E00000EB8C00C5EBC50C426904F1180000EB3E
:1037F0008C0001693046FEF7C9FD48B1072084F806
:10380000DD0000BF002084F8DC0000BF01207FE75E
:103810002068803000EBC510C068C5EBC50204F11C
:10382000180101EB8201C96808432168803101EB6E
:10383000C511C860681CC5B2062DA3D320680068F6
:10384000384321680860012084F8DD0000BF0020B3
:1038500084F8DC0000BF00BF5AE70000095C0008E4
:10386000175C0008A8000020A75C00082DE9F041C3
:1038700004460D4616461F4694F8DD00022801D185
:10388000BDE8F08100BF94F8DC00012801D10220DE
:10389000F6E7012084F8DC0000BF022084F8DD0098
:1038A0003B4632462946204602F097FB012084F829
:1038B000DD0000BF002084F8DC0000BF00BFDFE7B0
:1038C000024600BF92F8DC00012801D102207047B7
:1038D000012082F8DC0000BF022082F8DD001068C1
:1038E000D0F8940308431368C3F89403012082F8C6
:1038F000DD0000BF002082F8DC0000BF00BFE6E76B
:10390000024600BF92F8DC00012801D10220704776
:10391000012082F8DC0000BF022082F8DD00106880
:10392000D0F8980308431368C3F89803012082F87D
:10393000DD0000BF002082F8DC0000BF00BFE6E72A
:1039400070B504460D46164694F8DD00022800D1F5
:1039500070BD00BF94F8DC00012801D10220F7E718
:10396000012084F8DC0000BF022084F8DD00062D71
:1039700004D13146204602F0E1FA04E032462946FD
:10398000204602F0CDFBC5EBC50204F1180000EBA8
:10399000820031688160C5EBC50204F1180000EBBC
:1039A00082007168C160C5EBC50204F1180000EB2C
:1039B0008200B1680161C5EBC50204F1180000EB9B
:1039C0008200F1684161C5EBC50204F1180000EB0B
:1039D0008200316981612946204602F02FFA062DC6
:1039E00010D0F06A70B92068803000EBC510006814
:1039F00020F40070F16D40EA41212068803000EB36
:103A0000C5100160012084F8DD0000BF002084F8AB
:103A1000DC0000BF00BF9BE770B504460D461646AC
:103A200094F8DD00022800D170BD00BF94F8DC00DE
:103A3000012801D10220F7E7012084F8DC0000BF53
:103A4000022084F8DD0032462946204602F08EFC32
:103A50002946204602F0F2F9012084F8DD0000BF7B
:103A6000002084F8DC0000BF00BFDDE703480068E9
:103A70000349096808440149086070479C00002018
:103A8000A400002010B50024032000F0ABF80F20A4
:103A900000F008F808B1012401E000F02FF82046FA
:103AA00010BD000070B50446002511480068D8B16B
:103AB0000F4800684FF47A71B1FBF0F00D490968C6
:103AC000B1FBF0F6304600F077FF58B9102C07D262
:103AD00000222146501E00F047F80748046004E029
:103AE000012502E0012500E00125284670BD000007
:103AF000A400002010000020A000002008B500BF96
:103B00000E48006E40F001000C4908660846006E41
:103B100000F00100009000BF00BF00BF0846806DAC
:103B200040F0805088650846806D00F0805000901D
:103B300000BF00BF00F0F6F808BD00000010024012
:103B40000146084600280DDB00BF00BF00F01F0340
:103B500001229A4043099B0003F1E023C3F80021AE
:103B600000BF00BF00BF70472DE9F05F80460D46E3
:103B7000164604F025FB074639462A46334601F02F
:103B80000700C0F1070ABAF1040F02D94FF0040A86
:103B900001E0C0F1070AD14600F1040ABAF1070FAB
:103BA00002D24FF0000A01E0A0F1030AD4464FF020
:103BB000010A0AFA09FAAAF1010A0AEA020A0AFA49
:103BC0000CFA4FF0010B0BFA0CFBABF1010B0BEAFB
:103BD000030B4AEA0B042146404604F0F9FABDE81B
:103BE000F09F000000BF00F00702064B19684FF677
:103BF000FF031940044B0B4343EA0221014B1960B8
:103C000000BF70470CED00E00000FA0502468ABBD9
:103C10004148006800F4C060B0F5806F2BD13E4889
:103C20008030006820F480703B4BC3F88000184659
:103C3000006820F4C06040F40070186037480068E5
:103C400032235843364BB0FBF3F0411C00E0491ED1
:103C50003148406900F48060B0F5806F01D10029DF
:103C6000F5D12D48406900F48060B0F5806F51D1E6
:103C70000320704708E028488030006820F48070F6
:103C8000254BC3F8800045E0B2F5007F3AD12248C9
:103C9000006800F4C060B0F5806F2AD11E48803003
:103CA000006840F480701C4BC3F880001846006820
:103CB00020F4C06040F40070186018480068322397
:103CC0005843174BB0FBF3F0411C00E0491E12486B
:103CD000406900F48060B0F5806F01D10029F5D112
:103CE0000D48406900F48060B0F5806F12D1032068
:103CF000BFE709488030006840F48070064BC3F885
:103D0000800007E00448006820F4C06040F4806050
:103D1000014B18600020ACE700700040100000204C
:103D200040420F000348806840F4804001498860A9
:103D300070470000007000402DE9F843044600275A
:103D4000B846206800F40020B0F5002F73D1B946C2
:103D5000FD48806D00F0805078B900BFFA48806D52
:103D600040F08050F84988650846806D00F080502A
:103D7000009000BF00BF4FF00109F448006840F414
:103D80008070F2490860FEF7E1FF064606E0FEF7A4
:103D9000DDFF801B022801D9032705E0EB480068FE
:103DA00000F480700028F2D000BF002F46D1E64812
:103DB0009030006800F44075CDB1206DA84216D057
:103DC000E1489030006820F44075DF48D0F890005A
:103DD00040F48030DC49C1F890000846D0F89000EB
:103DE00020F48030C1F890000846C0F8905005F0EB
:103DF0000100A0B1FEF7AAFF064608E0FEF7A6FF05
:103E0000801B41F28831884201D9032706E0CE4861
:103E10009030006800F002000028EFD000BF5FB9CA
:103E2000C9489030006820F44070216D0843C649AD
:103E3000C1F8900003E00CE0B84600E0B846B9F1E4
:103E4000010F05D1C048806D20F08050BE498865C3
:103E500000BF207800F0010048B1BB4888300068FE
:103E600020F0030061680843B749C1F88800207852
:103E700000F00200022809D1B3488830006820F021
:103E80000C00A1680843B049C1F88800207800F010
:103E90000400042809D1AC488830006820F03000C4
:103EA000E1680843A849C1F88800207800F00800BC
:103EB000082809D1A4488830006820F0C000216992
:103EC0000843A149C1F88800207800F010001028AC
:103ED00009D19D488830006820F44070616908432A
:103EE0009949C1F88800207800F02000202809D1E5
:103EF00095488830006820F44060A16908439249E1
:103F0000C1F88800207800F04000402809D18E4890
:103F10008830006820F44050E16908438A49C1F8BC
:103F20008800207800F08000802809D186488830F9
:103F3000006820F44040216A08438349C1F88800A2
:103F4000208800F48070B0F5807F09D17E488830E9
:103F5000006820F44030616A08437B49C1F888005A
:103F6000206800F40030B0F5003F09D176489C305D
:103F7000006820F00300A16A08437349C1F89C005F
:103F8000208800F40070B0F5007F09D16E488830B9
:103F9000006820F44020E16A08436B49C1F88800BA
:103FA000208800F48060B0F5806F13D166488830B7
:103FB000006820F44010216B084363498831086091
:103FC000206BB0F5801F05D15F48C06840F48010B9
:103FD0005D49C860208800F40060B0F5006F13D11F
:103FE00059488830006820F44000616B0843564906
:103FF00088310860606BB0F5800F05D15248C06809
:1040000040F480105049C860208800F48050B0F51A
:10401000805F13D14C488830006820F04070A16B5D
:104020000843494988310860A06BB0F1807F05D111
:104030004548C06840F480104349C860208800F4B7
:104040000050B0F5005F13D13F488830006820F081
:104050004060E16B08433C4988310860E06BB0F197
:10406000006F05D13848C06840F480103649C860F8
:10407000208800F48040B0F5804F13D1324888305A
:10408000006820F04060216C08432F4988310860A7
:10409000206CB0F1006F05D12B48C06840F480104F
:1040A0002949C860208800F40040B0F5004F13D1C2
:1040B00025488830006820F04050616C0843224950
:1040C00088310860606CB0F1805F05D11E48C0681F
:1040D00040F480301C49C860206800F48030B0F59E
:1040E000803F13D118488830006820F04040A16C10
:1040F0000843154988310860A06CB0F1804F05D1A4
:104100001148C06840F480300F49C860206800F44E
:104110008020B0F5802F13D10B489C30006820F42C
:104120004010E16C084308499C310860E06CB0F530
:10413000001F05D10448C06840F480100249C860DF
:104140004046BDE8F88300000010024000700040C7
:104150002DE9F04104460D464FF0000814B9012046
:10416000BDE8F0817D48006800F00F00A8420ED243
:104170007A48006820F00F00284378490860084614
:10418000006800F00F00A84201D00120E8E7207885
:1041900000F00100002864D06068032823D1704833
:1041A000006800F0007008B90120D9E702F052FF62
:1041B00006466C48864237D96948806800F0F000AE
:1041C00030B1207800F0020002282DD1A06858BB41
:1041D0006348806820F0F00040F08000604988600B
:1041E0004FF0800820E06068022806D15C48006833
:1041F00000F4003040B90120B2E75948006800F4EB
:10420000806008B90120ABE700F0DEF806465548AB
:10421000864209D95248806820F0F00040F08000C2
:104220004F4988604FF080084D48806820F00300B7
:10423000616808434A498860FEF788FD074608E040
:10424000FEF784FDC01B41F28831884201D903206A
:1042500086E74348806800F00C006168B0EB810F8E
:10426000EED1207800F00200022820D1207800F062
:104270000400042805D13A48806840F4E0603849D9
:104280008860207800F00800082807D1344880684A
:1042900020F4605040F4E060314988603048806824
:1042A00020F0F000A16808432D49886008E0B8F1CB
:1042B000800F05D12A48806820F0F00028498860E6
:1042C0002648006800F00F00A84219D9234800686A
:1042D00020F00F00284321490860FEF737FD07460C
:1042E00008E0FEF733FDC01B41F28831884201D956
:1042F000032035E71948006800F00F00A842F0D10C
:10430000207800F00400042807D11548806820F4C4
:10431000E060E168084312498860207800F00800F6
:10432000082808D10E48806820F46050216940EACE
:10433000C1000B49886000F047F809498968C1F35A
:104340000311094A515C01F01F01C8400749086088
:1043500007480068FFF7A6FB02E7000000200240C4
:104360000010024000B4C404FE8E000810000020BB
:10437000A0000020014800687047000010000020E5
:1043800000B5FFF7F7FF05498968C1F30221044A28
:10439000515C01F01F01C84000BD00000010024048
:1043A0000E8F000800B5FFF7E5FF05498968C1F3E6
:1043B000C221044A515C01F01F01C84000BD000049
:1043C000001002400E8F000870B5224DAD6805F058
:1043D0000C05042D01D120483AE01E4DAD6805F0D2
:1043E0000C05082D01D11C4832E01A4DAD6805F0CE
:1043F0000C050C2D2BD1174DED6805F00304154D60
:10440000ED68C5F303156A1C022C0CD0032C09D1EE
:10441000114DB5FBF2F50F4EF668C6F3062605FB07
:1044200006F10AE000BF0C4DB5FBF2F5094EF66847
:10443000C6F3062605FB06F100BF00BF054DED687B
:10444000C5F341656D1C6B00B1FBF3F000E000208B
:1044500070BD0000001002400024F4002DE9F84374
:10446000044614B90120BDE8F883207800F001006B
:10447000002865D0FC48806800F00C07FA48C06846
:1044800000F003060C2F01D1032E01D0082F0AD112
:10449000F548006800F40030002851D0606800281A
:1044A0004ED10120DFE700BF6068B0F5803F06D144
:1044B000ED48006840F48030EB4908601AE060681D
:1044C000B0F5A02F0BD1E848006840F48020E64901
:1044D00008600846006840F4803008600AE0E2485E
:1044E000006820F48030E04908600846006820F445
:1044F0008020086000BF606888B1FEF727FC054691
:1045000006E0FEF723FC401B642801D90320AAE73C
:10451000D548006800F400300028F2D010E0FEF723
:1045200015FC054606E0FEF711FC401B642801D986
:10453000032098E7CC48006800F400300028F2D14E
:10454000207800F00200022860D1C748806800F09F
:104550000C07C548C06800F003060C2F01D1022EDD
:1045600001D0042F18D1C048006800F4806018B151
:10457000E06808B9012076E7BB48406820F0FE40BB
:10458000217C40EA0160B8494860B8480068FFF7FC
:1045900089FA18B3012066E7E06800B3B248006802
:1045A00040F48070B0490860FEF7D0FB054606E095
:1045B000FEF7CCFB401B022801D9032053E7AA4891
:1045C000006800F480600028F2D0A748406820F01E
:1045D000FE40217C40EA0160A349486016E0A24801
:1045E000006820F48070A0490860FEF7AFFB054624
:1045F00006E0FEF7ABFB401B022801D9032032E79F
:104600009948006800F480600028F2D1207800F01A
:104610000800082836D16069D0B19348943000680A
:1046200040F001009049C1F89400FEF78FFB054669
:1046300006E0FEF78BFB401B022801D9032012E79E
:1046400089489430006800F002000028F1D019E099
:1046500085489430006820F001008349C1F8940037
:10466000FEF774FB054606E0FEF770FB401B0228D0
:1046700001D90320F7E67C489430006800F002007E
:104680000028F1D1207800F00400042872D14FF006
:1046900000087548806D012121EA107078B100BFD3
:1046A0007148806D40F080506F4988650846806D84
:1046B00000F08050009000BF00BF4FF001086C4830
:1046C000006800F48070B0B96948006840F48070F8
:1046D00067490860FEF73AFB054606E0FEF736FB41
:1046E000401B022801D90320BDE66148006800F4A0
:1046F00080700028F2D000BFA068012808D15A4875
:104700009030006840F001005749C1F8900021E066
:10471000A06805280FD154489030006840F004008C
:104720005149C1F890000846D0F8900040F00100CF
:10473000C1F890000EE04C489030006820F0010075
:104740004949C1F890000846D0F8900020F00400D4
:10475000C1F8900000BFA068A8B1FEF7F7FA0546BF
:1047600009E0FEF7F3FA401B41F28831884202D992
:10477000032078E625E03C489030006800F0020015
:104780000028EED013E0FEF7E1FA054608E0FEF758
:10479000DDFA401B41F28831884201D9032062E6EC
:1047A00031489030006800F002000028EFD1B8F1E5
:1047B000010F05D12C48806D20F080502A49886572
:1047C00000BF207800F02000202836D1A069D0B1A9
:1047D00025489830006840F001002349C1F898004E
:1047E000FEF7B4FA054606E0FEF7B0FA401B0228D1
:1047F00001D9032037E61C489830006800F0020019
:104800000028F1D019E018489830006820F0010025
:104810001549C1F89800FEF799FA054606E0FEF73B
:1048200095FA401B022801D903201CE60E48983057
:10483000006800F002000028F1D1E069002860D093
:104840000948806800F00C000C287AD0E069022842
:1048500058D10548006820F0807003490860FEF7D1
:1048600075FA05460DE0000000100240A00000208F
:1048700000700040FEF76AFA401B022801D90320AD
:10488000F1E54A48006800F000700028F2D1D4E950
:104890000810401E41EA0011A06A41EA0021208E62
:1048A0000122C2EB500041EA40513420005DC2EBCE
:1048B000500041EA40612C20005D41EAC0603B4964
:1048C000C9683B4A114008433849C8600846006837
:1048D00040F0807008600846C06840F08070C86092
:1048E000FEF734FA054606E0FEF730FA401B0228D0
:1048F00001D90320B7E52D48006800F000700028BA
:10490000F2D051E02948006820F080702749086003
:10491000FEF71CFA054606E0FEF718FA401B0228CF
:1049200001D903209FE52148006800F000700028AD
:10493000F2D11E48C0681F4908401C49C86033E0D6
:10494000FFE7E069012800D18DE51848C66806F048
:104950000301206A814225D106F0F001606A401E01
:10496000B1EB001F1ED106F4FE41A06AB1EB002F8F
:1049700018D106F078412C20005DB1EBC06F11D149
:1049800006F4C001208E0122C2EB5000B1EB405F63
:1049900008D106F0C0613420005DC2EB5000B1EBDD
:1049A000406F01D001205EE500205CE50010024070
:1049B0000C809F01FCFFEEFE70B504462546681E84
:1049C000B0F1807F01D301200FE0681E4FF0E0219D
:1049D00048610F214FF0FF3003F0FAFB00204FF049
:1049E000E021886107200861002070BD7047704792
:1049F0007047000010B50346002200BF93F83C004A
:104A0000012801D1022010BD012083F83C0000BF25
:104A100022F0FF00CC6840EA040222F440708C6867
:104A200040EA040222F480604C6840EA040222F466
:104A300000600C6840EA040222F480500C6940EAED
:104A4000040222F400504C6940EA040222F480403F
:104A50000C6B40EA040222F470200C8B40EA044202
:104A600022F08050CC6940EA0402144C1868A0423D
:104A700007D0134C1868A04203D0124C1868A0420B
:104A800013D122F470000C8D40EA045222F08070A1
:104A90000C6A40EA040222F000704C6A40EA040208
:104AA00022F00050CC6A40EA04021868426400BF59
:104AB000002083F83C0000BF00BFA4E7002C0140A9
:104AC00000340140005001407047704770470000BB
:104AD00030B502460B4600BF92F83C00012801D1D8
:104AE000022030BD012082F83C0000BF022082F885
:104AF0003D001068416810688468234D1068A84222
:104B000007D0224D1068A84203D0214D1068A8425A
:104B100003D121F47001586801431E480140186810
:104B2000014310684160184D1068A8421BD01068FE
:104B3000B0F1804F17D0184D1068A84213D0174D10
:104B40001068A8420FD0164D1068A8420BD00F4D28
:104B50001068A84207D0134D1068A84203D00C4D2E
:104B60001068A84205D124F08004986804431068B6
:104B70008460012082F83D0000BF002082F83C00E4
:104B800000BF00BFADE70000002C01400034014031
:104B9000005001408FFFFFFD00040040000800406E
:104BA000000C004000400140704710B504460CB9AD
:104BB000012010BD94F83D0028B9002084F83C0085
:104BC000204600F029F8022084F83D00211D2068CD
:104BD00002F022FB012084F8480000BF84F83E0068
:104BE00001213F200155402001554120015542201F
:104BF00001554320015500BF00BF012084F8440047
:104C000045200155462001554720015500BF012090
:104C100084F83D000020CCE738B5044628492068D8
:104C2000884216D100BF2748806D40F0100025490A
:104C300088650846806D00F01000009000BF00BF3E
:104C4000002211463620FEF78FFF3620FEF778FF50
:104C500034E01D492068884216D100BF1948806D94
:104C600040F02000174988650846806D00F020005C
:104C7000009000BF00BF002211463720FEF774FFEE
:104C80003720FEF75DFF19E010492068884215D1F2
:104C900000BF0C48006E40F400300A490866084620
:104CA000006E00F40030009000BF00BF00221146EB
:104CB0001920FEF759FF1920FEF742FF38BD00000A
:104CC0000010004000100240001400400044014069
:104CD000014691F83D00012801D0012070470220D3
:104CE00081F83D000868C06840F001000B68D8609A
:104CF0001C4B086898421BD00868B0F1804F17D051
:104D0000194B0868984213D0184B086898420FD086
:104D1000174B086898420BD0164B0868984207D08A
:104D2000154B0868984203D0144B0868984210D17C
:104D300008688068124B00EA0302062A0FD0B2F519
:104D4000803F0CD00868006840F001000B681860D4
:104D500005E00868006840F001000B68186000205A
:104D6000BCE70000002C01400004004000080040A7
:104D7000000C004000340140004001400050014060
:104D800007000100704770B504462068C6682068B7
:104D9000056905F00200022819D106F00200022878
:104DA00015D1401F216808610120207720688069A3
:104DB00000F0030018B12046FFF7E4FF05E02046AD
:104DC00000F022F9204600F031FA0020207705F0AB
:104DD0000400042819D106F00400042815D1C043AA
:104DE00021680861022020772068806900F4407003
:104DF00018B12046FFF7C6FF05E0204600F004F991
:104E0000204600F013FA0020207705F0080008285B
:104E100019D106F00800082815D1C043216808619F
:104E2000042020772068C06900F0030018B12046F4
:104E3000FFF7A8FF05E0204600F0E6F8204600F066
:104E4000F5F90020207705F01000102819D106F0A0
:104E50001000102815D1C043216808610820207770
:104E60002068C06900F4407018B12046FFF78AFF3F
:104E700005E0204600F0C8F8204600F0D7F90020F1
:104E8000207705F0010048B106F0010030B16FF065
:104E9000010021680861204600F0C9F905F0800092
:104EA000802804D005F40050B0F5005F0AD106F068
:104EB0008000802806D16FF40250216808612046E6
:104EC000FFF795FD05F48070B0F5807F0AD106F0FC
:104ED0008000802806D16FF4807021680861204628
:104EE000FFF784FD05F04000402809D106F040009E
:104EF000402805D1C04321680861204600F098F998
:104F000005F02000202809D106F02000202805D136
:104F1000C043216808612046FFF76AFD05F4801050
:104F2000B0F5801F0BD106F48010B0F5801F06D1BC
:104F30006FF48010216808612046FFF7C6FD05F474
:104F40000010B0F5001F0BD106F40010B0F5001FE3
:104F500006D16FF40010216808612046FFF7B4FD08
:104F600005F48000B0F5800F0BD106F48000B0F599
:104F7000800F06D16FF48000216808612046FFF79A
:104F8000A5FD05F40000B0F5000F0BD106F40000FC
:104F9000B0F5000F06D16FF40000216808612046CB
:104FA000FFF702FE70BD000010B586B00446142164
:104FB00001A8FBF75BFA1149206888421BD100BFAA
:104FC0000F48C06C40F004000D49C8640846C06C2E
:104FD00000F00400009000BF00BF4FF400500190AB
:104FE000022002900020039004900420059001A963
:104FF0000448FDF7BFFD06B010BD0000002C0140C5
:10500000001002400008004870472DE9F0410446B6
:105010000D461646002700BF94F83C00012802D137
:105020000220BDE8F081012084F83C0000BF0C2E76
:1050300051D005DC4EB1042E1ED0082E7AD133E0BB
:10504000102E60D0142EF9D175E02946206802F0A8
:105050005BF92068806940F0080021688861206859
:10506000806920F0040021688861206880692969CE
:1050700008432168886178E02946206802F0A2F997
:105080002068806940F40060216888612068806938
:1050900020F480602168886120688069296940EA7D
:1050A00001202168886160E02946206802F0EEF95D
:1050B0002068C06940F008002168C8612068C069A4
:1050C00020F004002168C8612068C069296908438C
:1050D0002168C86149E02946206802F039FA206851
:1050E000C06940F400602168C8612068C06920F48C
:1050F00080602168C8612068C069296940EA012090
:105100002168C86131E02946206802F085FA2068EC
:10511000006D40F00800216808652068006D20F0EF
:105120000400216808652068006D2969084321682A
:1051300008651AE017E02946206802F0A9FA2068FD
:10514000006D40F40060216808652068006D20F45F
:105150008060216808652068006D296940EA0120A7
:105160002168086501E0012700BF00BF00BF0020E3
:1051700084F83C0000BF384653E710B504460CB92C
:10518000012010BD94F83D0028B9002084F83C00AF
:10519000204600F029F8022084F83D00211D2068F7
:1051A00002F03AF8012084F8480000BF84F83E007D
:1051B00001213F2001554020015541200155422049
:1051C00001554320015500BF00BF012084F8440071
:1051D00045200155462001554720015500BF0120BB
:1051E00084F83D000020CCE738B504460D4920681E
:1051F000884215D100BF0C48006E40F400600A4997
:1052000008660846006E00F40060009000BF00BF12
:10521000002211461920FEF7A7FC1920FEF790FC8A
:1052200038BD0000002C014000100240704770475C
:105230007047014600BF91F88400012801D1022087
:105240007047012081F8840000BF2420C1F8880045
:10525000086802680868006820F001000B681860A0
:1052600022F0005200204866086802602020C1F841
:10527000880000BF002081F8840000BF00BFDFE786
:105280007047704770B504460D4600BF94F884001F
:10529000012801D1022070BD012084F8840000BFE4
:1052A0002420C4F88800206806682068006820F080
:1052B0000100216808602068806820F06060284351
:1052C00021688860204602F021FA206806602020CC
:1052D000C4F8880000BF002084F8840000BF00BF2D
:1052E000D9E770B504460D4600BF94F88400012844
:1052F00001D1022070BD012084F8840000BF242069
:10530000C4F88800206806682068006820F0010062
:10531000216808602068806820F060402843216888
:105320008860204602F0F2F9206806602020C4F868
:10533000880000BF002084F8840000BF00BFD9E7C8
:105340007047704770B50446D4F88850D4F88C6024
:105350002068806800F08000802823D1212D21D191
:1053600000BF00BF2168083151E8001F21F0800014
:105370002168083141E80002002AF3D100BFE06F44
:1053800068B1E06FFCF792FE48B1E06FFCF713FFE5
:10539000202804D11020C4F89000032070BD2046BE
:1053A00002F0F8FB2068806800F04000402826D119
:1053B000222E24D100BF00BF2168083151E8001F10
:1053C00021F040002168083141E80002002AF3D1B1
:1053D00000BFD4F8800078B1D4F88000FCF766FEF6
:1053E00050B1D4F88000FCF7E6FE202804D110204C
:1053F000C4F890000320D1E7204602F07DFB002096
:10540000CCE7000010B50446204600F01FF800F07D
:10541000080068B100BF2068806940F0080021687A
:1054200088612068806940F010002168886100BFB1
:105430002046FFF787FF4FF496720249024800F0BA
:1054400061FB10BD440A0020440700200146D1F84A
:10545000900070472DE9F04704462068C569206830
:1054600006682068876840F60F0005EA0009B9F170
:10547000000F0FD105F0200060B106F0200010B938
:1054800007F0805030B1606F10B12046616F8847DF
:10549000BDE8F087B9F1000F7ED0DF48384018B979
:1054A000DE4830400028F7D005F0010058B106F47E
:1054B000807040B1012021680862D4F8900040F06B
:1054C0000100C4F8900005F0020058B107F0010097
:1054D00040B1022021680862D4F8900040F0040036
:1054E000C4F8900005F0040058B107F0010040B185
:1054F000042021680862D4F8900040F00200C4F84B
:10550000900005F0080070B106F0200010B9C24804
:10551000384040B1082021680862D4F8900040F07B
:105520000800C4F8900005F4006060B106F08060E7
:1055300048B14FF4006021680862D4F8900040F050
:105540002000C4F89000D4F89000002852D005F054
:10555000200050B106F0200010B907F0805020B1B3
:10556000606F10B12046616F8847D4F890A0206822
:10557000806800F04000402802D00AF0280070B394
:10558000204602F0B9FA2068806800F04000402808
:1055900026D100BF00BF00E02DE02168083151E8AE
:1055A000001F21F040002168083141E80002002A74
:1055B000F1D100BFD4F8800068B19948D4F88010C8
:1055C0008863D4F88000FCF7ACFD98B1D4F8800073
:1055D000816B88470EE02046FFF714FF0AE003E0E6
:1055E0002046FFF70FFF05E02046FFF70BFF0020E6
:1055F000C4F890004CE7E06E012865D105F010007A
:10560000002861D006F010000028FAD01020216890
:1056100008622068806800F0400040287AD1D4F801
:105620008000006840681FFA80F8B8F1000F5CD075
:10563000B4F85C00404558DDA4F85E80D4F88000E2
:105640000068006800F02000E8BB00BF00BF2168D0
:1056500051E8001F21F48070226842E8000100290F
:10566000F5D100BF00BF00BF2168083151E8001F1D
:1056700021F001002168083141E80002002AF3D13D
:1056800000BF00BF00BF2168083151E8001F21F0B2
:1056900040002168083141E80002002AF3D100BF30
:1056A0002020C4F88C000020E06600BF00BF216805
:1056B00051E8001F21F01000226842E80001002993
:1056C000F5D100BF01E004E068E0D4F88000FCF709
:1056D000EDFC02202067B4F85C00B4F85E20801A6C
:1056E00081B22046FFF7CCFD12E0B4F85C004045E3
:1056F0000ED1D4F880000068006800F02000202857
:1057000006D102202067B4F85C102046FFF7B8FDF0
:10571000BEE6FFE734F85C0F6188401A1FFA80F894
:1057200060885C3CC8B3B8F1000F36D000BF00BF42
:10573000216851E8001F21F49070226842E80001BE
:105740000029F5D100BF00BF00BF2168083151E832
:10575000001F314AD24301EA02002168083141E8C2
:105760000002002AF1D100BF2020C4F88C000020E4
:10577000E066606700BF00BF216851E8001F21F0AC
:105780001000226842E800010029F5D100BF022084
:10579000206741462046FFF773FD79E605F4801047
:1057A00050B107F4800038B14FF4801021680862CE
:1057B0002046FFF7C6FD6BE605F0800058B106F005
:1057C000800010B907F4000028B1A06F10B1204686
:1057D000A16F88475CE605F0400030B106F040005C
:1057E00018B1204602F0BEF952E605F4000030B1CF
:1057F00006F0804018B12046FFF7A2FD48E605F00C
:10580000807030B106F0004018B12046FFF739FD36
:105810003EE600BF3CE6000001000010200100044D
:105820004779000810B504460CB9012010BDA069E5
:1058300000B100E000BFD4F8880028B9002084F847
:105840008400204600F02AF82420C4F8880020684C
:10585000006820F0010021680860A06A10B12046AD
:1058600001F080FF204602F0B5F9012800D1DDE704
:105870002068406820F49040216848602068806873
:1058800020F02A00216888602068006840F001004C
:1058900021680860204601F0E1FFC7E710B59CB021
:1058A0000446142117A8FAF7E1FD542102A8FAF7DB
:1058B000DDFD8B492068884277D1012002900020CD
:1058C000039002A8FEF738FA08B1FBF752FB00BFBD
:1058D0008448006E40F48040824908660846006EA5
:1058E00000F48040019000BF00BF00BF0846C06CBC
:1058F00040F00200C8640846C06C00F0020001904D
:1059000000BF00BFC02017900220189001201990FE
:1059100000201A9007201B9017A97348FDF72AF959
:1059200072487349086018204860002170488160FF
:10593000C16080210161002141618161C1614FF439
:1059400000510162FCF7BAFC08B1FBF712FB00BF83
:105950006748C4F88000846200BF64481430654919
:105960000860192048601021624881600021C160F0
:1059700080210161002141618161C1614FF40051C9
:105980000162FCF79BFC08B1FBF7F3FA00BF594832
:10599000E067846200BF002211462520FEF7E4F88C
:1059A0002520FEF7CDF898E0FFE7534920688842AC
:1059B000F9D1022002900020049002A8FEF7BCF961
:1059C00008B1FBF7D6FA00BF4648806D40F40030BE
:1059D000444988650846806D00F40030019000BF9E
:1059E00000BF00BF0846C06C40F00100C864084614
:1059F000C06C00F00100019000BF00BF00BF08466E
:105A0000C06C40F00200C8640846C06C00F00200A0
:105A1000019000BF00BF4FF4004017900220189083
:105A20000120199000201A9007201B9017A94FF011
:105A30009040FDF79FF80820179002201890012051
:105A4000199000201A9007201B9017A92648FDF7EF
:105A500091F826482838294908601A204860002112
:105A600026488160C160802101610021416181611E
:105A7000C1614FF480510162FCF720FC08B1FBF7D3
:105A800078FA00BF1D48C4F88000846200BF174840
:105A900014381B4908601B20486010211848816099
:105AA0000021C160802101610021416181612021CB
:105AB000C161C9010162FCF701FC08B1FBF759FAA9
:105AC00000BF0F48E067846200BF00220521262046
:105AD000FEF74AF82620FEF733F81CB010BD000090
