:020000040800F2
:1000000060AB0024E1020008E91C0008F11C0008B4
:10001000F91C0008011D0008091D0008000000006F
:10002000000000000000000000000000B904020809
:10003000111D00080000000031070208990702089E
:10004000FB020008FB020008FB020008FB0200089C
:10005000FB020008FB020008FB020008FB0200088C
:10006000FB020008FB020008FB020008191D000843
:10007000291D0008391D0008491D0008591D0008E8
:10008000691D0008791D0008FB020008891D000891
:10009000991D0008FB020008FB020008FB02000893
:1000A000FB020008A91D0008FB020008FB02000873
:1000B000B91D0008FB020008FB020008FB02000853
:1000C000FB020008FB020008FB020008C91D000833
:1000D000FB020008D91D0008F91D0008191E0008C0
:1000E000FB020008FB02000800000000FB02000801
:1000F000FB020008FB020008FB020008391E000892
:10010000FB020008FB020008FB020008FB020008DB
:10011000FB020008FB020008FB020008FB020008CB
:10012000491E0008591E0008691E0008FB0200084D
:10013000FB020008FB020008FB020008FB020008AB
:1001400000000000000000000000000000000000AF
:10015000FB020008FB020008FB020008791E0008F1
:10016000FB020008FB020008991E0008A91E0008F7
:10017000FB020008B91E0008FB0200080000000096
:10018000FB020008FB020008FB020008FB0200085B
:10019000FB020008FB020008FB020008FB0200084B
:1001A000FB020008FB020008FB0200080000000040
:1001B000FB020008FB020008FB020008FB0200082B
:1001C000FB020008FB020008000000000000000025
:1001D0000000000000000000FB020008000000001A
:1001E000000000000000000000000000000000000F
:1001F0000000000000000000FB020008FB020008F5
:10020000FB020008FB02000800000000FB020008DF
:10021000FB020008FB020008FB020008FB020008CA
:10022000FB02000800000000FB02000800000000C4
:10023000FB020008FB02000800000000FB020008AF
:10024000FB020008FB020008FB020008FB0200089A
:10025000FB020008FB020008FB020008FB0200088A
:10026000FB020008FB020008FB020008FB0200087A
:10027000FB020008FB020008FB020008000000006F
:10028000FB020008FB020008FB020008FB0200085A
:1002900000000000FB020008FB0200080000000054
:1002A00000000000FB020008FB020008FB0200083F
:1002B000C91E0008FB020008FB020008E91E000836
:1002C000FB020008FB020008FB020008DFF80CD06C
:1002D00021F0A2FC004800470903000860AB00249D
:1002E0000648804706480047FEE7FEE7FEE7FEE7D0
:1002F000FEE7FEE7FEE7FEE7FEE7FEE771630008C4
:10030000CD02000800000000B0B00EF0EDFA00F0E1
:1003100087F86C46B821204621F084FA00274FF474
:10032000104000900C200390C020CDE907074FF04B
:1003300000501B90204601974FF00108CDF808802F
:1003400002260696CDE9046609974FF48055179565
:1003500009F0F2F918B1EFF3108072B6FEE744F23B
:10036000E0400497C5F602000024CDE90277CDE90C
:1003700000770168C5F6020441F0010101600068E0
:10038000694600F001002F902F982046CDE90058D3
:1003900002960AF081FD4FF48051002220460AF0B7
:1003A000E7FE64200EF088FB4FF4805101222046C6
:1003B0000AF0DEFE64200EF07FFB00F015F900F07D
:1003C000C7FA00F0F1FF00F0ABFF00F0FDFC00F019
:1003D0002BFE00F0A5FB00F063FF01F025F801F013
:1003E00063F801F0A1F800F027FB00F05DFB00F0DE
:1003F00057FE00F041FD4FF496700EF05DFB05F0E6
:10040000E7FE03F01DFB03F0AFF94FF496700EF01A
:1004100053FB00F0A1F91FF0F7F800BFFEE700BFA3
:10042000B0B59CB044F6180409A84C21C5F60204E6
:1004300021F0F8F902200025CDE90755CDE9055551
:10044000CDE90355CDE901550DF0C6FD00952068B5
:1004500020F440402060206800F440400090009864
:1004600020688004FCD5292009904FF480300A9040
:1004700001200221CDE90E00CDE9121114902221B4
:10048000CDE9151037210024CDE917100C20199063
:100490004FF440601B9009A81A9408F019FB20B192
:1004A000EFF3108072B600BFFEE73F2001900320FB
:1004B0004FF48061CDE90204082004904020CDE98A
:1004C0000500CDE9071001A8032108F0E9FD20B1DE
:1004D000EFF3108072B600BFFEE708F0E5FF1CB036
:1004E000B0BD00BF00BF00BF10B5AEB06C46B821B4
:1004F000204621F097F9002001904FF4104100911F
:10050000012102910C21039102210691CDE90411F0
:10051000C0210990CDE907104FF4805017904FF09B
:1005200000501B90204609F007F920B1EFF310802E
:1005300072B600BFFEE72EB010BD00BF00BF00BF07
:1005400010B586B000200590CDE90300CDE901008B
:1005500044F2E0400024C5F60200C5F6020401683A
:1005600041F001010160006801A900F00100009064
:1005700000984FF4805001900120029002200390D7
:1005800020460AF089FC4FF48051002220460AF0F0
:10059000EFFD64200EF090FA4FF4805101222046C6
:1005A0000AF0E6FD06B010BDEFF3108072B600BF92
:1005B000FEE700BF00BF00BF10B500210446006881
:1005C000C4F20101884201D10EF036FA2068B0F180
:1005D000804F18BF10BD43F28810C2F2004041683E
:1005E0000131416010BD0000F0B587B044F2E04039
:1005F0000026C5F602000696CDE90466CDE902663E
:10060000016840F6004441F0100101600168C5F640
:10061000020401F0100101910199016841F0040107
:1006200001600168002201F0040101910199016853
:1006300041F080010160016801F0800101910199A0
:10064000016841F001010160016801F001010191BF
:100650000199016841F002010160016801F00201A5
:1006600001910199016841F00801016000684FF4AF
:10067000C06100F008000190019820460AF078FD62
:1006800002AD4FF6F370029004F58060294603270F
:10069000CDE903760AF000FC4FF63F702946CDE91C
:1006A0000207A4F5806004960AF0F6FB48F21310E6
:1006B0002946CDE90207A4F5406004960AF0ECFB58
:1006C0004CF2FF302946CDE90207A4F500600496FC
:1006D0000AF0E2FB40F67C102946CDE902072046ED
:1006E00004960AF0D9FB4FF40070029002202946CC
:1006F000CDE904062046012703970AF0CDFB4FF40D
:1007000080602946CDE902072046CDE904660AF05B
:10071000C3FB07B0F0BD000047F2B053C2F2004384
:10072000036047F2AC30C2F20040086080201060E5
:10073000704700BF00BF00BF47F6B023C2F20043BE
:10074000036047F2AC60C2F2004008604FF4807072
:100750001060704700BF00BF10B5B2B043F2700028
:10076000C0F6020001682B9141682C9181682D919F
:10077000C1682E9101692F91416930918069319052
:100780002BA800211EF058FF40F25411C2F2004184
:10079000086043F25400C0F60200016824914168E9
:1007A000259181682691C168279101692891416945
:1007B000299180692A9024A800211EF03DFF40F273
:1007C0005811C2F2004108603AA03A491D914168AF
:1007D0001E9181681F91C168209101692191416931
:1007E0002291806923901DA800211EF025FF40F270
:1007F0003C11C2F20041086035A0354916914168AC
:10080000179181681891C168199101691A9141691C
:100810001B9180691C9016A800211EF00DFF40F26C
:100820004C11C2F20041086030A030490F9141687C
:10083000109181681191C168129101691391416908
:100840001491806915900FA800211EF0F5FE40F26A
:1008500038142D49C2F20044089120602AA0416852
:10086000099181680A91C1680B9101690C914169F4
:100870000D9180690E9008A800211EF0DDFE206019
:1008800028A0284901914168029181680391C168BB
:10089000049101690591416906918069079001A859
:1008A00000211EF0C9FE40F24011C2F20041086072
:1008B00032B010BD6F360208712700080200000038
:1008C0000000000000010000000000000000000027
:1008D0005536020831280008020000000000000020
:1008E00080000000000000000000000064360208E4
:1008F000F1290008000000000000000000010000D5
:10090000000000000000000078360208A130000856
:100910000000000000000000800000000000000057
:10092000000000004B36020849270008FEFF0000C7
:100930000000000080000000000000000000000037
:1009400080B501F059FB00BF64201EF0DDFEFBE71F
:1009500080B582B044F2D8400022C5F6020001689A
:1009600041F001010160016801F00101019101996B
:10097000016841F0020101600068052100F00200F9
:10098000009000980B200DF01FFE0B200DF04CFE88
:100990000C20052100220DF017FE0C200DF044FE66
:1009A0000D20052100220DF00FFE0D200DF03CFE64
:1009B0000E20052100220DF007FE0E200DF034FE62
:1009C0000F20052100220DF0FFFD0F200DF02CFE61
:1009D0001020052100220DF0F7FD10200DF024FE5F
:1009E0001120052100220DF0EFFD11200DF01CFE5D
:1009F0002F20052100220DF0E7FD2F200DF014FE21
:100A00003820052100220DF0DFFD38200DF00CFE0E
:100A10003920052100220DF0D7FD39200DF004FE0C
:100A20003A20052100220DF0CFFD3A2002B0BDE8AA
:100A300080400DF0F9BD000080B542F230204AF24E
:100A40000001C2F20040C4F200010122082301604B
:100A50000021C0E9021102828274C0E90532C3613B
:100A60000323C0E9083282620D22C2620222C0E979
:100A70000C2105220423C0E90E2140220264C0E9B2
:100A80001132C0E91331C0E91531C1652022C0E936
:100A9000182183660EF094FA002808BF80BDBDE8D7
:100AA0008040FFF781BD00BF80B542F2D0204AF2FE
:100AB0000041C2F20040C4F200010122082301609B
:100AC0000021C0E9021102828274C0E90532C361CB
:100AD0000323C0E9083282620D22C262022202634D
:100AE00040F2523242630522C0E90E2140220264E4
:100AF0000423C165C0E91132C0E91331C0E91531E1
:100B000020228366C0E918210EF05AFA002808BF97
:100B100080BDBDE88040FFF747BD00BF00BF00BFFC
:100B200080B542F270304DF20041C2F20040C4F292
:100B300000010122082301600021C0E902110182A5
:100B40008274C0E90532C3610323C0E908328262BE
:100B50000D22C2620222026340F2A46242630522B5
:100B6000C0E90E21402202640423C165C0E91132AC
:100B7000C0E91331C0E9153120228366C0E918218C
:100B80000EF01EFA002808BF80BDBDE88040FFF7C8
:100B90000BBD00BF00BF00BF10B586B04DF20042D4
:100BA0000068C4F20002002190420591CDE90311D2
:100BB000CDE901115BD04AF20041C4F20001884244
:100BC0002AD04AF20001C4F20001884240F0898034
:100BD00040F2441144F2E040C2F20041C5F6020086
:100BE0000A68002A02F101020A6008D1C16841F4D2
:100BF0008071C160C16801F4807100910099016841
:100C0000132441F0080101600068092100F0080088
:100C10000090009803224EE040F2441144F2E0407C
:100C2000C2F20041C5F602000A68002A02F1010280
:100C30000A6008D1C16841F48071C160C16801F4E3
:100C40008071009100990168142441F00201016053
:100C50000068092100F002000090009840F6004072
:100C6000C5F602004FF44052A0F5006027E040F2C4
:100C7000441144F2E040C2F20041C5F602000A68A5
:100C8000002A02F101020A6008D1C16841F48071B2
:100C9000C160C16801F480710091009901689F24CE
:100CA00041F0080101600068052100F00800009093
:100CB0004FF44052009840F60040C5F602000591FE
:100CC00001A90192022202920022CDE903220AF038
:100CD000E3F80521002220460DF076FC20460DF0B9
:100CE000A3FC06B010BD00BF80B54DF20041006806
:100CF000C4F20001884247D04AF20041C4F2000128
:100D0000884222D04AF20001C4F20001884218BF92
:100D100080BD40F24410C2F2004001680139016018
:100D200007D144F2EC40C5F60200016821F480715D
:100D3000016040F600400321C5F602000AF080F988
:100D40001320BDE880400DF083BC40F24410C2F295
:100D5000004001680139016007D144F2EC40C5F65A
:100D60000200016821F48071016040F600404FF4F8
:100D70004051C5F60200A0F500600AF061F91420A8
:100D8000BDE880400DF064BC40F24410C2F2004067
:100D900001680139016007D144F2EC40C5F6020058
:100DA000016821F48071016040F600404FF4405129
:100DB000C5F602000AF044F99F20BDE880400DF01E
:100DC00047BC00000000000080B542F6041041F668
:100DD0000001C2F20040C4F602010022C0E9001284
:100DE00010F0F6F8002808BF80BDBDE88040FFF78E
:100DF000DBBB00BF00BF00BF10B5B0B0044602A807
:100E0000B82120F00FFD41F600012068C4F6020170
:100E1000884201D030B010BD00200390219002A87C
:100E20004FF40031029108F087FC08B1FFF7BCFBDA
:100E300044F2DC40C5F60200016841F04001016067
:100E4000006800F040000190019830B010BD00BF74
:100E500041F600010068C4F60201884218BF7047DD
:100E600044F2DC40C5F60200016821F04001016057
:100E7000704700000000000010B542F6181443F25D
:100E80000000C2F20044C4F201004FF08071206003
:100E90004FF4800060604FF40030A0600720E060F5
:100EA0000020206161614FF08061A1614FF04051ED
:100EB000C4E90710C4E90900E0624FF080406063B4
:100EC00004F13800242120F0ADFC204610F02CFA6B
:100ED000002808BF10BDBDE81040FFF765BB00BF8C
:100EE0002DE9F04387B043F2000104460068C4F2E4
:100EF000010100278842CDE90577049703970297FF
:100F000002D007B0BDE8F08344F2E0400025C5F60A
:100F10000200C5F6020502AE4FF0020801694FF06B
:100F2000050941F480510161016901F48051019189
:100F30000199016841F001010160016801F00101BE
:100F400001910199016841F0080101600068314692
:100F500000F0080001900198202002902846CDE979
:100F600003870597CDF8189009F096FF8020314649
:100F7000CDE9020805F54060CDF81890CDE9047779
:100F800009F08AFF41F6085540F24040C2F20045A0
:100F9000C4F202002860262068604020C5E90207EC
:100FA0004FF48060C5E904072846C5E90677C5E91E
:100FB00008770AF015F908B1FFF7F6FA23200521A2
:100FC0000022A567AC630DF0FFFA23200DF02CFB87
:100FD00007B0BDE8F08300BFB0B543F2000104469E
:100FE0000068C4F20101884218BFB0BD44F2F0406D
:100FF0000025C5F60200C5F60205016821F48051FE
:101000000160202128460AF01BF805F54060802188
:101010000AF016F8A06F0AF08FFC2320BDE8B0405C
:101020000DF016BB0000000080B588B042F6EC1051
:101030000021C2F200400791CDE90511CDE903116D
:10104000CDE901114FF0804202600A228161C0E9BE
:1010500001214FF0FF32C0E9032111F08DFF08B1EB
:10106000FFF7A2FA4FF48050049042F6EC1004A966
:10107000C2F2004016F038FC08B1FFF795FA0020E4
:101080000190039042F6EC10C2F2004001A918F062
:1010900033FA08B1FFF788FA08B080BD00BF00BF7F
:1010A000B0B590B042F6382040F20045C2F20040A0
:1010B0000024CDE90844CDE90644CDE90444CDE956
:1010C0000244C4F200050560CDE900444FF4897183
:1010D0008461C0E9011444F61F61C0E9031413F0F0
:1010E0003FF808B1FFF760FA42F6382007A9C2F2CC
:1010F00000400794099418F0FFF908B1FFF754FA7B
:101100006020009000200490CDE9010042F63820D4
:101110006946C2F20040002215F0A2FC08B1FFF7B8
:1011200043FA42F638246946C2F2004404222046BB
:1011300015F096FC08B1FFF737FA21680020A942A4
:101140000F90CDE90D000C900B9001D010B0B0BD08
:1011500044F2E041C5F602010A6842F001020A6069
:10116000096801F001010A910A99C0210B9102213D
:10117000CDE90C10CDE90E0100200BA9C5F6020047
:1011800009F08AFE10B0B0BD80B586B040F20042D2
:101190000068C4F20002002190420591CDE90311DC
:1011A0000291019101D006B080BD44F2E040C5F645
:1011B0000200026842F001020260006800F00100D3
:1011C00000900098C02001900220CDE90201CDE9F5
:1011D0000410002001A9C5F6020009F05DFE06B06A
:1011E00080BD00BF00BF00BF0068B0F1804F18BFD6
:1011F000704780B582B044F2E8400022C5F6020094
:10120000016841F0010101600068052100F0010062
:10121000019001981C200DF0D7F91C2002B0BDE808
:1012200080400DF001BA00BF40F200410068C4F2F6
:101230000001884218BF704781B044F2E840C5F60B
:101240000200016841F002010160006800F0020044
:101250000090009801B070470068B0F1804F18BF4F
:10126000704744F2E8411C20C5F602010A6822F0EA
:1012700001020A600DF0ECB940F200410068C4F2CE
:101280000001884218BF704744F2E840C5F60200EA
:10129000016821F0020101607047000000000000B9
:1012A00080B542F6685041F60001C2F20040C4F237
:1012B00001010C2201604FF4E13141600021C0E9DD
:1012C00002110161C0E90521C0E90711C0E9091156
:1012D00018F06EFB08B1FFF767F942F6685000217D
:1012E000C2F200401AF0C8FF08B1FFF75DF942F6FC
:1012F00068500021C2F200401BF00AF808B1FFF765
:1013000053F942F66850C2F200401AF099FF0028E3
:1013100008BF80BDBDE88040FFF746B900BF00BFF1
:1013200080B542F6842041F20001C2F2004048F24A
:10133000A062C4F20101C0F20102C0E900124FF440
:10134000805181600021C1604FF4806202610C22F3
:10135000C0E90521C0E90711C0E9091118F028FB0F
:1013600008B1FFF721F942F684200021C2F20040C3
:101370001AF082FF08B1FFF717F942F68420002126
:10138000C2F200401AF0C4FF08B1FFF70DF942F6AF
:101390008420C2F200401AF053FF002808BF80BD2D
:1013A000BDE88040FFF700B980B542F6AC3044F2AA
:1013B0000041C2F20040C4F200010C2201604FF46F
:1013C000E13141600021C0E902110161C0E905215C
:1013D000C0E90711C0E9091118F0EAFA08B1FFF7EE
:1013E000E3F842F6AC300021C2F200401AF044FFAC
:1013F00008B1FFF7D9F842F6AC300021C2F2004044
:101400001AF086FF08B1FFF7CFF842F6AC30C2F20F
:1014100000401AF015FF002808BF80BDBDE88040DD
:10142000FFF7C2B800BF00BF80B542F6404044F6A7
:101430000001C2F20040C4F200010C2201604FF42E
:10144000E13141600021C0E902110161C0E90521DB
:10145000C0E90711C0E9091118F0AAFA08B1FFF7AD
:10146000A3F842F640400021C2F200401AF004FF07
:1014700008B1FFF799F842F640400021C2F200405F
:101480001AF046FF08B1FFF78FF842F64040C2F26B
:1014900000401AF0D5FE002808BF80BDBDE880409E
:1014A000FFF782B800BF00BF80B542F6D44041F2DA
:1014B0000041C2F20040C4F201010C2201604FF46D
:1014C000E13141600021C0E902110161C0E905215B
:1014D000C0E90711C0E9091118F06AFA08B1FFF76D
:1014E00063F842F6D4400021C2F200401AF0C4FE74
:1014F00008B1FFF759F842F6D4400021C2F200408B
:101500001AF006FF08B1FFF74FF842F6D440C2F2D6
:1015100000401AF095FE002808BF80BDBDE880405D
:10152000FFF742B800BF00BF80B542F6183041F661
:101530000041C2F20040C4F201010C2201604FF4EC
:10154000E13141600021C0E902110161C0E90521DA
:10155000C0E90711C0E9091118F02AFA08B1FFF72C
:1015600023F842F618300021C2F200401AF084FE3F
:1015700008B1FFF719F842F618300021C2F2004016
:101580001AF0C6FE08B1FFF70FF842F61830C2F2A3
:1015900000401AF055FE002808BF80BDBDE880401D
:1015A000FFF702B800BF00BF2DE9F043B5B000213E
:1015B0000446CDE93311CDE93111309102A8B821AB
:1015C00020F030F941F2FF312068C4F20101884275
:1015D00000F3898044F20041C4F20001884200F027
:1015E000CC8044F60001C4F20001884200F0AA81D8
:1015F00041F20001C4F20101884240F09B820120C7
:10160000029002A800260396209608F095F808B1EB
:10161000FEF7CAFF44F2E04040F21008C5F60200AF
:10162000C4F20208016941F010010161016901F091
:10163000100101910199016841F001010160006808
:1016400030A900F00100019001984FF4C060309083
:101650000220CDE931060720349000203396C5F6EC
:10166000020009F019FC41F6706508F13000C2F281
:1016700000454FF4806728602920C5E901064FF432
:101680008070EE60C5E907062846AE61C5E90476BC
:101690006E6209F0A5FD08B1FEF786FFC4F8805020
:1016A00008F14800AC6341F6E865C2F200452860E5
:1016B0002A2068604020A8600020C5E90307C5E92A
:1016C0000500C5E907006862284609F089FD08B1F0
:1016D000FEF76AFF252005210022E567AC630CF0C8
:1016E00073FF252024E241F20041C4F20101884247
:1016F00000F0B38041F60041C4F20101884200F0DD
:10170000958141F60001C4F20101884240F0128245
:101710000120029002A800240394209408F00CF801
:1017200008B1FEF741FF44F2E040C5F6020001694E
:1017300041F040010161016901F04001019101990D
:10174000016841F0080101600068002100F0080014
:101750000190C5F6020101984FF4404030900220FC
:101760003394CDE931040B20349001F5406030A969
:1017700009F092FB35B0BDE8F08302A8002603967D
:10178000022502951F9607F0D7FF08B1FEF70CFF60
:1017900044F2E04040F21008C5F60200C4F202082C
:1017A000816841F400318160816801F40031019168
:1017B0000199016841F001010160006830A900F061
:1017C0000100019001980C2061C107203490002095
:1017D00030A9C5F60200339609F05EFB41F660754C
:1017E0002B20C2F200454FF48067C5E901064FF493
:1017F0008070C5F80080C5E907062846EE60C5E997
:101800000476AE616E6209F0EBFC08B1FEF7CCFE27
:10181000C4F8805008F11800AC6341F6D875C2F2E4
:10182000004528602C2068604020A8600020C5E9A1
:101830000307C5E90500C5E907006862284609F005
:10184000CFFC08B1FEF7B0FE262005210022E56797
:10185000AC630CF0B9FE26206AE10120029002A8D8
:1018600000260396209607F067FF08B1FEF79CFE5E
:1018700044F2E04040F21008C5F60200C4F202084B
:10188000016941F020010161016901F0200101912C
:101890000199016841F0040101600068002100F035
:1018A00004000190C5F602010198C020309002208A
:1018B0003396CDE931060720349001F5006030A958
:1018C00009F0EAFA42F2B81508F16000C2F20045E8
:1018D0004FF480672860482068604020C5E9020610
:1018E0002846C5E90476C5E90666C5E9086609F033
:1018F00077FC08B1FEF758FEE56708F1A800AC6375
:1019000042F24015C2F200454FF480712860472032
:1019100068600020C5E90200C5E90470A861C5E956
:1019200007106862284609F05BFC08B1FEF73CFE30
:10193000472005210022C4F88050AC630CF044FE1F
:101940004720F5E002A800260396022502951F967F
:1019500007F0F2FE08B1FEF727FE44F2E04040F245
:101960001008C5F60200C4F20208816841F4802123
:101970008160816801F4802101910199016841F041
:1019800002010160006830A900F002000190019896
:101990004FF4406061C100210720C5F60201349078
:1019A00001F5806030A9339609F076FA42F25005CD
:1019B00008F17800C2F200454FF4806728602D20BE
:1019C000C5E901064FF48070EE60C5E907062846B8
:1019D000AE61C5E904766E6209F002FC08B1FEF75B
:1019E000E3FDC4F8805008F19000AC6342F2C805F2
:1019F000C2F2004528602E2068604020A8600020C8
:101A0000C5E90307C5E90500C5E90700686228467E
:101A100009F0E6FB08B1FEF7C7FD272005210022EB
:101A2000E567AC630CF0D0FD272081E00120029037
:101A300002A800270397209707F07EFE08B1FEF763
:101A4000B3FD44F2E04030AEC5F6020040F21008AB
:101A50004FF00209C4F20208016941F080010161FE
:101A6000016901F0800101910199016841F01001C3
:101A700001600068314600F01000019001980420D8
:101A8000309034900020C5F60200CDF8C49000F5E7
:101A9000805532972846339709F0FEF908203146E1
:101AA000CDE930090B2034902846CDE9327709F092
:101AB000F3F941F6805508F58060C2F200454FF415
:101AC000806628607620C5E901074FF48070EF60DA
:101AD000C5E907072846AF61C5E904676F6209F0E9
:101AE0007FFB08B1FEF760FDC4F8805008F5836005
:101AF000AC6341F6F855C2F2004528607720686073
:101B00004020A8600020C5E90306C5E90500C5E935
:101B100007006862284609F063FB08B1FEF744FD40
:101B20009C2005210022E567AC630CF04DFD9C2054
:101B30000CF07AFD35B0BDE8F08300BF00BF00BFF8
:101B400010B541F2FF3104460068C4F20101884239
:101B50002EDC44F20041C4F2000188424ED044F62B
:101B60000001C4F20001884200F0808041F20001CF
:101B7000C4F20101884240F0B48044F2F040C5F65E
:101B80000200016821F01001016000204FF4C061E3
:101B9000C5F6020009F054FAD4F8800009F0CCFE32
:101BA000E06F09F0C9FE2520BDE810400CF050BDE3
:101BB00041F20041C4F2010188423BD041F60041AC
:101BC000C4F20101884270D041F60001C4F2010163
:101BD000884218BF10BD44F2F0420020C5F6020250
:101BE000C5F6020000F540604FF44041136823F051
:101BF00040031360BDE8104009F022BA44F2F040FF
:101C0000C5F6020050F8081C21F4003140F8081C09
:101C100000200C21C5F6020009F012FAD4F8800069
:101C200009F08AFEE06F09F087FE2620BDE810402B
:101C30000CF00EBD44F2F0400022C5F60200C5F6DD
:101C40000202016821F02001016002F50060C0215C
:101C500009F0F6F9E06F09F06FFED4F8800009F0A2
:101C60006BFE4720BDE810400CF0F2BC44F2F0409F
:101C70000022C5F60200C5F6020250F8081C21F445
:101C8000802140F8081C02F580604FF4406109F0A3
:101C9000D7F9D4F8800009F04FFEE06F09F04CFE50
:101CA0002720BDE810400CF0D3BC44F2F0400022E5
:101CB000C5F60200C5F60202016821F0800101604C
:101CC00002F580500C2109F0BBF9D4F8800009F02E
:101CD00033FEE06F09F030FE9C20BDE810400CF0B0
:101CE000B7BC10BD0000000007F012FDFEE700BF0A
:101CF000FEE700BF00BF00BFFEE700BF00BF00BFA0
:101D0000FEE700BF00BF00BFFEE700BF00BF00BF8F
:101D1000704700BF00BF00BF41F66070C2F20040D4
:101D20000BF086BA00BF00BF41F6D870C2F2004087
:101D30000BF07EBA00BF00BF41F67060C2F20040F7
:101D40000BF076BA00BF00BF41F6E860C2F2004077
:101D50000BF06EBA00BF00BF42F2B810C2F20040F2
:101D60000BF066BA00BF00BF42F25000C2F2004062
:101D70000BF05EBA00BF00BF42F2C800C2F20040E2
:101D80000BF056BA00BF00BF42F23020C2F2004052
:101D90000EF002BF00BF00BF42F2D020C2F20040EE
:101DA0000EF0FABE00BF00BF42F6A010C2F2004023
:101DB00014F0EAB900BF00BF42F6EC10C2F20040D6
:101DC00014F0E2B900BF00BF42F61810C2F20040A2
:101DD00010F07EBF00BF00BF10B542F68424C2F2EF
:101DE0000044204619F014FB2046BDE8104001F0E5
:101DF00067BE00BF00BF00BF10B542F6AC34C2F2F0
:101E00000044204619F004FB2046BDE8104001F0D4
:101E100057BE00BF00BF00BF10B542F64044C2F23B
:101E20000044204619F0F4FA2046BDE8104001F0C5
:101E300047BE00BF00BF00BF42F24010C2F20040E8
:101E40000BF0F6B900BF00BF41F68050C2F200406F
:101E50000BF0EEB900BF00BF41F6F850C2F20040EF
:101E60000BF0E6B900BF00BF41F60850C2F20040D7
:101E70000BF0DEB900BF00BF10B542F6D444C2F289
:101E80000044204619F0C4FA2046BDE8104001F095
:101E900017BE00BF00BF00BF42F22040C2F20040A8
:101EA00004F03EBC00BF00BF42F22040C2F200403E
:101EB00004F036BC00BF00BF42F22040C2F2004036
:101EC00004F02EBC00BF00BF10B542F61834C2F2B9
:101ED0000044204619F09CFA2046BDE8104001F06D
:101EE000EFBD00BF00BF00BF42F27030C2F2004041
:101EF0000EF052BE0000000081B044F2F440002217
:101F0000C5F60200016841F00201016000680F217E
:101F100000F0020000906FF00100009B01B00CF097
:101F200053BB0000000000000F2842D8B0B58AB0B3
:101F3000044619200022214600250CF045FB1920FB
:101F40000CF072FB40F23010C2F20040046044F228
:101F5000F040C5F60200016841F00101016000682F
:101F600001A900F001000290029802A807F0A4FB6A
:101F700007F00AFB4DF683614000C4F21B310022DA
:101F8000A0FB010142F6A010C2F200404FF0FF3367
:101F9000C4F20102026003EB9141C0E9011540F275
:101FA000E731C0E9031510F0E7FF20B101200AB0C6
:101FB000B0BD0120704742F6A010C2F2004011F0FF
:101FC00077F90AB0B0BD00BF42F6A010C2F20040DF
:101FD0000068C16821F00101C160704700BF00BF07
:101FE00042F6A010C2F200400068C16841F0010151
:101FF000C16070470000000080B541F62C2040F21F
:102000000401C2F20040C2F2004101221EF014FCA1
:1020100008B1FEF7C9FA41F62C2040F23001C2F2B5
:102020000040C2F200411EF037FC08B1FEF7BCFAD6
:1020300041F62C2040F2D801C2F20040C2F2004129
:102040001FF03EFB08B1FEF7AFFA41F62C20C2F2BA
:1020500000401EF045FC08B1FEF7A6FABDE880403E
:102060000CF09EB90000000040F2C4001222C2F23F
:1020700000400A80704700BF40F2EC000422C2F228
:1020800000400A80704700BF10B540F260140A4655
:10209000C2F2004402A021461FF08EF8204610BD77
:1020A00053544D6963726F656C656374726F6E69CA
:1020B0006373000000BF00BF10B540F260140A4611
:1020C000C2F2004402A021461FF076F8204610BD5F
:1020D00053544D3332205669727475616C20436FCE
:1020E0006D506F727400000070B54EF60000C1F6BE
:1020F000F17002688368D2184FF01A030B802ED05B
:1021000040F2F00C40686FF00101C2F2004C4FF059
:10211000370E0023140F0CEB01050EEB1276B2F113
:10212000204F38BF04F13006023112010E292E7102
:102130006B71EFD10CF1100104224FF0370C00232A
:10214000060FB0F1204F0CEB107538BF06F13005CB
:10215000013A4FEA001001F8025F4B70F0D140F2F3
:10216000F000C2F2004070BD10B540F260140A46A3
:10217000C2F2004402A021461FF01EF8204610BD06
:1021800043444320436F6E666967000000BF00BF91
:1021900010B540F260140A46C2F2004402A0214683
:1021A0001FF00AF8204610BD43444320496E746571
:1021B000726661636500000040F2B8000C22C2F252
:1021C00000400A807047000010B541F62C2440F60C
:1021D0008051C2F20044C2F20041002220461FF0AA
:1021E0007BFA40F280512046C2F200411FF084FA8F
:1021F000002010BD00BF00BF0020704700BF00BF1F
:102200000020704700BF00BFB0B541F62C25044642
:10221000C2F20045214628461FF06EFA28461FF0FC
:102220009FFA204603F0A0F90020B0BD00BF00BF18
:102230000020704700BF00BF41F62C22C2F20042CE
:10224000D2F8BC22D2F81422002A1CBF0120704709
:1022500010B541F62C240A46C2F20044014620463D
:102260001FF03AFA2046BDE810401FF055BA0000B2
:1022700010B5B0B0044602A8B8211FF0D3FA00216F
:102280002068C4F20401884201D030B010BD0020A3
:1022900003904FF4802002904FF44010239002A846
:1022A00007F04AFA08B1FEF77FF90CF079F844F22A
:1022B000D8400022C5F60200016841F000710160BB
:1022C0000068052100F00070019001984A200CF090
:1022D0007BF94A200CF0A8F94B20052100220CF0D4
:1022E00073F94B200CF0A0F94D20052100220CF0D1
:1022F0006BF94D200CF098F930B010BD00BF00BF55
:1023000000210068C4F20401884218BF704780B5FC
:1023100044F2D840C5F60200016821F00071016066
:102320004A200CF095F94B200CF092F94D20BDE8B5
:1023300080400CF08DB900BFD0F8E02400F29C4141
:1023400010461EF0F9BA00BF01EBC10200EB820299
:10235000D0F8E004D2F860221EF01EBB00BF00BF20
:1023600001EBC10200EB8202D0F8E004126A1EF019
:1023700057BB00BF00BF00BFD0F8E0041EF0F8BBA1
:1023800010B5C179044621B1022901D0FEF70CF93C
:102390000121D4F8E0041EF0CBFBD4F8E004BDE842
:1023A00010401EF095BB00BF10B50446D0F8E00405
:1023B0001EF0C2FB2068D0F8001E41F00101C0F8F9
:1023C000001EE07A002808BF10BD4EF61050CEF275
:1023D0000000016841F00601016010BD00BF00BFB0
:1023E000D0F8E0041EF0B8BBD0F8E0041EF0E8BB63
:1023F000D0F8E0041EF0CCBBD0F8E0041EF0F8BB2F
:10240000D0F8E0041EF0F8BB0178012932D110B5F4
:1024100042F22041C2F20041C0F8C812C1F8E00403
:102420000020C4F2040008600920087140F2012075
:10243000C8800220C1F809000020C881087408463D
:1024400004F092F808B1FEF7AFF842F22044802180
:10245000C2F20044204604F03FFF002180222046C3
:1024600004F012FF01214FF4BA72204604F00CFF71
:10247000BDE810400020704780B5D0F8C80204F0D5
:10248000EFF840F20032C100C0F20132032822FA14
:1024900001F188BF0321C8B280BD00BF00BF00BFEB
:1024A00040F20032C100C0F20132032822FA01F1E9
:1024B00088BF0321C8B2704780B5D0F8C80204F0C5
:1024C000EBF840F20032C100C0F20132032822FAD8
:1024D00001F188BF0321C8B280BD00BF00BF00BFAB
:1024E00080B5D0F8C80204F0F7F840F20032C1001D
:1024F000C0F20132032822FA01F188BF0321C8B2D9
:1025000080BD00BF00BF00BF80B59446D0F8C802B0
:102510001A46634604F07CFD40F20032C100C0F26E
:102520000132032822FA01F188BF0321C8B280BD1D
:1025300080B5D0F8C80204F09BFD40F20032C10023
:10254000C0F20132032822FA01F188BF0321C8B288
:1025500080BD00BF00BF00BF80B5D0F8C80204F046
:102560005FFE40F20032C100C0F20132032822FABD
:1025700001F188BF0321C8B280BD00BF00BF00BF0A
:1025800080B5D0F8C80204F0E3FD40F20032C1008B
:10259000C0F20132032822FA01F188BF0321C8B238
:1025A00080BD00BF00BF00BF80B5D0F8C80204F0F6
:1025B00007FE40F20032C100C0F20132032822FAC5
:1025C00001F188BF0321C8B280BD00BF00BF00BFBA
:1025D00001F07F02D0F8C80201EBC10349B202EB5F
:1025E000C202002900EB820200EB830000F25620B9
:1025F00048BF02F116000078704700BF00BF00BF5F
:1026000080B5D0F8C80204F0EFFC40F20032C100FF
:10261000C0F20132032822FA01F188BF0321C8B2B7
:1026200080BD00BF00BF00BF80B5D0F8C80204F075
:102630006FFD40F20032C100C0F20132032822FADD
:1026400001F188BF0321C8B280BD00BF00BF00BF39
:1026500080B5D0F8C80204F033FD40F20032C1006A
:10266000C0F20132032822FA01F188BF0321C8B267
:1026700080BD00BF00BF00BFD0F8C80204F03CBD61
:1026800040F26030C2F20040704700BF00BF00BFA0
:10269000704700BF00BF00BF0CF00EBA0000000082
:1026A00070B540F20A10C2F20040007801282BD029
:1026B00003280ED0022818BF70BD43F2E830C2F2E2
:1026C000004000F14C0400F1480500F198069430F8
:1026D00026E043F2E834C2F2004494ED390A03F0F4
:1026E0002FFD94ED4C0AB1EE400A03F029FD04F5EC
:1026F0009E7604F59C7047F2842441F21875C2F26C
:102700000044C2F200450BE041F2F470C2F2004016
:1027100000F1E00400F1DC0500F5967600F5947018
:1027200090ED000A03F00CFD96ED000A03F008FDA1
:1027300095ED000A03F004FD94ED000ABDE8704039
:1027400003F0FEBC00BF00BF82B01CF06DFF01AC07
:10275000019000BF1CF068FF019003F011FD02F032
:10276000BBFA01F0D1FC052120461DF081FCF1E708
:1027700082B01CF059FF42F270380190C2F200485A
:102780004FF4A171404601F08FFF43F2280502216A
:10279000C2F20045284601F0F7FC43F26C5741F2C3
:1027A000006441F2046943F2D45AC2F20047C2F213
:1027B0000044C2F20049C2F2004A01AE16E000BF76
:1027C0009AED1A0A99F80000BDEEC00A4FF4A17103
:1027D000002810EE102A08BF0246404602F05CF8BE
:1027E0001DF08EFF012130461DF042FC1CF01CFF45
:1027F00001901DF05DFFB87840F00100B87001F065
:102800008FFB01F049FA95F83C0018B1284601F019
:102810004BFE03E00321284601F0B6FC2068C10707
:1028200000F101002060CBD103F012F8C8E70000EE
:1028300041F2046442F6E866C2F20044C2F2004685
:102840004FF66C570020207041F2E879307043F267
:102850003C2507F13C0043F26C58C2F200494FF0AE
:10286000010A0FFA80FBC2F20045C2F200480AE0FA
:1028700086F800A098F8020040F0100088F80200E6
:102880000A201CF041FF3078A0B1A87A012804BFCB
:10289000E97A012905D12988B94202D16988B9426A
:1028A00026D0032821D002281CD00128E2D1002004
:1028B00019E000BF99F8000000F0F0004028D7D0E0
:1028C000A87A0128D6D1E87A0128D3D1B5F9060033
:1028D0005845CFDAB5F90400B0F5167FC8BF86F8C1
:1028E00000A0C7E702202070C4E784F800A0C1E779
:1028F000012080F3138800F003F800BF00BF00BF81
:102900004EF60C500422CEF20000C0F2FA52BFF391
:102910004F8F016801F4E06111430160BFF34F8FF5
:1029200000BFFDE70000000043F26C5542F2104882
:1029300043F23C2948F2000741F28854C2F20045B4
:10294000C2F20048C2F20049CFF6FF77C2F200445B
:10295000002641E099F8170002F0E2F802F064F96D
:10296000298860F30001298002F0F6FF298800F031
:10297000010021F0020141EA4000288002F020FB22
:10298000298800F0010021F0040141EA800028803C
:1029900002F0DAFD298800F0010021F0080141EA87
:1029A000C000288001F068FE298810F00F03AA7883
:1029B0006FF3DF2141EAC02002F07F0240EA070006
:1029C00018BF03460029AA7018BF0346642084F884
:1029D00031602B801CF098FEA87800F01B011B29A9
:1029E000B8D100F0E000A87040460EF0E9FAB1E777
:1029F00082B01CF019FE41F2F4740190C2F200445E
:102A00004FF4047120461EF00DFFB3EE099A9FEDBE
:102A1000D38A9FEDD3AAB3EE060AF6EE000AB0EE13
:102A2000481AF0EE491AB0EE4A2A04F19800012142
:102A300003F03AFAB7EE000AF0EE041AB1EE0C2AEF
:102A4000B0EE481A04F1E400DFEDC60A012103F0FC
:102A50002BFAB0EE490AB0EE481AF0EE4A1ADFED52
:102A6000C20A9FEDC22A012120464FF00008C4E9A6
:102A7000298803F019FA9FEDC09AF0EE480AB0EEEB
:102A8000481AB0EE492A04F14C009FEDB90ADFED77
:102A9000B91A012103F008FAB2EE04AAB3EE0E2A25
:102AA000F0EE480AB0EE481AF0EE481A41F26F20F4
:102AB000B0EE4A0A49F69A11C3F60330C3F699619B
:102AC000C4E9030104F59870002103F0EDF9F0EE7C
:102AD0004A0AB0EE481AB0EE492A04F5BE709FEDDE
:102AE000A70A0021DFEDA61A03F0DEF941F204691E
:102AF00041F6042B47F6103543F2280643F26C5A90
:102B0000C2F200499FED9FBAC2F2004B9FED9ECAF0
:102B1000C2F20045C2F20046C2F2004A01AF9FED88
:102B20009BDA9FED9BEA9FED9B9A9FED9BAA9FED01
:102B30009BFADFED9B8A1DE0B0EE480A284601F0C3
:102B4000AFF9B0EE482AB0EE480AF0EE480AB0EE0F
:102B5000481AF0EE481A304601F03AFC9AF80200A2
:102B600040F002008AF802001DF0CAFD022138463A
:102B70001DF07EFA1CF058FD01901DF099FD99F8AA
:102B8000000002285CD001284ED0002840F0D180FF
:102B9000A88EB0EE4A1AC4F8088200EE100A41F27C
:102BA0008550A4F80C82C4F21200C4F87401B8EE87
:102BB000400A20EE0D0A30EE000A60EE0E0AB0EE7A
:102BC000490A03F049F894ED821A47F60C30B5EE45
:102BD000401AC2F20040F1EE10FA80ED000A1AD15C
:102BE000A88E9BED012AB0EEC00A01EE100AB4EEE9
:102BF00040CAB8EE411AF1EE10FA21EE0D1A31EE8C
:102C0000011AA1EE0E2A32EE0F1A31EE280A31FE19
:102C1000000A84ED110A4CF6CD40C3F60C70C4F8DE
:102C2000DC00C4E9808884E0082001F0F1FF88B16D
:102C3000402001F0EDFF68B100F0B6F835E000BFCC
:102C400043F23C20C2F20040C07C01283BD100F09E
:102C5000ABF86CE043F23C2194ED5D3AC2F20041E6
:102C600094ED371AB1F90000B1F9021000EE100A24
:102C7000484202EE100A40F20C10B8EEC00AC2F24E
:102C80000040B8EEC22A90ED004A90ED025AA0EE44
:102C9000443A94ED114AA2EE451AA0EE454A84ED5D
:102CA0005D3A84ED371A84ED114AB4F80C0294EDC4
:102CB000820AB5EE400A0130F1EE10FA18BF00208A
:102CC000A4F80C0233E0012001F016FFB0EE4B0A2D
:102CD00028B9002001F010FFB0EE4C0A28B194EDA5
:102CE000111A31EE000A84ED110A43F23C2194EDF1
:102CF000373AC2F20041B1F90E00B1F90C1000EE02
:102D0000100A40F20C1001EE101AC2F20040B8EEA8
:102D1000C00A90ED032AB8EEC11AA0EE023A94ED73
:102D2000110AA1EE420A84ED373A84ED110A00F04F
:102D3000C7F89BF8240000283FF4FEAE95F8200069
:102D400000283FF4F9AE94ED800A2846B1EE400A1F
:102D500001F0A6F894ED812AF5E600BF000000001E
:102D600000004842C3F5283ECDCCCC3D0000C8420F
:102D70000000FA4500401C460050C3460080BB4599
:102D800000007A44DB0FC9BFDB0FC93F00000039E8
:102D9000DB0F494085151240DB0FC940851512C075
:102DA000DB0F49C000BF00BF47F28C20C2F20040D9
:102DB000417921B3022915D001297DD1D0F806101F
:102DC000002979D0D0F80A10002200EE101A41F242
:102DD000F471C2F20041C0F80620D0F80E00C1F82C
:102DE000DC0063E041F2F4720021C2F20042417162
:102DF000D2F8E000C2F8DC0092ED120A56E041F28F
:102E00000460C2F200400078022827D0012818BFD1
:102E1000704743F23C20C2F20040B0F90210B0F912
:102E2000000000EE101A41F2F471C2F20041B8EE57
:102E3000C01A00EE100A40F20C10C2F20040B8EEC8
:102E4000C02A91ED110A90ED023AA2EE430A91EDEB
:102E5000372AA1EE032A81ED372A27E043F23C20EE
:102E6000B6EE004AC2F20040B0F90E10B0F90C0004
:102E700000EE101A40F20C1102EE100AC2F20041EC
:102E800041F2F470B8EEC00AC2F20040B8EEC22AB5
:102E900091ED031A21EE003A90ED110AA2EE410ADB
:102EA00090ED371AA3EE041A80ED371A41F2F47050
:102EB000C2F2004080ED110A704700BF00BF00BFA2
:102EC000F0B581B02DED028B47F610309FED691AF9
:102ED000C2F200409FED6A8A808E00EE100AB8EEC2
:102EE000400A20EE010A9FED641A30EE000A60EEFF
:102EF000010AB0EE481A9FED610A02F0ADFE47F6F6
:102F0000083641F2F474C2F20046C2F2004404F101
:102F1000DC00DFED5D0A86ED000A9FED5A0A02F043
:102F200013FE42F6E06594ED371AC2F2004594EDC7
:102F30007F2A41F6042743F2685095ED000AC2F259
:102F4000004731EE403A9FED510AA2EE001AC2F25C
:102F50000040D7ED000AC4ED380A80ED003A04F1D4
:102F6000980033EE010A02F0ABFFD7ED030A04F13B
:102F7000E40084ED4A0AC4ED4B0A02F0A1FF94ED8F
:102F8000111AB1EE400AB5EE401A84ED810AF1EE55
:102F900010FA08DB9FED3A0AB4EE401AF1EE10FA8F
:102FA00005DD9FED3B8A31EE080A84ED110A43F2FC
:102FB0006450D7ED010AC2F2004094ED110A9FED72
:102FC000301AC4ED120A0021016002F045FE94EDB2
:102FD000821A86ED000AB5EE401AF1EE10FA0CD115
:102FE000B0EEC01A9FED2B2AB4EE421AF1EE10FAA1
:102FF000BCBF4FF07E50C4F80802D4ED120A204640
:1030000030EE200A02F05CFFD7ED040A04F14C0018
:1030100084ED240AC4ED250A02F052FF94ED371A1C
:1030200094ED382A31EE422A9FED1A3A84ED800A57
:10303000B0EEC22AB4EE432AF1EE10FA0DDB94EDA5
:10304000820AB5EE400AF1EE10FA06D1B4F80C028D
:10305000C7289CBF0020C4F8000242F6E460616CFF
:10306000C2F2004085ED001A0160BDEC028B01B098
:10307000F0BD00BF00000039DB0F4940851512404C
:10308000DB0FC940AE47E1BE52B81E3F6F1203BB13
:10309000DB0FC9C08FC2F53C704700BF00BF00BF47
:1030A00084B01CF0C1FA43F2E8340390C2F2004449
:1030B0004FF4B87120461EF0B5FB9FEDCF9A04F196
:1030C0009C009FEDCE8AB0EE490A9FEDCDAAF0EEAE
:1030D000480AB0EE481AF0EE481AB0EE4A2A00212B
:1030E000002602F0E1FEB0EE490AF0EE480AB0EE2A
:1030F000481AF0EE481AB0EE4A2A04F1E80000211E
:1031000002F0D2FEB5EE000AF0EE480AB0EE481A20
:10311000201DDFEDBC1A00219FEDBB2A029002F0BA
:10312000C3FEB1EE042AB0EE481A04F150009FED40
:10313000B70ADFEDB70A0021DFEDB61A019002F001
:10314000B3FEB2EE04DA002148F2000043F2083583
:1031500041F2287741F2187943F2885BC4F22021CA
:10316000C4F22240C2F20045C4E95A0132209FED68
:10317000AA9AC2F20047C2F20049C2F2004B9FED88
:10318000A7AA9FEDA7BA26809FEDA6CAC0F20A00A3
:10319000C4F84C0111E000BF94ED4D0A584600F010
:1031A0007FFE43F26C51C2F20041887840F0080083
:1031B0008870022103A81CF05BFF1CF035FA2989F6
:1031C000039021B1E888A4F84C11A4F84E01B4F89A
:1031D0004E01322194ED511AC4F84811400000EE1E
:1031E000100A41F20460C2F20040B8EE400A0078D2
:1031F0000228A0EE091A81FE080A84ED510A23D0A4
:1032000001280BD000284FD10021C4F22021C4F89E
:103210006C1101216170002145E000BF43F23C21A7
:103220000022C2F20041C4F22022C4F86C21C97A03
:10323000032900F09182022900F08A82012933D10A
:10324000012161702FE000BF43F23C2247F2343C81
:10325000C2F20042C2F2004CD17C00290FF20051B0
:1032600008BF0431527D9CF811300968C4F86C1114
:1032700056064FF008064FF0040158BF01EA5216F7
:1032800047F28C2203F0E301C2F200420223637092
:103290008B1992F86920002602218CF8113012F067
:1032A0001C0F08BF032121702178032900F2C88177
:1032B000DFE811F00400B6011600BA0041F22670F2
:1032C0009BED110AC2F20040B8EEC00AC4F850618A
:1032D000068084ED120AC4F88460C4F83461AFE15A
:1032E00043F2B801C2F200410988CA087C2A17D803
:1032F00043F2BA020131C2F200421278002A43F2CC
:10330000B802C2F2004211800AD146F60001012241
:10331000C4F29351A16443F2BA01C2F200410A70AF
:1033200041F2267294ED121AC2F2004294ED132A71
:1033300031EE422A0228118801F10101118043F285
:103340003C2143F28452C2F20041C2F20042897C25
:1033500082ED002A08BF00290ED0012811D143F2C6
:103360003C22C2F20042D28813B282EAE332A2EBDC
:10337000E33292B2092A04D843F26352C2F2004205
:10338000167043F26352C2F200421278002A40F0F3
:10339000578140F22402C2F2004292ED003AB4EEAC
:1033A0004A3AF1EE10FA00F34B81022800D161B9DC
:1033B000012840F0458143F23C20C2F20040B0F9C0
:1033C0000600B0F5FA7F40F33B81B0EEC22AB4EEBE
:1033D0004B2AF1EE10FA80F2338143F2635131EE61
:1033E0000C1AC2F2004130EE0D0A012084ED121ACF
:1033F000087084ED510A23E16F12033A00000000C7
:10340000CDCC4C3F0000C84200007A45C3642A3A44
:1034100095BF56359A99993E6F1283BA000048427B
:1034200000000046000000C643F2B801C2F20041AD
:103430000988CA087C2A17D843F2BA020131C2F2BD
:1034400000421278002A43F2B802C2F20042118010
:103450000AD146F600010122C4F29351A16443F25D
:10346000BA01C2F200410A7041F2267294ED120ACA
:10347000C2F2004294ED131A30EE410A012811887D
:1034800001F10101118043F28451C2F2004181ED4A
:10349000000A07D147F28C21C2F20041D1F81A107C
:1034A00000293FD101280ED143F23C20C2F2004056
:1034B000C07A022807D1082001F0AAFB18B14020E9
:1034C00001F0A6FB70B341F2046043F23C22C2F269
:1034D0000040C2F2004247F28C260078917CD27CF8
:1034E000C2F20046C9B20238B0FA80F000294FEAB1
:1034F0005013D0B218BF012102460028D6F81A6036
:1035000001EA030118BF0122002E18BF01260A405C
:1035100032424FF0000602BFB0FA80F0400910EAD4
:1035200001003DD094ED520A40F22400B8EEC00AEA
:10353000C2F2004090ED001AB4EE401AF1EE10FA1B
:103540002EDC41F2267094ED5B1AC2F20040008836
:10355000400000EE100AB8EE400AB4EE401AF1EE58
:1035600010FA1DDC43F28450C2F2004090ED000AD4
:10357000B0EEC00AB4EE4B0AF1EE10FA10DA41F2E6
:10358000267094ED120AC2F2004094ED511A30EE0A
:103590000C0A84ED120A31EE0D0A068084ED510A00
:1035A000BBF8380001B280EAE130A0EBE13041F62F
:1035B000593180B2884210D3BBF8360001B280EA9C
:1035C000E130A0EBE13080B2632806D841F28051AF
:1035D000C2F2004108680130086041F28050C2F236
:1035E0000040006865282BD341F20C719BED110A55
:1035F000C2F20041B8EEC00A0868013030EE0B0A92
:103600003328086084ED120A1AD341F28050C2F2C6
:103610000040066041F20C70C2F2004006600FE00C
:1036200041F226709BED110AC2F20040B8EEC00ACA
:10363000C4F85061068084ED120AC4F8846000BFAB
:103640006078B0EE481AB0EE480A022804D307D1D9
:1036500094ED5A0AB1EE401A84ED381A84ED4B0A03
:1036600004F59A7A4FF0000807EB080004EB080114
:10367000D0ED0B0A01F19C0091ED380AC1ED390A39
:1036800002F01EFC08F14C080AF10400B8F14C0FDE
:103690008AED010A8246E7D047F2842094ED390A88
:1036A00094ED4C1AC2F2004030EE010A80ED000A9F
:1036B00040F24810C2F2004090ED001A029820EE4D
:1036C000010A9BED111AF8EEC10A89ED000A94ED8A
:1036D000120AC4ED130A02F0F3FBBBF9360084EDC5
:1036E000250A01EE100A0198F8EEC10AC4ED260A77
:1036F00002F0E6FB607884ED4D0A78B194ED4E0A55
:1037000099ED001A30EE410A384600F0C9FB94EDFD
:103710004F0A99ED001A30EE410A06E0B0EE480A71
:10372000384600F0BDFBB0EE480A07F14C0000F04F
:10373000B7FB207800287FF42FADB0EE480A58463A
:1037400000F0AEFB43F2D450C2F20040866628E59A
:10375000022161700321A6E502216170A3E500BF8B
:103760000000B442000020422DE9F04381B02DED6D
:10377000028B8AB042F2302502ACC2F20045112021
:10378000069014200790284621460026CDE90266BF
:1037900004964FF00208CDF814800BF051FF01277A
:1037A0001520CDE90570284621460296CDE903771C
:1037B0000BF046FF022102220123284600970BF05E
:1037C00083FF0121002228460DF01AF91021002262
:1037D00028460DF015F928460CF046F942F2D0259E
:1037E00040F20120C2F20045069040F2032007900B
:1037F00028462146CDE90266049705970BF020FF85
:10380000022102220123284600970BF05DFF0121CF
:10381000002228460DF0F4F81021002228460DF071
:10382000EFF828460CF020F942F270352146C2F23A
:103830000045049628460697CDE902664FF0080930
:10384000CDF81C90CDF814800BF0FAFE40F2052064
:103850002146CDE9057028460497CDE902670BF0B3
:10386000EFFE022102220123284600970BF02CFFD5
:103870000121002228460DF0C3F81021002228461D
:103880000DF0BEF828460CF0EFF843F240604FF41C
:103890008011C2F200409FED1F0A05221523C0E9E6
:1038A0000166C0E90396C0E90516C0E9076643F260
:1038B00028000021C2F2004000F03EFCB7EE008A72
:1038C00041F22874C2F200440121012240F2032394
:1038D000B0EE480A204600F027FAB0EE480A04F19C
:1038E0004C000121012240F2012300F01DFAB0EE4C
:1038F000480A47F61030C2F200400221022240F28C
:10390000052300F011FA0AB0BDEC028B01B0BDE84E
:10391000F08300BF00000000C90708BF7047B0B5C2
:1039200043F2583543F21533C2F20045C2F2004368
:1039300040212A4604460CF08BF94DF200412068E4
:10394000C4F2000188421AD04AF20041C4F20001D8
:1039500088420DD04AF20001C4F20001884216D11B
:10396000287843F21531C2F2004100F0A9FC0EE0C4
:1039700043F215322968C2F20042012005E043F209
:1039800015322968C2F20042022000F0DDF901215F
:1039900000222046BDE8B0400DF032B800BF00BFA5
:1039A000C90658BF7047B0B543F2C03543F2803303
:1039B000C2F20045C2F2004341212A4604460CF0FF
:1039C00047F94DF200412068C4F20001884211D04D
:1039D0004AF20001C4F20001884212D141F60420EB
:1039E00043F280322968C2F20040C2F2004201F084
:1039F00027F906E043F280312868C2F2004100F066
:103A00009FF8102100222046BDE8B0400CF0F8BF1E
:103A100043F240630228C2F20043196008D805A1AE
:103A200051F8200043F24061C2F200410CF038B876
:103A30000120704730220024D0220024702300246B
:103A4000B0B542F6D4441025C2F200440A222068E0
:103A50000562016841F01001016041F24E612046AB
:103A6000C2F2004117F018F8204602F01DFB42F6A2
:103A7000AC349622C2F2004420680562016841F02D
:103A80001001016042F6FD512046C2F2004117F0DC
:103A900003F8204601F070FA42F6842041F260619A
:103AA000C2F20040C2F20041122203681D621D688A
:103AB00045F010051D60BDE8B04016F0EDBF00BF39
:103AC00010B504460068C169C90600D410BD1021B4
:103AD0000162204617F078FA42F68420C2F20040D4
:103AE000844217D042F6D440C2F20040844218BF4C
:103AF00010BD41F24E6443F23C20C2F20044C2F2D7
:103B00000040214600F0F4FE42F6D4400A22C2F200
:103B100000400FE041F2606443F23C20C2F20044F6
:103B2000C2F20040214600F0E3FE42F68420122259
:103B3000C2F200402146BDE8104016F0ADBF0000C3
:103B400043F26C520138C2F200420728937843F0E6
:103B50008003937000F28F80DFE800F004458D8DC4
:103B6000378D767F41F204600A68C2F200404B68EC
:103B700041F288510078C2F200410128C1E90023D6
:103B80007AD80B8843F23C2CC2F2004C4A8818B217
:103B90008988ACF8003083EAE033ACF80220A3EB6C
:103BA000E030ACF80A1080B21D2802D80020ACF832
:103BB000000010B282EAE031A1EBE03080B21D28B3
:103BC00059D80020ACF80200704741F288520868CA
:103BD000C2F200424968C2E9040147F23431C2F23C
:103BE00000418874704741F288500A68C2F2004070
:103BF00049689FED271BC0E90221017B90ED020A75
:103C0000B0EEC00AB7EEC00AB4EE410BF1EE10FA06
:103C100002DA002908BF704741F2D8520023C2F2ED
:103C20000042136041F20462C2F20042117043F29A
:103C30000831C2F20041427B807B0A7043F23C2192
:103C4000C2F200418875704741F288520868C2F29A
:103C500000424968C2E90601704741F2885208688B
:103C6000C2F200424968C2E9080141F2F472C2F2AC
:103C70000042C2E97E0170470228FCD143F23C2099
:103C8000C2F20040D1E90012C160C0F812207047B2
:103C90002D431CEBE2361A3F41F2C05045F6294253
:103CA000C2F20040CCF28F224BF652030168C0F200
:103CB0001E53013101604A434FEA72029A4218D3FF
:103CC00041F2F47047F28C21C2F20040C2F200418E
:103CD00090ED820A41F28850BCEEC00AC2F2004068
:103CE000D1F81A1000F8281F10EE101A41700321A5
:103CF0000FE047F28C20C2F200404179827F41F20E
:103D000088500129C2F2004018BF0022062100F8A5
:103D1000302F41F2C852C2F20042D0E9003C0220EA
:103D2000C2E9003CFFF774BE017240F21C11C2F2FE
:103D300000414272C3600A6880ED040A026050606C
:103D400008604160704700BF40F21C1CC2F2004C8A
:103D5000DCF80030634508BF70472DE9F04F43F2AF
:103D600010694FF0010E4FF000089FED490A9FEDDA
:103D7000491AC0F602099FED482A46E04FF0FF3588
:103D80009E6C35449D649D6CDE8F93ED045A04EB6C
:103D900045340FFA8BF5A41B03EE104A04EE105ABB
:103DA0000FFA8AF55C6406EE105A1D7AB8EEC33A33
:103DB000B8EEC44AB8EEC66A09EB051523EE003A20
:103DC00024EE004A23EE013A84EE024A83EE053ADD
:103DD00083ED0A3A84EE053A25EE064A83ED0B3A66
:103DE00095ED003A84EE033A95ED014A23EE043A4C
:103DF00095ED024A23EE043A95ED034A83EE043A28
:103E000083ED0C3A1B6863453FD0DC688C42F9D1E6
:103E10005C7A8442F6D19C6993ED053A661CB8EE53
:103E2000433A04EE106A9D8E9E61312E83F820E0A5
:103E3000B8EE444AA3F8405033EE444A84EE033AC5
:103E400083ED073A148824BA4FEA14449C865788B5
:103E50003FBA4FEA174BA3F836B097883FBA4FEAFC
:103E6000174AA3F838A0967983F83C6002D8DC871B
:103E7000C3F84880651BB5F5805FBFF67FAF15F5C9
:103E8000805F3FF780AF01257AE7BDE8F04F7047CC
:103E9000DB0FC940000000390000704200BF00BFC6
:103EA000017A022902D190ED090A30E043F2106252
:103EB00080ED090AC0F6020290ED042A02EB01111E
:103EC00091ED011A91ED023A22EE414A24EE035A95
:103ED00091ED034A85EE045AB4EE450AF1EE10FA6C
:103EE00007DD22EE015A25EE035A85EE045A80FEC4
:103EF000455A85EE020A80ED095A91ED002A20EE1E
:103F0000020A80EE010A80EE030A24EE000ABDEEEA
:103F1000C00A10EE101A4187704700BF00BF00BFF3
:103F20002DE9F04F81B042F688749021C2F200442E
:103F300020461DF077FC40F21C10C2F200400168E0
:103F4000814200F09D804FF6FA3B43F2180540F2A3
:103F5000FF1ACFF6FF7BC2F2004501266FF47F788F
:103F60006FF47E7C22E000BF04EB071291F83B70F7
:103F700042F80CAF724402F80B704A7ACF6802EB39
:103F8000420204EB021202EB470291F83A7002F887
:103F90000C704A7A05EB8202571C3E700A684F6922
:103FA000824207F101074F61114669D00A7AD1F8C0
:103FB0000C904F7A4FEA490E022A1FD107EB4702B5
:103FC000B9F5027F04EB02123CD842F818AF7244F4
:103FD00091F83B706FF47B7302F80B704A7ACF68EC
:103FE00002EB420204EB021202EB470291F83A7034
:103FF000D7544A7A05EB8202971CCEE7B9F5017FC8
:1040000007EB4707B0D804EB07124FF400733F01EA
:104010007244E3514FF60243CFF6FF7391F83B70C1
:10402000D7544A7ACF6802EB420204EB021202EB49
:10403000470291F83A7002F808704A7A05EB820755
:10404000ABE700BF40F2FF2342F8243F4FF6F233C4
:104050007244CFF6FF7391F83B70D7546FF47A73C4
:104060004A7ACF6802EB420204EB021202EB4702EB
:1040700091F83A70D7544A7A05EB8202D71C8CE744
:1040800043F2180643F26C5B43F2885A251D4FF049
:104090000009C2F20046C2F2004BC2F2004A0027F9
:1040A00008E000BF0137009D032F06F1040605F16B
:1040B000300523D0FCB24FF00008009511E000BF9E
:1040C0009AF8200028B155F8041C20462A46FFF72C
:1040D0009FFC06F8089008F101080C35B8F1040FB0
:1040E000E0D016F808000128F5D1BBF80000C0F3B5
:1040F000C3100228E4D00328E2D0E4E701B0BDE811
:10410000F08F00BF00BF00BF40F21C110020C2F2C0
:1041100000410A688A420BD092F820300130012B0E
:1041200006D1002382F8203012688A42F4D10020A0
:10413000C0B270470000000010B582B08C46044643
:104140000172114680ED090A6FF07F4001904FF037
:10415000FF300090FC208DF807006A466046C4E9F5
:104160000313FFF755FC64200AF0A6FC01200AF0B7
:10417000A3FC40F22410C2F20040016821600460F8
:104180004C60606002B010BD80B582B04B1E6FF015
:104190007F42022B01924FF0FF32009208D8037A3F
:1041A000F9318DF80710C1686A461846FFF730FCF0
:1041B00002B080BD00BF00BF9FED051A80EE011A5E
:1041C0009FED042ABBFE411AA1EE020A704700BF10
:1041D000DB0FC940DB0FC9C0826990ED050A0132CF
:1041E000B8EE400A01EE102A8261012280F82020F8
:1041F00019239FED2E2AB8EE411A9FED2D3A9FED1F
:104200002E4A30EE411A81EE000A9FED271A80ED0A
:10421000070A0A78202A4FEA121280F83C2028BFA9
:1042200080F83D20B1F8012052BA5A4300EE102A1E
:10423000B8EE400A80EE010ABAEE091A30EE010A21
:1042400080ED100ACA780B79120142EA13124FF47A
:10425000C8735A4301EE102AB8EE411A81EE021AD1
:1042600031EE031A80ED111A9FED121A0A7980EED1
:10427000011A497902F00F02BBFE411A41EA0221FC
:1042800001EB8101A1EE040A890003EE101A80ED12
:10429000100AB8EE433A83EE022ABAEE043A32EE3E
:1042A000031A80ED121A704700FF7F4700F07F4528
:1042B000000048C3DB0FC940DB0FC9C000BF00BF0F
:1042C00040F22412C2F200421368934208BF7047C2
:1042D00070B5BAEE091ABAEE042A4FF0010C4FF08D
:1042E000190E9FED360A4FF4C8749FED353A9FEDD5
:1042F000354A9FED355A9FED356A02E01B689342BF
:1043000059D01D698542F9D19D6993ED057A013532
:10431000B8EE477A00EE905A9D6183F820C0F8EE1F
:10432000600A77EE600A80EE877A83ED077A0D786F
:10433000202D4FEA151583F83C5028BF83F83D50D7
:10434000B1F801506DBA05FB0EF507EE105AB8EE44
:10435000477A87EE007A37EE017A83ED107ACD78CE
:104360000E792D0145EA1615654300EE905AF8EED8
:10437000600AC0EE830A70EE840AC3ED110AC7EE2C
:10438000050A0D794E7905F00F05FBFE600A46EA35
:104390000525A0EE867A05EB8505AD0001EE905A65
:1043A00083ED107AF8EE611AC1EE831A71EE820A7B
:1043B000C3ED120AA2E7BDE87040704700FF7F47D7
:1043C00000F07F45000048C3DB0FC940DB0FC9C0C8
:1043D000BAEE093A00F12C0180ED0A0AC1EC030A99
:1043E000B4EE430A80ED0E2AF1EE10FA08DDB2EECB
:1043F000093AB4EE430AF1EE10FA01DAB0EE403AAF
:104400009FED254A80ED0A3AF4EE440AF1EE10FAE7
:1044100008DD9FED224AF4EE440AF1EE10FA01DACB
:10442000B0EE604A9FED1E0AB5EE401AB0EE403A7B
:1044300080ED0B4AF1EE10FA08DD9FED1A3AB4EE6A
:10444000431AF1EE10FA01DAB0EE413AF5EE401AF5
:1044500080ED0C3AF1EE10FA08DDB1EE040AF4EE4C
:10446000401AF1EE10FA01DAB0EE610ABAEE041A5F
:1044700080ED0D0AB4EE412AF1EE10FA08DDB2EE3D
:10448000041AB4EE412AF1EE10FA01DAB0EE421A43
:1044900080ED0E1A704700BF000048C3000048437B
:1044A000000000000000FA43BAEE090AB2EE091A51
:1044B00090ED0A2AB4EE402AF1EE10FA08DDB0EED3
:1044C000410AB4EE412AF1EE10FA01DAB0EE420AE6
:1044D00090ED0B3A9FED592AB4EE423A80ED0A0A6C
:1044E000F1EE10FA08DD9FED562AB4EE423AF1EEF5
:1044F00010FA01DAB0EE432A9FED523A90ED0C5AD1
:10450000B0EE434AB5EE405AF1EE10FA80ED0B2AB8
:1045100008DD9FED4D4AB4EE445AF1EE10FA01DA8F
:10452000B0EE454A90ED0D6AB1EE045AB5EE406A20
:1045300080ED0C4AF1EE10FA08DDB0EE453AB4EE2B
:10454000456AF1EE10FA01DAB0EE463ABAEE066AC2
:1045500090ED0E7A80ED0D3AB4EE467AF1EE10FA57
:1045600008DDB2EE066AB4EE467AF1EE10FA01DA30
:10457000B0EE476AB0B530EE010A9FED311A32EE67
:10458000011A9FED327AB3EE092ADFED2F0A20EEF1
:10459000070A9FED2F7A21EE071A41F2586223EEA7
:1045A000073AC2F2004280EE020A9FED2A2A81EE0B
:1045B000021AB2EE042A24EE074A80ED0E6A83EE58
:1045C000053AB3EE045A36EE022A84EE204ABCEED7
:1045D000C00A22EE072ABCEEC11ABCEEC44A10EE95
:1045E000101A82EE052ABCEEC33A11EE103A14EE10
:1045F00010CA0D0ABCEEC22A517013EE10EA190956
:1046000091704FEA1C2112EE104A41EA0311037A1D
:104610001570D1704FEA1E115171210A456982F857
:1046200004C041EA0E119171D471C1680135456130
:104630001846BDE8B040FFF7EBB900BF000048C323
:1046400000004843000000000000FA4300FF7F47DD
:1046500000F07F450000C843B0B540F22415C2F217
:1046600000452C68AC4205D02046FFF71DFF2468AA
:10467000AC42F9D1B0BD00BF40F224110020C2F21B
:1046800000410A688A420BD092F820300130012B99
:1046900006D1002382F8203012688A42F4D100202B
:1046A000C0B270470000000070B58CB001910821C5
:1046B000049188218DF828100025CDE90255059533
:1046C00004460895CDF829500B950BF061FC00BF0E
:1046D000000608D120466E1C0BF05AFC122D354600
:1046E000F6D90CB070BD01A90AAA20460BF0D8F982
:1046F0000028F6D0FBF758FF0CB070BD00BF00BF1C
:104700000A78813A252A00F25780DFE802F0B8558E
:104710005555555555B355555555555555555555EB
:104720005555555555555590557456555555131362
:104730005555551380B54FF0010E80F800E04B78C9
:1047400040F2010C0373CFF6FF7C8B78CA7803EB41
:1047500043131B0B43EA022202858A884285828D1D
:104760000286C98881858B1AB3F5004F05DA0CF5EE
:104770000042934204DA4FF0FF3E826B7244826340
:10478000826B9FED431A02FB0C11C28D891A4163A3
:1047900043F2D451C2F2004191ED0D0AB8EEC00AC5
:1047A00020EE010ABDEEC00A10EE101A818700212A
:1047B000C0F83E10BDE8804070474A7802738A789E
:1047C000CB7802EB4212D20A42EA0322A0F842203E
:1047D0000A794B7902EB4212D20A42EA0322A0F88C
:1047E00044208A79C97902EB4212D20A42EA0121B5
:1047F000A0F84610704740F25012C2F200421378FF
:1048000023B9CB888385C385012313704A7802734B
:104810008A78CB7802EB4212D20A42EA032202855E
:104820008A884285828D0286C988818570474A7848
:104830004FF0290C0273CA788B78120212B21A4414
:1048400000EE102A9FED101BB8EEC00B20EE010BFE
:10485000BDEEC00B10EE102A42840A794B7902FBA0
:104860000CF21B0243EA123282848A798270C9797F
:104870000171704701210170002181707047002192
:104880000170704700BF00BF7B14AE47E17A843FE0
:10489000B400B43B00BF00BF70B58CB001910025DF
:1048A000CDE9025508210895CDE90415A1210A9109
:1048B0008DF82C20110A8DF82D100446ADF82E50DD
:1048C0000BF066FB000608D120466E1C0BF060FB67
:1048D000122D3546F6D90CB070BD01A90AAA2046A2
:1048E0000BF0DEF80028F6D0FBF75EFE0CB070BDD2
:1048F00070B50A784B7863F30A22A2F580640480CD
:104900004A788B78D20863F34A12A2F58066468013
:104910008A780D79CB789B0043EA921265F38A225C
:10492000A2F5806282800B794D795B0865F3CA132A
:10493000A3F5806EA0F806E00B7C4D7C65F30A239E
:10494000A3F58063038123B291F805C04FEA9C155B
:10495000857284EAE3344D79A4EBE3339BB2C5F36B
:104960000114B3F5257FC4722FD833B286EAE3353C
:10497000A5EBE3339BB2B3F5257F26D813B282EAC9
:10498000E332A2EBE33292B2B2F5257F1DD80FFAE3
:104990008EF28EEAE233A3EBE23292B2B2F5257FD9
:1049A00013D8BCF1400F10D37CB1CA8882810A8928
:1049B000C2814A8902820A7B82744A7BC274C98995
:1049C00081820121C175002070BD30211CF02AFFB9
:1049D000012070BD00BF00BF0B2863D8DFE800F0E6
:1049E000063B232B14424A335A1C520E43F23C21FD
:1049F000C2F20041097DC1F3801154E043F23C2131
:104A0000C2F20041097D3AE043F23C21C2F200418A
:104A1000497DC1F3800146E043F23C21C2F20041EE
:104A2000497DC9093FE043F23C21C2F20041497D82
:104A300001F0010137E043F23C21C2F20041497D1F
:104A4000C1F340012FE043F23C21C2F20041497D15
:104A5000C1F3401127E043F23C21C2F20041097D3D
:104A6000C90920E043F23C21C2F20041497DC1F373
:104A7000C00118E043F23C21C2F20041497DC1F37C
:104A8000001110E043F23C21C2F20041097DC1F364
:104A9000401108E043F23C21C2F20041497DC1F3DC
:104AA000801100E00021002942F69C6142F6D062AC
:104AB000C2F20041C2F2004204D0135C3BB111F8D3
:104AC000200070470023135411F820007047012381
:104AD000135451F82020B2FA82F2520941F82020F2
:104AE00011F82000704700BF42F69C610022C2F21C
:104AF000004141F82020704710B50446FFF76CFFD5
:104B000042F69C61C2F2004151F8240001284FF0A6
:104B1000000018BF10BD41F82400012010BD00BFE7
:104B2000B0B543F26C2C43F26D22C2F2004C43F25A
:104B30003C2EC2F20042C2F2004E9CF80010012846
:104B400008BF002905D0002808BF012959D100213C
:104B500056E0BEF90440BEF9063014F5FA7F06DAD5
:104B6000B3F5FA7F03DD117841F001011170B4F55E
:104B7000FA7FC8BFB3F5FA7F03DD117841F0020177
:104B800011704FF60C61B4F5FA7FCFF6FF7105DDB9
:104B90008B4203DA157845F0040515708C42B8BFD6
:104BA0008B4203DA137843F008031370BEF9024016
:104BB000BEF90030B4F5FA7F05DD8B4203DA1578D3
:104BC00045F010051570B4F5FA7FC8BFB3F5FA7F4C
:104BD00002DC8C4206DB0CE0157845F020051570F0
:104BE0008C4206DAB3F5FA7F03DD157845F040050F
:104BF00015708C42B8BF8B4203DA117861F07F01E7
:104C000011708CF8000010788EF81600B0BD00BF4F
:104C100043F23C21C2F20041897D084018BF0120C7
:104C2000704700BF00BF00BF43F23C21C2F2004109
:104C3000C87D10B10020C875704701207047000082
:104C4000113903293BD81368526800EE102A01EE8F
:104C5000103ADFE801F002260E229FED1B2A0C21FC
:104C600021EE021A9FED192A81EE021A80ED001A38
:104C700022E09FED172A142180EE020A9FED122AEE
:104C800021EE021A9FED113A20EE020A81EE031A7C
:104C900080ED021A80EE030A0EE01C2180ED081A56
:104CA0000AE09FED092A102121EE021A9FED072A42
:104CB00081EE021A80ED011A014481ED000A012102
:104CC00080F82410704700BFDB0F494000003443D8
:104CD0006F12834100BF00BF41F60421C2F20041C0
:104CE00091F82400012803D1002081F824007047A6
:104CF00001207047000000002DE9F04F81B041F223
:104D0000207543F2240643F2083843F2A80904460A
:104D10000027C2F20045C2F20046C2F20048C2F2C9
:104D2000004900BF20794FF0010A287120682860EF
:104D3000C1B2A52940F017810521204686F800A0C0
:104D400000F02AFE002800F00181B4F805004FF0C1
:104D5000000AB0F5007F1DDDA0F2012108292ED840
:104D6000DFE811F00900700092008B00F400690088
:104D7000A6009B00B200E07C88F80C00D4F8070085
:104D8000C8F80000D4F80B10D4F80F00C8E90110DF
:104D9000DCE000BFB0F5807F22DDA0F20110042826
:104DA00000F2D480DFE800F0032FD2373D0041F25B
:104DB0001071D4F80700C2F200410860C6E0A0F20A
:104DC0000130042800F2C280DFE800F003C0B3AA7B
:104DD0009C0043F28420E11D7722C2F200400DE0E6
:104DE000012800F08080022876D0032840F0AE80B1
:104DF00041F2C470E11D2022C2F200401CF0F9FC17
:104E00004FF0000AA2E041F21471D4F80700C2F298
:104E1000004108609AE0607A43F26E21C2F20041DC
:104E200004E0607A41F20561C2F200418870B4F892
:104E3000070008808AE042F6FC51E079C2F20041A6
:104E4000087083E0D4F80700D4F80B10D4F80F20D2
:104E5000C9F80820D4F81320C9F80C20B9F80A20A2
:104E6000C9E9000100EE102A43F2E830C2F2004026
:104E7000B8EE400A80ED510A68E0B4F80B0041F248
:104E8000D051C2F200410EE043F2FC22D4F80700F8
:104E9000D4F80B10C2F2004253E0B4F80B0043F216
:104EA000BC01C2F200418880D4F8070008604DE0E0
:104EB00043F25C52D4F80700C2F20042D4F80A1060
:104EC000C2F80310106041E043F28021D4F80700DB
:104ED000C2F20041086039E041F2C071E079C2F2EB
:104EE0000041087032E041F2E873D4F80700C2F2E2
:104EF0000043D4F80B10D4F80E20C3F80720C3E900
:104F0000000123E042F67C72B4F80F00C2F20042C6
:104F1000D4F80B101081D4F80700C2E9000115E0A5
:104F200043F27422D4F80700D4F80B10C2F2004206
:104F300007E042F67072D4F80700D4F80B10C2F202
:104F400000421060D4F80F0051609060B5F8010085
:104F5000044414F8090FA52805D1F8074FF00107FC
:104F600008BFD346DEE6F80718BFDA465FFA8AF0D4
:104F700001B0BDE8F08F00BF42F69461C2F200417B
:104F80000860704700BF00BF70B542F694660D46DA
:104F9000C2F2004604463368D3F88820202A07D09E
:104FA00001201AF0B1FB3368D3F888002028F7D12C
:104FB000AAB218462146BDE8704015F091BC00BF6A
:104FC00043F22401C2F20041087810B100200870B9
:104FD000704701207047000070B543F2705543F2EE
:104FE0007404C2F20045C2F2004434212046002677
:104FF0002E61C5E90066C5E902661CF013FC0020BD
:105000000021C4F2702060600020C4F25C21C4F270
:10501000F010A1604CF6CD41E0600020C3F6CC61F9
:10502000C4F22A302E74C4E904104CF6CD4000219D
:10503000C4F2BC10C4F22011C5E90210296070BD91
:1050400043F2A80043F20831C2F20040C2F200412C
:1050500043F2740349890289C2F20043406800EEBA
:10506000101A01EE102A1860B8EE411AB8EE400A84
:1050700083ED011A83ED020A704700BF00BF00BF35
:105080009FED151AB7EEE02A20EE011A9FED0C3BBA
:1050900021EE201AB7EEC00A9FED0B4BB7EEC11AF6
:1050A00022EE033B20EE044BA3EE021BA4EE001BFA
:1050B0009FED070B31EE000BB7EEC00B704700BF42
:1050C000000000607880833E000000803F82803EC8
:1050D00000000060E3A508404F02063600BF00BF95
:1050E000B0B52DED0C8B43F2A80043F20831C2F2AB
:1050F0000040C2F2004143F2740441F274654989F0
:105100000289C2F20044406800EE101A01EE102A33
:105110009FED7F8B206000209FED7F9BB8EE411AB2
:1051200004F118019FED7EABB8EE400AC2F20045D3
:105130009FED7DBA84ED011A84ED020AA06203E0BE
:1051400013300431132831D105EB8002B2F93A3023
:10515000B2F9362000EE103A02EE102AB8EEC01A6C
:10516000B8EEC23AB8EEC22B21EE0B1AB8EEC00B65
:1051700021EE031A22EE083BB7EEC11A20EE094BCE
:10518000A3EE021BA4EE001B31EE0A0BB7EEC00B20
:1051900081ED000AB5EE400AF1EE10FAD0DB94ED95
:1051A0000A1A31EE000A84ED0A0AC9E794ED050AED
:1051B00094ED0A1AB4EE401AF1EE10FA02DAB7EEE4
:1051C000000A4AE09FED591A00209FED59CA31EEBE
:1051D000400AB0EE4CDA9FED571A9FED572A00BFF8
:1051E00029184C304C28B1F93A20B1F9361003EEA9
:1051F000102A04EE101AB8EEC33AB8EEC44A23EEF1
:10520000015A24EE0B6A24EE027AA5EE03DAA6EE2A
:1052100003CAA7EE040AE3D0B9EE001A2DEE011A74
:1052200021EE000AACEE0C0AB5EE400AF1EE10FADF
:1052300006DABEEE000A2CEE000A80EE0D0A0CE043
:10524000B1EEC01AB4EE411AF1EE10FA5AD631EEB0
:105250004C0A3DEE0D1A80EE010AB5F93A00B5F997
:10526000861084ED0B0A01EE100A02EE101A04F10A
:105270001401B8EEC11AB8EEC22A20EE011A20EECF
:10528000022ABDEEC11ABDEEC22A11EE100A6887CD
:1052900012EE100AA5F886000020A06205EB80023D
:1052A00013301328B2F93A30B2F9362000EE103A32
:1052B00002EE102AB8EEC01AB8EEC23AB8EEC22B0F
:1052C00021EE0B1AB8EEC00B21EE031A22EE083BBA
:1052D000B7EEC11A20EE094BA3EE021BA4EE001B91
:1052E00031EE0A0BB7EEC00B81ED010A01F10401AA
:1052F00094ED0A1A31EE000A84ED0A0ACED0BDEC14
:105300000C8BB0BD1DF020F9B0EE401A9FE700BF36
:10531000000000607880833E000000803F82803E75
:1053200000000060E3A508404F0206361B2FC54071
:1053300000000000FC110434C3031CB400BF00BF14
:10534000B0B52DED028B43F2A80043F20831C2F252
:105350000040C2F2004143F274059FED5D3A498975
:105360000289C2F20045406800EE101A01EE102AD0
:1053700041F274612860002005F11802B8EE411A6C
:10538000C2F20041B8EE402A85ED011A9FED4A0BAA
:1053900085ED022A9FED4A1BA8629FED4B2B03E08F
:1053A00013300432132831D101EB8003B3F93A40B2
:1053B000B3F9363004EE104A06EE103AB8EEC45A8D
:1053C000B8EEC67AB8EEC66B25EE035AB8EEC44BFB
:1053D00025EE075A26EE007BB7EEC55A24EE018B68
:1053E000A7EE065BA8EE045B35EE024BB7EEC44BAE
:1053F00082ED004AB5EE404AF1EE10FAD0DB95EDB1
:105400000A5A35EE044A85ED0A4AC9E795ED050AC0
:105410009FED301A31EE400AA1F112009FED2E8A65
:1054200001219FED2E1A9FED2E2A9FED2E3A00BFEF
:1054300030F94C2FB0EE486A93B205EE102A04EE14
:10544000103A002AB8EEC55AB8EE444AA5EE028AD0
:10545000A4EE016A25EE034AA4EE050A36FE088A88
:105460000139E5D09FED201A20EE010AA8EE080AC6
:10547000B5EE400AF1EE10FA06DABEEE000A9FED34
:105480001C1A28EE000A0AE0B1EEC01AB4EE411A66
:10549000F1EE10FA0AD631EE480A9FED141A80EEAA
:1054A000010A85ED0B0ABDEC028BB0BD1DF04CF876
:1054B000B0EE401AEFE700BF000000607880833E46
:1054C000000000803F82803E00000060E3A50840AD
:1054D0004F0206361B2FC540000000004F028636E3
:1054E0004F0286B6FC110434C3039CB5C3031C35BC
:1054F000C3039C3400BF00BF016843F2705200EE4A
:10550000101AC2F2004243F2740C406892ED021A83
:1055100092ED032A30EE410AC2F2004C32EE411AFB
:10552000116001238CF83030506080EE010A9FED4D
:10553000051A20EE010ABCEEC00A10EE101A117412
:10554000704700BF0000C84243F27401C2F200413C
:1055500091F8300018B1002081F830007047012028
:105560007047000000000000B0B52DED048B47F23D
:105570008C240146C2F200441C2204F120001CF0DD
:1055800038F994F83B00CC280ED194F8390094F8FF
:10559000551081EA000292060BD122680132226086
:1055A0000B2A06D3022000E001202071BDEC048B01
:1055B000B0BD94ED080A00F03F0510EE103A01F07E
:1055C000C001294484F855100122E27723F00041FC
:1055D0000022B1F1FF4F40F201012271C7F6807144
:1055E000226094F83A20A27702D884ED0F0A01E0F5
:1055F000E26B226294ED090A10EE102A22F00042BA
:105600008A4202D284ED100A01E0226C626294EDBB
:105610000A0A10EE102A22F000428A4202D284EDD9
:10562000110A01E0626CA26294ED0C0A10EE102ADD
:1056300022F000428A4202D284ED130A01E0E26CB9
:10564000226394ED0D0A10EE102A22F000428A42E5
:1056500002D284ED140A01E0216D616340B241F28F
:10566000F475B0F1FF3FC2F2004502DD0020607129
:1056700076E094ED090A9FED721A80EE010A94ED2E
:10568000081A9FED6D9A012081EE091A9FED6B8A31
:1056900020EE082A6071C4F80600D5ED120A21EE4A
:1056A000080A9FED681A82FE011A10EE101A11EE18
:1056B000100A9FED651AC4F80A10C4F80E0000F035
:1056C000CBFAB0EEC00A9FED611AB4EE410AF1EEDA
:1056D00010FA02DDA86CC4F80A00D4F80A0094EDB0
:1056E0000B2A94ED0A0A01EE100A80EE090A95EDE4
:1056F000123A82EE092A33EE411A20EE083A22EEDF
:10570000080AB0EEC11A13EE100AC4F8120010EE27
:10571000100AB4EE431AF1EE10FAC4F816001EDABD
:10572000D4F80E0095ED382A01EE100A32EE411A37
:10573000B0EEC11AB4EE401AF1EE10FA0FDAB7EE7D
:10574000001A94ED0C0AB4EE410AF1EE10FA68D09A
:10575000B0EE001AB4EE410AF1EE10FA61D000206A
:10576000C4F81A00D4F80A0095ED121A00EE100AD7
:10577000D4F81200002147F28822C2F2004231EE32
:10578000400A01EE100AD4F80E0002EE100AD4F816
:105790001600B0EEC00AB4EE410A95ED380A30EEBC
:1057A000420A01EE100AF1EE10FAB8BF0121B0EE84
:1057B000C00A00201170B4EE410AB7EE001AF1EEF3
:1057C00010FA94ED0C0AB8BF0120B4EE410AF1EED4
:1057D00010FA507006D0B0EE001AB4EE410AF1EEA5
:1057E00010FA06D141F21C70C2F20040016801318A
:1057F000016047F20830C2F200400178012904D16B
:105800006179002904BF022161716179017041F25F
:105810008850C2F20040012180F83110BDEC048BA9
:10582000B0BD43F258510120C2F20041C4F81A0041
:1058300008680130086095E700003443DB0F4940F9
:10584000000034C3CDCCCCBEDB0FC940A470DD3F1B
:1058500080B541F604209FED3D1AC2F2004047F2A8
:1058600034329FED3C3AC2F2004290ED014A90ED95
:10587000000A84EE014A90ED035A90ED046A80EE2E
:10588000012A80EE030A9FED323A85EE015A11207B
:1058900086EE011A107024EE034A42F69860C2F2B6
:1058A000004020EE030A21EE031A537C22EE032A65
:1058B00080ED000A14EE100A25EE035A43F2083C6C
:1058C00003F01E03C2F8050011EE100A12EE101AC2
:1058D000C2F2004CC2F80D0041F28850C2F801102B
:1058E00015EE101AC2F20040C2F809109CF8001020
:1058F000D0F818E0C069C2F8130003F1600000F0AE
:105900007C006429C2F817E04FF0330188BF43F0F0
:1059100062001177136850742220D07647F20C3061
:10592000C2F2004001775168036093684160D1681A
:1059300083601369C1605169C0E904311E21926915
:105940008261BDE88040FCF777BC00BFDB0F4940B7
:1059500000003443DB0F49C047F28C21C2F2004102
:10596000C87F10B10020C877704701207047000041
:1059700069B143F2C02C0138C0F6020CD2B210F863
:10598000013F01395A400B041CF80220F6D11046A1
:10599000704700BF00BF00BF4FF00002F0B1032905
:1059A0001CD3B1F1010C12D010B543F2C02E431E2E
:1059B000FF22C0F6020E614613F8014F0139624022
:1059C0000C041EF80220F7D1BDE8104000E0FF22D1
:1059D00010F80C00101AB0FA80F042091046704717
:1059E000E8B1032938BF7047B1F1010C14D010B5EC
:1059F00043F2C02E431EFF22C0F6020E614600BFD6
:105A0000D2B213F8014F013962400C041EF8022093
:105A1000F6D1BDE8104000E0FF2200F80C207047EE
:105A2000A0B189B143F2C00C0138C0F6020C00BF2E
:105A300010F8013F013983EA0203DBB292B23CF86D
:105A4000133083EA1222F3D190B270474FF6FF72FF
:105A500090B2704700BF00BF4FF0000248B3032967
:105A600027D3B1F1020C18D0B0B543F2C00E421EDC
:105A70004FF6FF73C0F6020E644600BF12F8015FD6
:105A8000013C85EA0305EDB29BB23EF8155085EA6C
:105A90001323F3D1BDE8B04000E0FF23DBB210F8E0
:105AA0000C209A4207D1084410F8010CB0FA80F09B
:105AB0004209104670470020704700BF00BF00BF7A
:105AC00028B3032938BF7047B1F1020C18D0B0B524
:105AD00043F2C00E421E4FF6FF73C0F6020E64463C
