:020000040800F2
:1000000068AB0024E1020008E91C0008F11C0008AC
:10001000F91C0008011D0008091D0008000000006F
:10002000000000000000000000000000A904020819
:10003000111D0008000000002107020889070208BE
:10004000FB020008FB020008FB020008FB0200089C
:10005000FB020008FB020008FB020008FB0200088C
:10006000FB020008FB020008FB020008191D000843
:10007000291D0008391D0008491D0008591D0008E8
:10008000691D0008791D0008FB020008891D000891
:10009000991D0008FB020008FB020008FB02000893
:1000A000FB020008A91D0008FB020008FB02000873
:1000B000B91D0008FB020008FB020008FB02000853
:1000C000FB020008FB020008FB020008C91D000833
:1000D000FB020008D91D0008F91D0008191E0008C0
:1000E000FB020008FB02000800000000FB02000801
:1000F000FB020008FB020008FB020008391E000892
:10010000FB020008FB020008FB020008FB020008DB
:10011000FB020008FB020008FB020008FB020008CB
:10012000491E0008591E0008691E0008FB0200084D
:10013000FB020008FB020008FB020008FB020008AB
:1001400000000000000000000000000000000000AF
:10015000FB020008FB020008FB020008791E0008F1
:10016000FB020008FB020008991E0008A91E0008F7
:10017000FB020008B91E0008FB0200080000000096
:10018000FB020008FB020008FB020008FB0200085B
:10019000FB020008FB020008FB020008FB0200084B
:1001A000FB020008FB020008FB0200080000000040
:1001B000FB020008FB020008FB020008FB0200082B
:1001C000FB020008FB020008000000000000000025
:1001D0000000000000000000FB020008000000001A
:1001E000000000000000000000000000000000000F
:1001F0000000000000000000FB020008FB020008F5
:10020000FB020008FB02000800000000FB020008DF
:10021000FB020008FB020008FB020008FB020008CA
:10022000FB02000800000000FB02000800000000C4
:10023000FB020008FB02000800000000FB020008AF
:10024000FB020008FB020008FB020008FB0200089A
:10025000FB020008FB020008FB020008FB0200088A
:10026000FB020008FB020008FB020008FB0200087A
:10027000FB020008FB020008FB020008000000006F
:10028000FB020008FB020008FB020008FB0200085A
:1002900000000000FB020008FB0200080000000054
:1002A00000000000FB020008FB020008FB0200083F
:1002B000C91E0008FB020008FB020008E91E000836
:1002C000FB020008FB020008FB020008DFF80CD06C
:1002D00021F09AFC004800470903000868AB00249D
:1002E0000648804706480047FEE7FEE7FEE7FEE7D0
:1002F000FEE7FEE7FEE7FEE7FEE7FEE759630008DC
:10030000CD02000800000000B0B00EF0E1FA00F0ED
:1003100087F86C46B821204621F07CFA00274FF47C
:10032000104000900C200390C020CDE907074FF04B
:1003300000501B90204601974FF00108CDF808802F
:1003400002260696CDE9046609974FF48055179565
:1003500009F0E6F918B1EFF3108072B6FEE744F247
:10036000E0400497C5F602000024CDE90277CDE90C
:1003700000770168C5F6020441F0010101600068E0
:10038000694600F001002F902F982046CDE90058D3
:1003900002960AF075FD4FF48051002220460AF0C3
:1003A000DBFE64200EF07CFB4FF4805101222046DE
:1003B0000AF0D2FE64200EF073FB00F015F900F095
:1003C000C7FA00F0F1FF00F0ABFF00F0FDFC00F019
:1003D0002BFE00F0A5FB00F063FF01F025F801F013
:1003E00063F801F0A1F800F027FB00F05DFB00F0DE
:1003F00057FE00F041FD4FF496700EF051FB05F0F2
:10040000DBFE03F021FB03F0AFF94FF496700EF022
:1004100047FB00F0A1F91FF0EBF800BFFEE700BFBB
:10042000B0B59CB044F6180409A84C21C5F60204E6
:1004300021F0F0F902200025CDE90755CDE9055559
:10044000CDE90355CDE901550DF0BAFD00952068C1
:1004500020F440402060206800F440400090009864
:1004600020688004FCD5292009904FF480300A9040
:1004700001200221CDE90E00CDE9121114902221B4
:10048000CDE9151037210024CDE917100C20199063
:100490004FF440601B9009A81A9408F00DFB20B19E
:1004A000EFF3108072B600BFFEE73F2001900320FB
:1004B0004FF48061CDE90204082004904020CDE98A
:1004C0000500CDE9071001A8032108F0DDFD20B1EA
:1004D000EFF3108072B600BFFEE708F0D9FF1CB042
:1004E000B0BD00BF00BF00BF10B5AEB06C46B821B4
:1004F000204621F08FF9002001904FF41041009127
:10050000012102910C21039102210691CDE90411F0
:10051000C0210990CDE907104FF4805017904FF09B
:1005200000501B90204609F0FBF820B1EFF310803B
:1005300072B600BFFEE72EB010BD00BF00BF00BF07
:1005400010B586B000200590CDE90300CDE901008B
:1005500044F2E0400024C5F60200C5F6020401683A
:1005600041F001010160006801A900F00100009064
:1005700000984FF4805001900120029002200390D7
:1005800020460AF07DFC4FF48051002220460AF0FC
:10059000E3FD64200EF084FA4FF4805101222046DE
:1005A0000AF0DAFD06B010BDEFF3108072B600BF9E
:1005B000FEE700BF00BF00BF10B500210446006881
:1005C000C4F20101884201D10EF02AFA2068B0F18C
:1005D000804F18BF10BD43F2C410C2F20040416802
:1005E0000131416010BD0000F0B587B044F2E04039
:1005F0000026C5F602000696CDE90466CDE902663E
:10060000016840F6004441F0100101600168C5F640
:10061000020401F0100101910199016841F0040107
:1006200001600168002201F0040101910199016853
:1006300041F080010160016801F0800101910199A0
:10064000016841F001010160016801F001010191BF
:100650000199016841F002010160016801F00201A5
:1006600001910199016841F00801016000684FF4AF
:10067000C06100F008000190019820460AF06CFD6E
:1006800002AD4FF6F370029004F58060294603270F
:10069000CDE903760AF0F4FB4FF63F702946CDE929
:1006A0000207A4F5806004960AF0EAFB48F21310F2
:1006B0002946CDE90207A4F5406004960AF0E0FB64
:1006C0004CF2FF302946CDE90207A4F500600496FC
:1006D0000AF0D6FB40F67C102946CDE902072046F9
:1006E00004960AF0CDFB4FF40070029002202946D8
:1006F000CDE904062046012703970AF0C1FB4FF419
:1007000080602946CDE902072046CDE904660AF05B
:10071000B7FB07B0F0BD000047F2BC53C2F2004384
:10072000036047F2B830C2F20040086080201060D9
:10073000704700BF00BF00BF47F6BC23C2F20043B2
:10074000036047F2B860C2F2004008604FF4807066
:100750001060704700BF00BF10B5B2B043F2600038
:10076000C0F6020001682B9141682C9181682D919F
:10077000C1682E9101692F91416930918069319052
:100780002BA800211EF04CFF40F25411C2F2004190
:10079000086043F24400C0F60200016824914168F9
:1007A000259181682691C168279101692891416945
:1007B000299180692A9024A800211EF031FF40F27F
:1007C0005811C2F2004108603AA03A491D914168AF
:1007D0001E9181681F91C168209101692191416931
:1007E0002291806923901DA800211EF019FF40F27C
:1007F0003C11C2F20041086035A0354916914168AC
:10080000179181681891C168199101691A9141691C
:100810001B9180691C9016A800211EF001FF40F278
:100820004C11C2F20041086030A030490F9141687C
:10083000109181681191C168129101691391416908
:100840001491806915900FA800211EF0E9FE40F276
:1008500038142D49C2F20044089120602AA0416852
:10086000099181680A91C1680B9101690C914169F4
:100870000D9180690E9008A800211EF0D1FE206025
:1008800028A0284901914168029181680391C168BB
:10089000049101690591416906918069079001A859
:1008A00000211EF0BDFE40F24011C2F2004108607E
:1008B00032B010BD5F360208712700080200000048
:1008C0000000000000010000000000000000000027
:1008D0004536020831280008020000000000000030
:1008E00080000000000000000000000054360208F4
:1008F000F1290008000000000000000000010000D5
:10090000000000000000000068360208A130000866
:100910000000000000000000800000000000000057
:10092000000000003B36020849270008FEFF0000D7
:100930000000000080000000000000000000000037
:1009400080B501F059FB00BF64201EF0D1FEFBE72B
:1009500080B582B044F2D8400022C5F6020001689A
:1009600041F001010160016801F00101019101996B
:10097000016841F0020101600068052100F00200F9
:10098000009000980B200DF013FE0B200DF040FEA0
:100990000C20052100220DF00BFE0C200DF038FE7E
:1009A0000D20052100220DF003FE0D200DF030FE7C
:1009B0000E20052100220DF0FBFD0E200DF028FE7B
:1009C0000F20052100220DF0F3FD0F200DF020FE79
:1009D0001020052100220DF0EBFD10200DF018FE77
:1009E0001120052100220DF0E3FD11200DF010FE75
:1009F0002F20052100220DF0DBFD2F200DF008FE39
:100A00003820052100220DF0D3FD38200DF000FE26
:100A10003920052100220DF0CBFD39200DF0F8FD25
:100A20003A20052100220DF0C3FD3A2002B0BDE8B6
:100A300080400DF0EDBD000080B542F260204AF22A
:100A40000001C2F20040C4F200010122082301604B
:100A50000021C0E9021102828274C0E90532C3613B
:100A60000323C0E9083282620D22C2620222C0E979
:100A70000C2105220423C0E90E2140220264C0E9B2
:100A80001132C0E91331C0E91531C1652022C0E936
:100A9000182183660EF088FA002808BF80BDBDE8E3
:100AA0008040FFF781BD00BF80B542F200304AF2BE
:100AB0000041C2F20040C4F200010122082301609B
:100AC0000021C0E9021102828274C0E90532C361CB
:100AD0000323C0E9083282620D22C262022202634D
:100AE00040F2523242630522C0E90E2140220264E4
:100AF0000423C165C0E91132C0E91331C0E91531E1
:100B000020228366C0E918210EF04EFA002808BFA3
:100B100080BDBDE88040FFF747BD00BF00BF00BFFC
:100B200080B542F2A0304DF20041C2F20040C4F262
:100B300000014FF44072082301600021C0E9022146
:100B4000018201228274C0E90532C3610323C0E936
:100B5000083282620D22C2620222026340F2A46263
:100B600042630522C0E90E21402202641223C165BE
:100B7000C0E91132C0E91331C0E915312022836682
:100B8000C0E918210EF010FA002808BF80BDBDE8AA
:100B90008040FFF709BD00BF10B586B04DF200429E
:100BA0000068C4F20002002190420591CDE90311D2
:100BB000CDE901115BD04AF20041C4F20001884244
:100BC0002AD04AF20001C4F20001884240F0898034
:100BD00040F2441144F2E040C2F20041C5F6020086
:100BE0000A68002A02F101020A6008D1C16841F4D2
:100BF0008071C160C16801F4807100910099016841
:100C0000132441F0080101600068092100F0080088
:100C10000090009803224EE040F2441144F2E0407C
:100C2000C2F20041C5F602000A68002A02F1010280
:100C30000A6008D1C16841F48071C160C16801F4E3
:100C40008071009100990168142441F00201016053
:100C50000068092100F002000090009840F6004072
:100C6000C5F602004FF44052A0F5006027E040F2C4
:100C7000441144F2E040C2F20041C5F602000A68A5
:100C8000002A02F101020A6008D1C16841F48071B2
:100C9000C160C16801F480710091009901689F24CE
:100CA00041F0080101600068052100F00800009093
:100CB0004FF44052009840F60040C5F602000591FE
:100CC00001A90192022202920022CDE903220AF038
:100CD000D7F80521002220460DF06AFC20460DF0D1
:100CE00097FC06B010BD00BF80B54DF20041006812
:100CF000C4F20001884247D04AF20041C4F2000128
:100D0000884222D04AF20001C4F20001884218BF92
:100D100080BD40F24410C2F2004001680139016018
:100D200007D144F2EC40C5F60200016821F480715D
:100D3000016040F600400321C5F602000AF074F994
:100D40001320BDE880400DF077BC40F24410C2F2A1
:100D5000004001680139016007D144F2EC40C5F65A
:100D60000200016821F48071016040F600404FF4F8
:100D70004051C5F60200A0F500600AF055F91420B4
:100D8000BDE880400DF058BC40F24410C2F2004073
:100D900001680139016007D144F2EC40C5F6020058
:100DA000016821F48071016040F600404FF4405129
:100DB000C5F602000AF038F99F20BDE880400DF02A
:100DC0003BBC00000000000080B542F6341041F644
:100DD0000001C2F20040C4F602010022C0E9001284
:100DE00010F0EAF8002808BF80BDBDE88040FFF79A
:100DF000DBBB00BF00BF00BF10B5B0B0044602A807
:100E0000B82120F007FD41F600012068C4F6020178
:100E1000884201D030B010BD00200390219002A87C
:100E20004FF40031029108F07BFC08B1FFF7BCFBE6
:100E300044F2DC40C5F60200016841F04001016067
:100E4000006800F040000190019830B010BD00BF74
:100E500041F600010068C4F60201884218BF7047DD
:100E600044F2DC40C5F60200016821F04001016057
:100E7000704700000000000010B542F6481443F22D
:100E80000000C2F20044C4F201004FF08071206003
:100E90004FF4800060604FF40030A0600720E060F5
:100EA0000020206161614FF08061A1614FF04051ED
:100EB000C4E90710C4E90900E0624FF080406063B4
:100EC00004F13800242120F0A5FC204610F020FA7F
:100ED000002808BF10BDBDE81040FFF765BB00BF8C
:100EE0002DE9F04387B043F2000104460068C4F2E4
:100EF000010100278842CDE90577049703970297FF
:100F000002D007B0BDE8F08344F2E0400025C5F60A
:100F10000200C5F6020502AE4FF0020801694FF06B
:100F2000050941F480510161016901F48051019189
:100F30000199016841F001010160016801F00101BE
:100F400001910199016841F0080101600068314692
:100F500000F0080001900198202002902846CDE979
:100F600003870597CDF8189009F08AFF8020314655
:100F7000CDE9020805F54060CDF81890CDE9047779
:100F800009F07EFF41F6385540F24040C2F200457C
:100F9000C4F202002860262068604020C5E90207EC
:100FA0004FF48060C5E904072846C5E90677C5E91E
:100FB00008770AF009F908B1FFF7F6FA23200521AE
:100FC0000022A567AC630DF0F3FA23200DF020FB9F
:100FD00007B0BDE8F08300BFB0B543F2000104469E
:100FE0000068C4F20101884218BFB0BD44F2F0406D
:100FF0000025C5F60200C5F60205016821F48051FE
:101000000160202128460AF00FF805F54060802194
:101010000AF00AF8A06F0AF083FC2320BDE8B04074
:101020000DF00ABB0000000080B588B042F61C201D
:101030000021C2F200400791CDE90511CDE903116D
:10104000CDE901114FF0804202600A228161C0E9BE
:1010500001214FF0FF32C0E9032111F081FF08B1F7
:10106000FFF7A2FA4FF48050049042F61C2004A926
:10107000C2F2004016F02CFC08B1FFF795FA0020F0
:101080000190039042F61C20C2F2004001A918F022
:1010900027FA08B1FFF788FA08B080BD00BF00BF8B
:1010A000B0B590B042F6682040F20045C2F2004070
:1010B0000024CDE90844CDE90644CDE90444CDE956
:1010C0000244C4F200050560CDE900444FF4897183
:1010D0008461C0E9011444F61F61C0E9031413F0F0
:1010E00033F808B1FFF760FA42F6682007A9C2F2A8
:1010F00000400794099418F0F3F908B1FFF754FA87
:101100006020009000200490CDE9010042F66820A4
:101110006946C2F20040002215F096FC08B1FFF7C4
:1011200043FA42F668246946C2F20044042220468B
:1011300015F08AFC08B1FFF737FA21680020A942B0
:101140000F90CDE90D000C900B9001D010B0B0BD08
:1011500044F2E041C5F602010A6842F001020A6069
:10116000096801F001010A910A99C0210B9102213D
:10117000CDE90C10CDE90E0100200BA9C5F6020047
:1011800009F07EFE10B0B0BD80B586B040F20042DE
:101190000068C4F20002002190420591CDE90311DC
:1011A0000291019101D006B080BD44F2E040C5F645
:1011B0000200026842F001020260006800F00100D3
:1011C00000900098C02001900220CDE90201CDE9F5
:1011D0000410002001A9C5F6020009F051FE06B076
:1011E00080BD00BF00BF00BF0068B0F1804F18BFD6
:1011F000704780B582B044F2E8400022C5F6020094
:10120000016841F0010101600068052100F0010062
:10121000019001981C200DF0CBF91C2002B0BDE814
:1012200080400DF0F5B900BF40F200410068C4F203
:101230000001884218BF704781B044F2E840C5F60B
:101240000200016841F002010160006800F0020044
:101250000090009801B070470068B0F1804F18BF4F
:10126000704744F2E8411C20C5F602010A6822F0EA
:1012700001020A600DF0E0B940F200410068C4F2DA
:101280000001884218BF704744F2E840C5F60200EA
:10129000016821F0020101607047000000000000B9
:1012A00080B542F6985041F60001C2F20040C4F207
:1012B00001010C2201604FF4E13141600021C0E9DD
:1012C00002110161C0E90521C0E90711C0E9091156
:1012D00018F062FB08B1FFF767F942F69850002159
:1012E000C2F200401AF0BCFF08B1FFF75DF942F608
:1012F00098500021C2F200401AF0FEFF08B1FFF73B
:1013000053F942F69850C2F200401AF08DFF0028BF
:1013100008BF80BDBDE88040FFF746B900BF00BFF1
:1013200080B542F6B42041F20001C2F2004048F21A
:10133000A062C4F20101C0F20102C0E900124FF440
:10134000805181600021C1604FF4806202610C22F3
:10135000C0E90521C0E90711C0E9091118F01CFB1B
:1013600008B1FFF721F942F6B4200021C2F2004093
:101370001AF076FF08B1FFF717F942F6B420002102
:10138000C2F200401AF0B8FF08B1FFF70DF942F6BB
:10139000B420C2F200401AF047FF002808BF80BD09
:1013A000BDE88040FFF700B980B542F6DC3044F27A
:1013B0000041C2F20040C4F200010C2201604FF46F
:1013C000E13141600021C0E902110161C0E905215C
:1013D000C0E90711C0E9091118F0DEFA08B1FFF7FA
:1013E000E3F842F6DC300021C2F200401AF038FF88
:1013F00008B1FFF7D9F842F6DC300021C2F2004014
:101400001AF07AFF08B1FFF7CFF842F6DC30C2F2EB
:1014100000401AF009FF002808BF80BDBDE88040E9
:10142000FFF7C2B800BF00BF80B542F6704044F677
:101430000001C2F20040C4F200010C2201604FF42E
:10144000E13141600021C0E902110161C0E90521DB
:10145000C0E90711C0E9091118F09EFA08B1FFF7B9
:10146000A3F842F670400021C2F200401AF0F8FEE4
:1014700008B1FFF799F842F670400021C2F200402F
:101480001AF03AFF08B1FFF78FF842F67040C2F247
:1014900000401AF0C9FE002808BF80BDBDE88040AA
:1014A000FFF782B800BF00BF80B542F6045041F29A
:1014B0000041C2F20040C4F201010C2201604FF46D
:1014C000E13141600021C0E902110161C0E905215B
:1014D000C0E90711C0E9091118F05EFA08B1FFF779
:1014E00063F842F604500021C2F200401AF0B8FE40
:1014F00008B1FFF759F842F604500021C2F200404B
:101500001AF0FAFE08B1FFF74FF842F60450C2F2A3
:1015100000401AF089FE002808BF80BDBDE8804069
:10152000FFF742B800BF00BF80B542F6483041F631
:101530000041C2F20040C4F201010C2201604FF4EC
:10154000E13141600021C0E902110161C0E90521DA
:10155000C0E90711C0E9091118F01EFA08B1FFF738
:1015600023F842F648300021C2F200401AF078FE1B
:1015700008B1FFF719F842F648300021C2F20040E6
:101580001AF0BAFE08B1FFF70FF842F64830C2F27F
:1015900000401AF049FE002808BF80BDBDE8804029
:1015A000FFF702B800BF00BF2DE9F043B5B000213E
:1015B0000446CDE93311CDE93111309102A8B821AB
:1015C00020F028F941F2FF312068C4F2010188427D
:1015D00000F3898044F20041C4F20001884200F027
:1015E000CC8044F60001C4F20001884200F0AA81D8
:1015F00041F20001C4F20101884240F09B820120C7
:10160000029002A800260396209608F089F808B1F7
:10161000FEF7CAFF44F2E04040F21008C5F60200AF
:10162000C4F20208016941F010010161016901F091
:10163000100101910199016841F001010160006808
:1016400030A900F00100019001984FF4C060309083
:101650000220CDE931060720349000203396C5F6EC
:10166000020009F00DFC41F6A06508F13000C2F25D
:1016700000454FF4806728602920C5E901064FF432
:101680008070EE60C5E907062846AE61C5E90476BC
:101690006E6209F099FD08B1FEF786FFC4F880502C
:1016A00008F14800AC6341F61875C2F200452860A5
:1016B0002A2068604020A8600020C5E90307C5E92A
:1016C0000500C5E907006862284609F07DFD08B1FC
:1016D000FEF76AFF252005210022E567AC630CF0C8
:1016E00067FF252024E241F20041C4F20101884253
:1016F00000F0B38041F60041C4F20101884200F0DD
:10170000958141F60001C4F20101884240F0128245
:101710000120029002A800240394209408F000F80D
:1017200008B1FEF741FF44F2E040C5F6020001694E
:1017300041F040010161016901F04001019101990D
:10174000016841F0080101600068002100F0080014
:101750000190C5F6020101984FF4404030900220FC
:101760003394CDE931040B20349001F5406030A969
:1017700009F086FB35B0BDE8F08302A80026039689
:10178000022502951F9607F0CBFF08B1FEF70CFF6C
:1017900044F2E04040F21008C5F60200C4F202082C
:1017A000816841F400318160816801F40031019168
:1017B0000199016841F001010160006830A900F061
:1017C0000100019001980C2061C107203490002095
:1017D00030A9C5F60200339609F052FB41F6907528
:1017E0002B20C2F200454FF48067C5E901064FF493
:1017F0008070C5F80080C5E907062846EE60C5E997
:101800000476AE616E6209F0DFFC08B1FEF7CCFE33
:10181000C4F8805008F11800AC6342F20805C2F227
:10182000004528602C2068604020A8600020C5E9A1
:101830000307C5E90500C5E907006862284609F005
:10184000C3FC08B1FEF7B0FE262005210022E567A3
:10185000AC630CF0ADFE26206AE10120029002A8E4
:1018600000260396209607F05BFF08B1FEF79CFE6A
:1018700044F2E04040F21008C5F60200C4F202084B
:10188000016941F020010161016901F0200101912C
:101890000199016841F0040101600068002100F035
:1018A00004000190C5F602010198C020309002208A
:1018B0003396CDE931060720349001F5006030A958
:1018C00009F0DEFA42F2E81508F16000C2F20045C4
:1018D0004FF480672860482068604020C5E9020610
:1018E0002846C5E90476C5E90666C5E9086609F033
:1018F0006BFC08B1FEF758FEE56708F1A800AC6381
:1019000042F27015C2F200454FF480712860472002
:1019100068600020C5E90200C5E90470A861C5E956
:1019200007106862284609F04FFC08B1FEF73CFE3C
:10193000472005210022C4F88050AC630CF038FE2B
:101940004720F5E002A800260396022502951F967F
:1019500007F0E6FE08B1FEF727FE44F2E04040F251
:101960001008C5F60200C4F20208816841F4802123
:101970008160816801F4802101910199016841F041
:1019800002010160006830A900F002000190019896
:101990004FF4406061C100210720C5F60201349078
:1019A00001F5806030A9339609F06AFA42F28005A9
:1019B00008F17800C2F200454FF4806728602D20BE
:1019C000C5E901064FF48070EE60C5E907062846B8
:1019D000AE61C5E904766E6209F0F6FB08B1FEF768
:1019E000E3FDC4F8805008F19000AC6342F2F805C2
:1019F000C2F2004528602E2068604020A8600020C8
:101A0000C5E90307C5E90500C5E90700686228467E
:101A100009F0DAFB08B1FEF7C7FD272005210022F7
:101A2000E567AC630CF0C4FD272081E00120029043
:101A300002A800270397209707F072FE08B1FEF76F
:101A4000B3FD44F2E04030AEC5F6020040F21008AB
:101A50004FF00209C4F20208016941F080010161FE
:101A6000016901F0800101910199016841F01001C3
:101A700001600068314600F01000019001980420D8
:101A8000309034900020C5F60200CDF8C49000F5E7
:101A9000805532972846339709F0F2F908203146ED
:101AA000CDE930090B2034902846CDE9327709F092
:101AB000E7F941F6B05508F58060C2F200454FF4F1
:101AC000806628607620C5E901074FF48070EF60DA
:101AD000C5E907072846AF61C5E904676F6209F0E9
:101AE00073FB08B1FEF760FDC4F8805008F5836011
:101AF000AC6341F62865C2F2004528607720686033
:101B00004020A8600020C5E90306C5E90500C5E935
:101B100007006862284609F057FB08B1FEF744FD4C
:101B20009C2005210022E567AC630CF041FD9C2060
:101B30000CF06EFD35B0BDE8F08300BF00BF00BF04
:101B400010B541F2FF3104460068C4F20101884239
:101B50002EDC44F20041C4F2000188424ED044F62B
:101B60000001C4F20001884200F0808041F20001CF
:101B7000C4F20101884240F0B48044F2F040C5F65E
:101B80000200016821F01001016000204FF4C061E3
:101B9000C5F6020009F048FAD4F8800009F0C0FE4A
:101BA000E06F09F0BDFE2520BDE810400CF044BDFB
:101BB00041F20041C4F2010188423BD041F60041AC
:101BC000C4F20101884270D041F60001C4F2010163
:101BD000884218BF10BD44F2F0420020C5F6020250
:101BE000C5F6020000F540604FF44041136823F051
:101BF00040031360BDE8104009F016BA44F2F0400B
:101C0000C5F6020050F8081C21F4003140F8081C09
:101C100000200C21C5F6020009F006FAD4F8800075
:101C200009F07EFEE06F09F07BFE2620BDE8104043
:101C30000CF002BD44F2F0400022C5F60200C5F6E9
:101C40000202016821F02001016002F50060C0215C
:101C500009F0EAF9E06F09F063FED4F8800009F0BA
:101C60005FFE4720BDE810400CF0E6BC44F2F040B7
:101C70000022C5F60200C5F6020250F8081C21F445
:101C8000802140F8081C02F580604FF4406109F0A3
:101C9000CBF9D4F8800009F043FEE06F09F040FE74
:101CA0002720BDE810400CF0C7BC44F2F0400022F1
:101CB000C5F60200C5F60202016821F0800101604C
:101CC00002F580500C2109F0AFF9D4F8800009F03A
:101CD00027FEE06F09F024FE9C20BDE810400CF0C8
:101CE000ABBC10BD0000000007F006FDFEE700BF22
:101CF000FEE700BF00BF00BFFEE700BF00BF00BFA0
:101D0000FEE700BF00BF00BFFEE700BF00BF00BF8F
:101D1000704700BF00BF00BF41F69070C2F20040A4
:101D20000BF07ABA00BF00BF42F20800C2F20040D6
:101D30000BF072BA00BF00BF41F6A060C2F20040D3
:101D40000BF06ABA00BF00BF41F61870C2F2004043
:101D50000BF062BA00BF00BF42F2E810C2F20040CE
:101D60000BF05ABA00BF00BF42F28000C2F200403E
:101D70000BF052BA00BF00BF42F2F800C2F20040BE
:101D80000BF04ABA00BF00BF42F26020C2F200402E
:101D90000EF0F6BE00BF00BF42F20030C2F20040BB
:101DA0000EF0EEBE00BF00BF42F6D010C2F20040FF
:101DB00014F0DEB900BF00BF42F61C20C2F20040A2
:101DC00014F0D6B900BF00BF42F64810C2F200407E
:101DD00010F072BF00BF00BF10B542F6B424C2F2CB
:101DE0000044204619F008FB2046BDE8104001F0F1
:101DF0006BBE00BF00BF00BF10B542F6DC34C2F2BC
:101E00000044204619F0F8FA2046BDE8104001F0E1
:101E10005BBE00BF00BF00BF10B542F67044C2F207
:101E20000044204619F0E8FA2046BDE8104001F0D1
:101E30004BBE00BF00BF00BF42F27010C2F20040B4
:101E40000BF0EAB900BF00BF41F6B050C2F200404B
:101E50000BF0E2B900BF00BF41F62860C2F20040BB
:101E60000BF0DAB900BF00BF41F63850C2F20040B3
:101E70000BF0D2B900BF00BF10B542F60454C2F255
:101E80000044204619F0B8FA2046BDE8104001F0A1
:101E90001BBE00BF00BF00BF42F25040C2F2004074
:101EA00004F032BC00BF00BF42F25040C2F200401A
:101EB00004F02ABC00BF00BF42F25040C2F2004012
:101EC00004F022BC00BF00BF10B542F64834C2F295
:101ED0000044204619F090FA2046BDE8104001F079
:101EE000F3BD00BF00BF00BF42F2A030C2F200400D
:101EF0000EF046BE0000000081B044F2F440002223
:101F0000C5F60200016841F00201016000680F217E
:101F100000F0020000906FF00100009B01B00CF097
:101F200047BB0000000000000F2842D8B0B58AB0BF
:101F3000044619200022214600250CF039FB192007
:101F40000CF066FB40F23010C2F20040046044F234
:101F5000F040C5F60200016841F00101016000682F
:101F600001A900F001000290029802A807F098FB76
:101F700007F0FEFA4DF683614000C4F21B310022E7
:101F8000A0FB010142F6D010C2F200404FF0FF3337
:101F9000C4F20102026003EB9141C0E9011540F275
:101FA000E731C0E9031510F0DBFF20B101200AB0D2
:101FB000B0BD0120704742F6D010C2F2004011F0CF
:101FC0006BF90AB0B0BD00BF42F6D010C2F20040BB
:101FD0000068C16821F00101C160704700BF00BF07
:101FE00042F6D010C2F200400068C16841F0010121
:101FF000C16070470000000080B541F65C2040F2EF
:102000000401C2F20040C2F2004101221EF00CFCA9
:1020100008B1FEF7C9FA41F65C2040F23001C2F285
:102020000040C2F200411EF02FFC08B1FEF7BCFADE
:1020300041F65C2040F2D801C2F20040C2F20041F9
:102040001FF036FB08B1FEF7AFFA41F65C20C2F292
:1020500000401EF03DFC08B1FEF7A6FABDE8804046
:102060000CF092B90000000040F2C4001222C2F24B
:1020700000400A80704700BF40F2EC000422C2F228
:1020800000400A80704700BF10B540F260140A4655
:10209000C2F2004402A021461FF086F8204610BD7F
:1020A00053544D6963726F656C656374726F6E69CA
:1020B0006373000000BF00BF10B540F260140A4611
:1020C000C2F2004402A021461FF06EF8204610BD67
:1020D00053544D3332205669727475616C20436FCE
:1020E0006D506F727400000070B54EF60000C1F6BE
:1020F000F17002688368D2184FF01A030B802ED05B
:1021000040F2F00C40686FF00101C2F2004C4FF059
:10211000370E0023140F0CEB01050EEB1276B2F113
:10212000204F38BF04F13006023112010E292E7102
:102130006B71EFD10CF1100104224FF0370C00232A
:10214000060FB0F1204F0CEB107538BF06F13005CB
:10215000013A4FEA001001F8025F4B70F0D140F2F3
:10216000F000C2F2004070BD10B540F260140A46A3
:10217000C2F2004402A021461FF016F8204610BD0E
:1021800043444320436F6E666967000000BF00BF91
:1021900010B540F260140A46C2F2004402A0214683
:1021A0001FF002F8204610BD43444320496E746579
:1021B000726661636500000040F2B8000C22C2F252
:1021C00000400A807047000010B541F65C2440F6DC
:1021D0008051C2F20044C2F20041002220461FF0AA
:1021E00073FA40F280512046C2F200411FF07CFA9F
:1021F000002010BD00BF00BF0020704700BF00BF1F
:102200000020704700BF00BFB0B541F65C25044612
:10221000C2F20045214628461FF066FA28461FF004
:1022200097FA204603F094F90020B0BD00BF00BF2C
:102230000020704700BF00BF41F65C22C2F200429E
:10224000D2F8BC22D2F81422002A1CBF0120704709
:1022500010B541F65C240A46C2F20044014620460D
:102260001FF032FA2046BDE810401FF04DBA0000C2
:1022700010B5B0B0044602A8B8211FF0CBFA002177
:102280002068C4F20401884201D030B010BD0020A3
:1022900003904FF4802002904FF44010239002A846
:1022A00007F03EFA08B1FEF77FF90CF06DF844F242
:1022B000D8400022C5F60200016841F000710160BB
:1022C0000068052100F00070019001984A200CF090
:1022D0006FF94A200CF09CF94B20052100220CF0EC
:1022E00067F94B200CF094F94D20052100220CF0E9
:1022F0005FF94D200CF08CF930B010BD00BF00BF6D
:1023000000210068C4F20401884218BF704780B5FC
:1023100044F2D840C5F60200016821F00071016066
:102320004A200CF089F94B200CF086F94D20BDE8CD
:1023300080400CF081B900BFD0F8E02400F29C414D
:1023400010461EF0F1BA00BF01EBC10200EB8202A1
:10235000D0F8E004D2F860221EF016BB00BF00BF28
:1023600001EBC10200EB8202D0F8E004126A1EF019
:102370004FBB00BF00BF00BFD0F8E0041EF0F0BBB1
:1023800010B5C179044621B1022901D0FEF70CF93C
:102390000121D4F8E0041EF0C3FBD4F8E004BDE84A
:1023A00010401EF08DBB00BF10B50446D0F8E0040D
:1023B0001EF0BAFB2068D0F8001E41F00101C0F801
:1023C000001EE07A002808BF10BD4EF61050CEF275
:1023D0000000016841F00601016010BD00BF00BFB0
:1023E000D0F8E0041EF0B0BBD0F8E0041EF0E0BB73
:1023F000D0F8E0041EF0C4BBD0F8E0041EF0F0BB3F
:10240000D0F8E0041EF0F0BB0178012932D110B5FC
:1024100042F25041C2F20041C0F8C812C1F8E004D3
:102420000020C4F2040008600920087140F2012075
:10243000C8800220C1F809000020C881087408463D
:1024400004F086F808B1FEF7AFF842F2504480215C
:10245000C2F20044204604F033FF002180222046CF
:1024600004F006FF01214FF4BA72204604F000FF89
:10247000BDE810400020704780B5D0F8C80204F0D5
:10248000E3F840F20032C100C0F20132032822FA20
:1024900001F188BF0321C8B280BD00BF00BF00BFEB
:1024A00040F20032C100C0F20132032822FA01F1E9
:1024B00088BF0321C8B2704780B5D0F8C80204F0C5
:1024C000DFF840F20032C100C0F20132032822FAE4
:1024D00001F188BF0321C8B280BD00BF00BF00BFAB
:1024E00080B5D0F8C80204F0EBF840F20032C10029
:1024F000C0F20132032822FA01F188BF0321C8B2D9
:1025000080BD00BF00BF00BF80B59446D0F8C802B0
:102510001A46634604F070FD40F20032C100C0F27A
:102520000132032822FA01F188BF0321C8B280BD1D
:1025300080B5D0F8C80204F08FFD40F20032C1002F
:10254000C0F20132032822FA01F188BF0321C8B288
:1025500080BD00BF00BF00BF80B5D0F8C80204F046
:1025600053FE40F20032C100C0F20132032822FAC9
:1025700001F188BF0321C8B280BD00BF00BF00BF0A
:1025800080B5D0F8C80204F0D7FD40F20032C10097
:10259000C0F20132032822FA01F188BF0321C8B238
:1025A00080BD00BF00BF00BF80B5D0F8C80204F0F6
:1025B000FBFD40F20032C100C0F20132032822FAD2
:1025C00001F188BF0321C8B280BD00BF00BF00BFBA
:1025D00001F07F02D0F8C80201EBC10349B202EB5F
:1025E000C202002900EB820200EB830000F25620B9
:1025F00048BF02F116000078704700BF00BF00BF5F
:1026000080B5D0F8C80204F0E3FC40F20032C1000B
:10261000C0F20132032822FA01F188BF0321C8B2B7
:1026200080BD00BF00BF00BF80B5D0F8C80204F075
:1026300063FD40F20032C100C0F20132032822FAE9
:1026400001F188BF0321C8B280BD00BF00BF00BF39
:1026500080B5D0F8C80204F027FD40F20032C10076
:10266000C0F20132032822FA01F188BF0321C8B267
:1026700080BD00BF00BF00BFD0F8C80204F030BD6D
:1026800040F26030C2F20040704700BF00BF00BFA0
:10269000704700BF00BF00BF0CF002BA000000008E
:1026A00070B540F20A10C2F20040007801282BD029
:1026B00003280ED0022818BF70BD43F21840C2F2A2
:1026C000004000F14C0400F1480500F198069430F8
:1026D00026E043F21844C2F2004494ED390A03F0B4
:1026E00023FD94ED4C0AB1EE400A03F01DFD04F504
:1026F0009E7604F59C7047F2902441F25C75C2F21C
:102700000044C2F200450BE041F62400C2F2004052
:1027100000F1E00400F1DC0500F5967600F5947018
:1027200090ED000A03F000FD96ED000A03F0FCFCBA
:1027300095ED000A03F0F8FC94ED000ABDE8704046
:1027400003F0F2BC00BF00BF82B01CF061FF01AC1F
:10275000019000BF1CF05CFF019003F005FD02F04A
:10276000BFFA01F0D5FC052120461DF075FCF1E70C
:1027700082B01CF04DFF42F2A0380190C2F2004836
:102780004FF4A171404601F093FF43F2640502212A
:10279000C2F20045284601F0FBFC43F29C5741F28F
:1027A000246441F2286943F2046AC2F20047C2F28B
:1027B0000044C2F20049C2F2004A01AE16E000BF76
:1027C0009AED1A0A99F80000BDEEC00A4FF4A17103
:1027D000002810EE102A08BF0246404602F060F8BA
:1027E0001DF086FF012130461DF036FC1CF010FF65
:1027F00001901DF055FFB87840F00100B87001F06D
:1028000093FB01F04DFA95F83C0018B1284601F011
:102810004FFE03E00321284601F0BAFC2068C107FF
:1028200000F101002060CBD103F006F8C8E70000FA
:1028300041F2286442F61876C2F20044C2F2004621
:102840004FF66C570020207041F61809307043F2A3
:10285000782507F13C0043F29C58C2F200494FF042
:10286000010A0FFA80FBC2F20045C2F200480AE0FA
:1028700086F800A098F8020040F0100088F80200E6
:102880000A201CF035FF3078A0B1A87A012804BFD7
:10289000E97A012905D12988B94202D16988B9426A
:1028A00026D0032821D002281CD00128E2D1002004
:1028B00019E000BF99F8000000F0F0004028D7D0E0
:1028C000A87A0128D6D1E87A0128D3D1B5F9060033
:1028D0005845CFDAB5F90400B0F5167FC8BF86F8C1
:1028E00000A0C7E702202070C4E784F800A0C1E779
:1028F000012080F3138800F003F800BF00BF00BF81
:102900004EF60C500422CEF20000C0F2FA52BFF391
:102910004F8F016801F4E06111430160BFF34F8FF5
:1029200000BFFDE70000000043F29C5542F2404822
:1029300043F2782948F2000741F28854C2F2004578
:10294000C2F20048C2F20049CFF6FF77C2F200445B
:10295000002641E099F8170002F0E6F802F068F965
:10296000298860F30001298002F0EAFF298800F03D
:10297000010021F0020141EA4000288002F018FB2A
:10298000298800F0010021F0040141EA800028803C
:1029900002F0CEFD298800F0010021F0080141EA93
:1029A000C000288001F06CFE298810F00F03AA787F
:1029B0006FF3DF2141EAC02002F07F0240EA070006
:1029C00018BF03460029AA7018BF0346642084F884
:1029D00031602B801CF08CFEA87800F01B011B29B5
:1029E000B8D100F0E000A87040460EF0DDFAB1E783
:1029F00082B01CF00DFE41F624040190C2F20044A6
:102A00004FF4047120461EF005FFB3EE099A9FEDC6
:102A1000D38A9FEDD3AAB3EE060AF6EE000AB0EE13
:102A2000481AF0EE491AB0EE4A2A04F19800012142
:102A300003F02EFAB7EE000AF0EE041AB1EE0C2AFB
:102A4000B0EE481A04F1E400DFEDC60A012103F0FC
:102A50001FFAB0EE490AB0EE481AF0EE4A1ADFED5E
:102A6000C20A9FEDC22A012120464FF00008C4E9A6
:102A7000298803F00DFA9FEDC09AF0EE480AB0EEF7
:102A8000481AB0EE492A04F14C009FEDB90ADFED77
:102A9000B91A012103F0FCF9B2EE04AAB3EE0E2A32
:102AA000F0EE480AB0EE481AF0EE481A41F26F20F4
:102AB000B0EE4A0A49F69A11C3F60330C3F699619B
:102AC000C4E9030104F59870002103F0E1F9F0EE88
:102AD0004A0AB0EE481AB0EE492A04F5BE709FEDDE
:102AE000A70A0021DFEDA61A03F0D2F941F2286906
:102AF00041F6342B47F61C3543F2640643F29C5AE8
:102B0000C2F200499FED9FBAC2F2004B9FED9ECAF0
:102B1000C2F20045C2F20046C2F2004A01AF9FED88
:102B20009BDA9FED9BEA9FED9B9A9FED9BAA9FED01
:102B30009BFADFED9B8A1DE0B0EE480A284601F0C3
:102B4000B3F9B0EE482AB0EE480AF0EE480AB0EE0B
:102B5000481AF0EE481A304601F03EFC9AF802009E
:102B600040F002008AF802001DF0C2FD0221384642
:102B70001DF072FA1CF04CFD01901DF091FD99F8CA
:102B8000000002285CD001284ED0002840F0D180FF
:102B9000A88EB0EE4A1AC4F8088200EE100A41F27C
:102BA0008550A4F80C82C4F21200C4F87401B8EE87
:102BB000400A20EE0D0A30EE000A60EE0E0AB0EE7A
:102BC000490A03F03DF894ED821A47F61830B5EE45
:102BD000401AC2F20040F1EE10FA80ED000A1AD15C
:102BE000A88E9BED012AB0EEC00A01EE100AB4EEE9
:102BF00040CAB8EE411AF1EE10FA21EE0D1A31EE8C
:102C0000011AA1EE0E2A32EE0F1A31EE280A31FE19
:102C1000000A84ED110A4CF6CD40C3F60C70C4F8DE
:102C2000DC00C4E9808884E0082001F0F5FF88B169
:102C3000402001F0F1FF68B100F0B6F835E000BFC8
:102C400043F27820C2F20040C07C01283BD100F062
:102C5000ABF86CE043F2782194ED5D3AC2F20041AA
:102C600094ED371AB1F90000B1F9021000EE100A24
:102C7000484202EE100A40F20C10B8EEC00AC2F24E
:102C80000040B8EEC22A90ED004A90ED025AA0EE44
:102C9000443A94ED114AA2EE451AA0EE454A84ED5D
:102CA0005D3A84ED371A84ED114AB4F80C0294EDC4
:102CB000820AB5EE400A0130F1EE10FA18BF00208A
:102CC000A4F80C0233E0012001F01AFFB0EE4B0A29
:102CD00028B9002001F014FFB0EE4C0A28B194EDA1
:102CE000111A31EE000A84ED110A43F2782194EDB5
:102CF000373AC2F20041B1F90E00B1F90C1000EE02
:102D0000100A40F20C1001EE101AC2F20040B8EEA8
:102D1000C00A90ED032AB8EEC11AA0EE023A94ED73
:102D2000110AA1EE420A84ED373A84ED110A00F04F
:102D3000C7F89BF8240000283FF4FEAE95F8200069
:102D400000283FF4F9AE94ED800A2846B1EE400A1F
:102D500001F0AAF894ED812AF5E600BF000000001A
:102D600000004842C3F5283ECDCCCC3D0000C8420F
:102D70000000FA4500401C460050C3460080BB4599
:102D800000007A44DB0FC9BFDB0FC93F00000039E8
:102D9000DB0F494085151240DB0FC940851512C075
:102DA000DB0F49C000BF00BF47F29820C2F20040CD
:102DB000417921B3022915D001297DD1D0F806101F
:102DC000002979D0D0F80A10002200EE101A41F63E
:102DD0002401C2F20041C0F80620D0F80E00C1F86C
:102DE000DC0063E041F624020021C2F2004241719E
:102DF000D2F8E000C2F8DC0092ED120A56E041F28F
:102E00002860C2F200400078022827D0012818BFAD
:102E1000704743F27820C2F20040B0F90210B0F9D6
:102E2000000000EE101A41F62401C2F20041B8EE93
:102E3000C01A00EE100A40F20C10C2F20040B8EEC8
:102E4000C02A91ED110A90ED023AA2EE430A91EDEB
:102E5000372AA1EE032A81ED372A27E043F27820B2
:102E6000B6EE004AC2F20040B0F90E10B0F90C0004
:102E700000EE101A40F20C1102EE100AC2F20041EC
:102E800041F62400B8EEC00AC2F20040B8EEC22AF1
:102E900091ED031A21EE003A90ED110AA2EE410ADB
:102EA00090ED371AA3EE041A80ED371A41F624008C
:102EB000C2F2004080ED110A704700BF00BF00BFA2
:102EC000F0B581B02DED028B47F61C309FED691AED
:102ED000C2F200409FED6A8A808E00EE100AB8EEC2
:102EE000400A20EE010A9FED641A30EE000A60EEFF
:102EF000010AB0EE481A9FED610A02F0A1FE47F602
:102F0000143641F62404C2F20046C2F2004404F131
:102F1000DC00DFED5D0A86ED000A9FED5A0A02F043
:102F200007FE42F6107594ED371AC2F2004594ED93
:102F30007F2A41F6342743F2985095ED000AC2F2F9
:102F4000004731EE403A9FED510AA2EE001AC2F25C
:102F50000040D7ED000AC4ED380A80ED003A04F1D4
:102F6000980033EE010A02F09FFFD7ED030A04F147
:102F7000E40084ED4A0AC4ED4B0A02F095FF94ED9B
:102F8000111AB1EE400AB5EE401A84ED810AF1EE55
:102F900010FA08DB9FED3A0AB4EE401AF1EE10FA8F
:102FA00005DD9FED3B8A31EE080A84ED110A43F2FC
:102FB0009450D7ED010AC2F2004094ED110A9FED42
:102FC000301AC4ED120A0021016002F039FE94EDBE
:102FD000821A86ED000AB5EE401AF1EE10FA0CD115
:102FE000B0EEC01A9FED2B2AB4EE421AF1EE10FAA1
:102FF000BCBF4FF07E50C4F80802D4ED120A204640
:1030000030EE200A02F050FFD7ED040A04F14C0024
:1030100084ED240AC4ED250A02F046FF94ED371A28
:1030200094ED382A31EE422A9FED1A3A84ED800A57
:10303000B0EEC22AB4EE432AF1EE10FA0DDB94EDA5
:10304000820AB5EE400AF1EE10FA06D1B4F80C028D
:10305000C7289CBF0020C4F8000242F61470616CBF
:10306000C2F2004085ED001A0160BDEC028B01B098
:10307000F0BD00BF00000039DB0F4940851512404C
:10308000DB0FC940AE47E1BE52B81E3F6F1203BB13
:10309000DB0FC9C08FC2F53C704700BF00BF00BF47
:1030A00084B01CF0B5FA43F218440390C2F2004415
:1030B0004FF4B87120461EF0ADFB9FEDCF9A04F19E
:1030C0009C009FEDCE8AB0EE490A9FEDCDAAF0EEAE
:1030D000480AB0EE481AF0EE481AB0EE4A2A00212B
:1030E000002602F0D5FEB0EE490AF0EE480AB0EE36
:1030F000481AF0EE481AB0EE4A2A04F1E80000211E
:1031000002F0C6FEB5EE000AF0EE480AB0EE481A2C
:10311000201DDFEDBC1A00219FEDBB2A029002F0BA
:10312000B7FEB1EE042AB0EE481A04F150009FED4C
:10313000B70ADFEDB70A0021DFEDB61A019002F001
:10314000A7FEB2EE04DA002148F2000043F238355F
:1031500041F26C7741F25C7943F2B85BC4F2202112
:10316000C4F22240C2F20045C4E95A0132209FED68
:10317000AA9AC2F20047C2F20049C2F2004B9FED88
:10318000A7AA9FEDA7BA26809FEDA6CAC0F20A00A3
:10319000C4F84C0111E000BF94ED4D0A584600F010
:1031A00083FE43F29C51C2F20041887840F008004F
:1031B0008870022103A81CF04FFF1CF029FA29890E
:1031C000039021B1E888A4F84C11A4F84E01B4F89A
:1031D0004E01322194ED511AC4F84811400000EE1E
:1031E000100A41F22860C2F20040B8EE400A0078AE
:1031F0000228A0EE091A81FE080A84ED510A23D0A4
:1032000001280BD000284FD10021C4F22021C4F89E
:103210006C1101216170002145E000BF43F278216B
:103220000022C2F20041C4F22022C4F86C21C97A03
:10323000032900F09182022900F08A82012933D10A
:10324000012161702FE000BF43F2782247F2403C39
:10325000C2F20042C2F2004CD17C00290FF20051B0
:1032600008BF0431527D9CF811300968C4F86C1114
:1032700056064FF008064FF0040158BF01EA5216F7
:1032800047F2982203F0E301C2F200420223637086
:103290008B1992F86920002602218CF8113012F067
:1032A0001C0F08BF032121702178032900F2C88177
:1032B000DFE811F00400B6011600BA0041F26A70AE
:1032C0009BED110AC2F20040B8EEC00AC4F850618A
:1032D000068084ED120AC4F88460C4F83461AFE15A
:1032E00043F2F201C2F200410988CA087C2A17D8C9
:1032F00043F2F4020131C2F200421278002A43F292
:10330000F202C2F2004211800AD146F60001012207
:10331000C4F29351A16443F2F401C2F200410A7075
:1033200041F26A7294ED121AC2F2004294ED132A2D
:1033300031EE422A0228118801F10101118043F285
:10334000782143F2B452C2F20041C2F20042897CB9
:1033500082ED002A08BF00290ED0012811D143F2C6
:103360007822C2F20042D28813B282EAE332A2EBA0
:10337000E33292B2092A04D843F29352C2F20042D5
:10338000167043F29352C2F200421278002A40F0C3
:10339000578140F22402C2F2004292ED003AB4EEAC
:1033A0004A3AF1EE10FA00F34B81022800D161B9DC
:1033B000012840F0458143F27820C2F20040B0F984
:1033C0000600B0F5FA7F40F33B81B0EEC22AB4EEBE
:1033D0004B2AF1EE10FA80F2338143F2935131EE31
:1033E0000C1AC2F2004130EE0D0A012084ED121ACF
:1033F000087084ED510A23E16F12033A00000000C7
:10340000CDCC4C3F0000C84200007A45C3642A3A44
:1034100095BF56359A99993E6F1283BA000048427B
:1034200000000046000000C643F2F201C2F2004173
:103430000988CA087C2A17D843F2F4020131C2F283
:1034400000421278002A43F2F202C2F200421180D6
:103450000AD146F600010122C4F29351A16443F25D
:10346000F401C2F200410A7041F26A7294ED120A4C
:10347000C2F2004294ED131A30EE410A012811887D
:1034800001F10101118043F2B451C2F2004181ED1A
:10349000000A07D147F29821C2F20041D1F81A1070
:1034A00000293FD101280ED143F27820C2F200401A
:1034B000C07A022807D1082001F0AEFB18B14020E5
:1034C00001F0AAFB70B341F2286043F27822C2F205
:1034D0000040C2F2004247F298260078917CD27CEC
:1034E000C2F20046C9B20238B0FA80F000294FEAB1
:1034F0005013D0B218BF012102460028D6F81A6036
:1035000001EA030118BF0122002E18BF01260A405C
:1035100032424FF0000602BFB0FA80F0400910EAD4
:1035200001003DD094ED520A40F22400B8EEC00AEA
:10353000C2F2004090ED001AB4EE401AF1EE10FA1B
:103540002EDC41F26A7094ED5B1AC2F200400088F2
:10355000400000EE100AB8EE400AB4EE401AF1EE58
:1035600010FA1DDC43F2B450C2F2004090ED000AA4
:10357000B0EEC00AB4EE4B0AF1EE10FA10DA41F2E6
:103580006A7094ED120AC2F2004094ED511A30EEC6
:103590000C0A84ED120A31EE0D0A068084ED510A00
:1035A000BBF8380001B280EAE130A0EBE13041F62F
:1035B000593180B2884210D3BBF8360001B280EA9C
:1035C000E130A0EBE13080B2632806D841F28051AF
:1035D000C2F2004108680130086041F28050C2F236
:1035E0000040006865282BD341F230719BED110A31
:1035F000C2F20041B8EEC00A0868013030EE0B0A92
:103600003328086084ED120A1AD341F28050C2F2C6
:103610000040066041F23070C2F2004006600FE0E8
:1036200041F26A709BED110AC2F20040B8EEC00A86
:10363000C4F85061068084ED120AC4F8846000BFAB
:103640006078B0EE481AB0EE480A022804D307D1D9
:1036500094ED5A0AB1EE401A84ED381A84ED4B0A03
:1036600004F59A7A4FF0000807EB080004EB080114
:10367000D0ED0B0A01F19C0091ED380AC1ED390A39
:1036800002F012FC08F14C080AF10400B8F14C0FEA
:103690008AED010A8246E7D047F2902094ED390A7C
:1036A00094ED4C1AC2F2004030EE010A80ED000A9F
:1036B00040F24810C2F2004090ED001A029820EE4D
:1036C000010A9BED111AF8EEC10A89ED000A94ED8A
:1036D000120AC4ED130A02F0E7FBBBF9360084EDD1
:1036E000250A01EE100A0198F8EEC10AC4ED260A77
:1036F00002F0DAFB607884ED4D0A78B194ED4E0A61
:1037000099ED001A30EE410A384600F0CDFB94EDF9
:103710004F0A99ED001A30EE410A06E0B0EE480A71
:10372000384600F0C1FBB0EE480A07F14C0000F04B
:10373000BBFB207800287FF42FADB0EE480A584636
:1037400000F0B2FB43F20460C2F20040866628E556
:10375000022161700321A6E502216170A3E500BF8B
:103760000000B442000020422DE9F0412DED028B13
:103770008AB042F2602502ACC2F2004511200690E8
:1037800014200790284621460026CDE902660496BB
:103790004FF00208CDF814800BF046FF01271520EA
:1037A000CDE90570284621460296CDE903770BF056
:1037B0003BFF022102220123284600970BF078FFED
:1037C0000121002228460DF00FF910210022284681
:1037D0000DF00AF928460CF03BF942F2003540F2B0
:1037E0000120C2F20045069040F2032007902846CF
:1037F0002146CDE90266049705970BF015FF0221DB
:1038000002220123284600970BF052FF01210022DB
:1038100028460DF0E9F81021002228460DF0E4F8C2
:1038200028460CF015F942F2A0350820C2F20045F6
:10383000079028462146CDE9026604960697CDF802
:1038400014800BF0F1FE022102220123284600978A
:103850000BF02EFF0121002228460DF0C5F81021A3
:10386000002228460DF0C0F828460CF0F1F841F28D
:10387000D8500F21C2F200409FED200A05221523E7
:10388000C0E90166C0E903164FF4801141614FF4AD
:1038900000110662C0E9061643F264000021C2F27C
:1038A000004000F04DFCB7EE008A41F26C74C2F2A9
:1038B00000440121012240F20323B0EE480A2046D1
:1038C00000F036FAB0EE480A04F14C000121012262
:1038D00040F2012300F02CFAB0EE480A47F61C3003
:1038E000C2F200400221022240F2052300F020FA39
:1038F0000AB0BDEC028BBDE8F08100BF0000000003
:10390000C90708BF7047B0B543F2883543F2453365
:10391000C2F20045C2F2004340212A4604460CF0A0
:103920008BF94DF200412068C4F2000188421AD0A0
:103930004AF20041C4F2000188420DD04AF200016F
:10394000C4F20001884216D1287843F24531C2F210
:10395000004100F0B9FC0EE043F245322968C2F2A2
:103960000042012005E043F245322968C2F20042DC
:10397000022000F0EDF9012100222046BDE8B04010
:103980000DF032B800BF00BFC90658BF7047B0B5D0
:1039900043F2F03543F2B033C2F20045C2F20043C5
:1039A00041212A4604460CF047F94DF200412068B7
:1039B000C4F20001884211D04AF20001C4F20001B1
:1039C000884212D141F6342043F2B0322968C2F263
:1039D0000040C2F2004201F037F906E043F2B03194
:1039E0002868C2F2004100F0AFF810210022204602
:1039F000BDE8B0400CF0F8BF022816D001280BD06B
:103A0000002818BF704741F2D85342F26020C2F23A
:103A10000043C2F2004010E041F2D85342F20030BD
:103A2000C2F20043C2F2004007E041F2387342F2B2
:103A3000A030C2F20043C2F20040196019460CF0F7
:103A400023B8000000000000B0B542F60454102571
:103A5000C2F200440A2220680562016841F01001A8
:103A6000016041F272612046C2F2004117F008F88D
:103A7000204602F00DFB42F6DC349622C2F20044EE
:103A800020680562016841F01001016042F62D6175
:103A90002046C2F2004116F0F3FF204601F064FA1E
:103AA00042F6B42041F28461C2F20040C2F2004109
:103AB000122203681D621D6845F010051D60BDE8F7
:103AC000B04016F0DDBF00BF10B504460068C16904
:103AD000C90600D410BD10210162204617F068FA13
:103AE00042F6B420C2F20040844217D042F604509D
:103AF000C2F20040844218BF10BD41F2726443F22A
:103B00007820C2F20044C2F20040214600F0F4FEE8
:103B100042F604500A22C2F200400FE041F28464EF
:103B200043F27820C2F20044C2F20040214600F085
:103B3000E3FE42F6B4201222C2F200402146BDE864
:103B4000104016F09DBF000043F29C520138C2F2B3
:103B500000420728937843F08003937000F28F802F
:103B6000DFE800F004458D8D378D767F41F22860C7
:103B70000A68C2F200404B6841F288510078C2F2F4
:103B800000410128C1E900237AD80B8843F2782C40
:103B9000C2F2004C4A8818B28988ACF8003083EA37
:103BA000E033ACF80220A3EBE030ACF80A1080B2AE
:103BB0001D2802D80020ACF8000010B282EAE031E3
:103BC000A1EBE03080B21D2859D80020ACF80200EB
:103BD000704741F288520868C2F200424968C2E95F
:103BE000040147F24031C2F200418874704741F24B
:103BF00088500A68C2F2004049689FED271BC0E95F
:103C00000221017B90ED020AB0EEC00AB7EEC00AB5
:103C1000B4EE410BF1EE10FA02DA002908BF70474A
:103C200041F2FC520023C2F20042136041F22862CA
:103C3000C2F20042117043F23831C2F20041427BBD
:103C4000807B0A7043F27821C2F200418875704788
:103C500041F288520868C2F200424968C2E906018E
:103C6000704741F288520868C2F200424968C2E9CE
:103C7000080141F62402C2F20042C2E97E01704707
:103C80000228FCD143F27820C2F20040D1E90012B0
:103C9000C160C0F8122070472D431CEBE2361A3F7A
:103CA00041F2C05045F62942C2F20040CCF28F22C8
:103CB0004BF652030168C0F21E53013101604A43C2
:103CC0004FEA72029A4218D341F6240047F2982133
:103CD000C2F20040C2F2004190ED820A41F28850E7
:103CE000BCEEC00AC2F20040D1F81A1000F8281F3A
:103CF00010EE101A417003210FE047F29820C2F233
:103D000000404179827F41F288500129C2F200408F
:103D100018BF0022062100F8302F41F2C852C2F22B
:103D20000042D0E9003C0220C2E9003CFFF764BE3B
:103D3000017240F21C11C2F200414272C3600A6873
:103D400080ED040A0260506008604160704700BF67
:103D500040F21C1CC2F2004CDCF80030634508BF86
:103D600070472DE9F04F43F200694FF0010E4FF01C
:103D700000089FED490A9FED491AC0F602099FED20
:103D8000482A46E04FF0FF359E6C35449D649D6C9B
:103D9000DE8F93ED045A04EB45340FFA8BF5A41B28
:103DA00003EE104A04EE105A0FFA8AF55C6406EE30
:103DB000105A1D7AB8EEC33AB8EEC44AB8EEC66AD5
:103DC00009EB051523EE003A24EE004A23EE013AF2
:103DD00084EE024A83EE053A83ED0A3A84EE053A10
:103DE00025EE064A83ED0B3A95ED003A84EE033A50
:103DF00095ED014A23EE043A95ED024A23EE043A8A
:103E000095ED034A83EE043A83ED0C3A1B68634553
:103E10003FD0DC688C42F9D15C7A8442F6D19C694F
:103E200093ED053A661CB8EE433A04EE106A9D8E97
:103E30009E61312E83F820E0B8EE444AA3F840504A
:103E400033EE444A84EE033A83ED073A148824BAE9
:103E50004FEA14449C8657883FBA4FEA174BA3F8A1
:103E600036B097883FBA4FEA174AA3F838A0967938
:103E700083F83C6002D8DC87C3F84880651BB5F541
:103E8000805FBFF67FAF15F5805F3FF780AF0125FC
:103E90007AE7BDE8F04F7047DB0FC94000000039FA
:103EA0000000704200BF00BF017A022902D190EDEC
:103EB000090A30E043F2006280ED090AC0F602020E
:103EC00090ED042A02EB011191ED011A91ED023AF5
:103ED00022EE414A24EE035A91ED034A85EE045A3C
:103EE000B4EE450AF1EE10FA07DD22EE015A25EE96
:103EF000035A85EE045A80FE455A85EE020A80ED8B
:103F0000095A91ED002A20EE020A80EE010A80EEA5
:103F1000030A24EE000ABDEEC00A10EE101A418713
:103F2000704700BF00BF00BF2DE9F04F81B042F6DF
:103F3000C4749021C2F2004420461DF06BFC40F294
:103F40001C10C2F200400168814200F09D804FF6D3
:103F5000FA3B43F2540540F2FF1ACFF6FF7BC2F260
:103F6000004501266FF47F786FF47E7C22E000BF6D
:103F700004EB071291F83B7042F80CAF724402F860
:103F80000B704A7ACF6802EB420204EB021202EB9A
:103F9000470291F83A7002F80C704A7A05EB8202F7
:103FA000571C3E700A684F69824207F101074F6152
:103FB000114669D00A7AD1F80C904F7A4FEA490E2F
:103FC000022A1FD107EB4702B9F5027F04EB021268
:103FD0003CD842F818AF724491F83B706FF47B7391
:103FE00002F80B704A7ACF6802EB420204EB02122D
:103FF00002EB470291F83A70D7544A7A05EB8202F5
:10400000971CCEE7B9F5017F07EB4707B0D804EB63
:1040100007124FF400733F017244E3514FF602431D
:10402000CFF6FF7391F83B70D7544A7ACF6802EB12
:10403000420204EB021202EB470291F83A7002F8D6
:1040400008704A7A05EB8207ABE700BF40F2FF2316
:1040500042F8243F4FF6F2337244CFF6FF7391F8E3
:104060003B70D7546FF47A734A7ACF6802EB4202FE
:1040700004EB021202EB470291F83A70D7544A7AE5
:1040800005EB8202D71C8CE743F2540643F29C5B9B
:1040900043F2B85A251D4FF00009C2F20046C2F2A1
:1040A000004BC2F2004A002708E000BF0137009D24
:1040B000032F06F1040605F1300523D0FCB24FF0C2
:1040C0000008009511E000BF9AF8200028B155F8CB
:1040D000041C20462A46FFF78FFC06F8089008F1DA
:1040E00001080C35B8F1040FE0D016F808000128DB
:1040F000F5D1BBF80000C0F3C3100228E4D00328B8
:10410000E2D0E4E701B0BDE8F08F00BF00BF00BF20
:1041100040F21C110020C2F200410A688A420BD012
:1041200092F820300130012B06D1002382F8203094
:1041300012688A42F4D10020C0B27047000000002B
:1041400010B582B08C4604460172114680ED090A12
:104150006FF07F4001904FF0FF300090FC208DF811
:1041600007006A466046C4E90313FFF745FC642074
:104170000AF096FC01200AF093FC40F22410C2F2EF
:1041800000400168216004604C60606002B010BDB6
:1041900080B582B04B1E6FF07F42022B01924FF030
:1041A000FF32009208D8037AF9318DF80710C16800
:1041B0006A461846FFF720FC02B080BD00BF00BF72
:1041C0009FED051A80EE011A9FED042ABBFE411AED
:1041D000A1EE020A704700BFDB0FC940DB0FC9C068
:1041E000826990ED050A0132B8EE400A01EE102A0C
:1041F0008261012280F8202019239FED2E2AB8EE3B
:10420000411A9FED2D3A9FED2E4A30EE411A81EE74
:10421000000A9FED271A80ED070A0A78202A4FEA44
:10422000121280F83C2028BF80F83D20B1F8012010
:1042300052BA5A4300EE102AB8EE400A80EE010A44
:10424000BAEE091A30EE010A80ED100ACA780B792D
:10425000120142EA13124FF4C8735A4301EE102AB6
:10426000B8EE411A81EE021A31EE031A80ED111AEE
:104270009FED121A0A7980EE011A497902F00F02B5
:10428000BBFE411A41EA022101EB8101A1EE040AC1
:10429000890003EE101A80ED100AB8EE433A83EE5F
:1042A000022ABAEE043A32EE031A80ED121A70476F
:1042B00000FF7F4700F07F45000048C3DB0FC94087
:1042C000DB0FC9C000BF00BF40F22412C2F200429F
:1042D0001368934208BF704770B5BAEE091ABAEE78
:1042E000042A4FF0010C4FF0190E9FED360A4FF4DF
:1042F000C8749FED353A9FED354A9FED355A9FEDD5
:10430000356A02E01B68934259D01D698542F9D194
:104310009D6993ED057A0135B8EE477A00EE905A23
:104320009D6183F820C0F8EE600A77EE600A80EEA7
:10433000877A83ED077A0D78202D4FEA151583F8DB
:104340003C5028BF83F83D50B1F801506DBA05FBD1
:104350000EF507EE105AB8EE477A87EE007A37EE80
:10436000017A83ED107ACD780E792D0145EA161584
:10437000654300EE905AF8EE600AC0EE830A70EED4
:10438000840AC3ED110AC7EE050A0D794E7905F0CE
:104390000F05FBFE600A46EA0525A0EE867A05EBCE
:1043A0008505AD0001EE905A83ED107AF8EE611AA2
:1043B000C1EE831A71EE820AC3ED120AA2E7BDE8CC
:1043C0007040704700FF7F4700F07F45000048C302
:1043D000DB0FC940DB0FC9C0BAEE093A00F12C016E
:1043E00080ED0A0AC1EC030AB4EE430A80ED0E2AFE
:1043F000F1EE10FA08DDB2EE093AB4EE430AF1EE3E
:1044000010FA01DAB0EE403A9FED254A80ED0A3A03
:10441000F4EE440AF1EE10FA08DD9FED224AF4EEC4
:10442000440AF1EE10FA01DAB0EE604A9FED1E0A7E
:10443000B5EE401AB0EE403A80ED0B4AF1EE10FABC
:1044400008DD9FED1A3AB4EE431AF1EE10FA01DAE4
:10445000B0EE413AF5EE401A80ED0C3AF1EE10FA6A
:1044600008DDB1EE040AF4EE401AF1EE10FA01DABA
:10447000B0EE610ABAEE041A80ED0D0AB4EE412ADC
:10448000F1EE10FA08DDB2EE041AB4EE412AF1EEB4
:1044900010FA01DAB0EE421A80ED0E1A704700BF32
:1044A000000048C300004843000000000000FA4339
:1044B000BAEE090AB2EE091A90ED0A2AB4EE402AC1
:1044C000F1EE10FA08DDB0EE410AB4EE412AF1EE49
:1044D00010FA01DAB0EE420A90ED0B3A9FED592A3C
:1044E000B4EE423A80ED0A0AF1EE10FA08DD9FEDD3
:1044F000562AB4EE423AF1EE10FA01DAB0EE432A4F
:104500009FED523A90ED0C5AB0EE434AB5EE405A48
:10451000F1EE10FA80ED0B2A08DD9FED4D4AB4EE66
:10452000445AF1EE10FA01DAB0EE454A90ED0D6A08
:10453000B1EE045AB5EE406A80ED0C4AF1EE10FA85
:1045400008DDB0EE453AB4EE456AF1EE10FA01DA54
:10455000B0EE463ABAEE066A90ED0E7A80ED0D3A6C
:10456000B4EE467AF1EE10FA08DDB2EE066AB4EE69
:10457000467AF1EE10FA01DAB0EE476AB0B530EEE5
:10458000010A9FED311A32EE011A9FED327AB3EE35
:10459000092ADFED2F0A20EE070A9FED2F7A21EE80
:1045A000071A41F27C6223EE073AC2F2004280EE23
:1045B000020A9FED2A2A81EE021AB2EE042A24EEA4
:1045C000074A80ED0E6A83EE053AB3EE045A36EEE2
:1045D000022A84EE204ABCEEC00A22EE072ABCEE74
:1045E000C11ABCEEC44A10EE101A82EE052ABCEEC7
:1045F000C33A11EE103A14EE10CA0D0ABCEEC22AEC
:10460000517013EE10EA190991704FEA1C2112EE55
:10461000104A41EA0311037A1570D1704FEA1E1156
:104620005171210A456982F804C041EA0E11917165
:10463000D471C168013545611846BDE8B040FFF747
:10464000DBB900BF000048C3000048430000000081
:104650000000FA4300FF7F4700F07F450000C84399
:10466000B0B540F22415C2F200452C68AC4205D02A
:104670002046FFF71DFF2468AC42F9D1B0BD00BF52
:1046800040F224110020C2F200410A688A420BD095
:1046900092F820300130012B06D1002382F820301F
:1046A00012688A42F4D10020C0B2704700000000B6
:1046B00070B58CB001910821049188218DF82810E3
:1046C0000025CDE90255059504460895CDF82950F9
:1046D0000B950BF051FC00BF000608D120466E1C64
:1046E0000BF04AFC122D3546F6D90CB070BD01A96D
:1046F0000AAA20460BF0C8F90028F6D0FBF754FFB1
:104700000CB070BD00BF00BF0A78813A252A00F2C4
:104710005780DFE802F0B8555555555555B35555F6
:1047200055555555555555555555555555555590FE
:1047300055745655555513135555551380B54FF0AF
:10474000010E80F800E04B7840F2010C0373CFF6C5
:10475000FF7C8B78CA7803EB43131B0B43EA0222DE
:1047600002858A884285828D0286C98881858B1A56
:10477000B3F5004F05DA0CF50042934204DA4FF02E
:10478000FF3E826B72448263826B9FED431A02FB91
:104790000C11C28D891A416343F20461C2F20041D7
:1047A00091ED0D0AB8EEC00A20EE010ABDEEC00A76
:1047B00010EE101A81870021C0F83E10BDE880403D
:1047C00070474A7802738A78CB7802EB4212D20A99
:1047D00042EA0322A0F842200A794B7902EB421206
:1047E000D20A42EA0322A0F844208A79C97902EB6E
:1047F0004212D20A42EA0121A0F84610704740F264
:104800005012C2F20042137823B9CB888385C38546
:10481000012313704A7802738A78CB7802EB421234
:10482000D20A42EA032202858A884285828D028664
:10483000C988818570474A784FF0290C0273CA787D
:104840008B78120212B21A4400EE102A9FED101B50
:10485000B8EEC00B20EE010BBDEEC00B10EE102A1F
:1048600042840A794B7902FB0CF21B0243EA1232B2
:1048700082848A798270C97901717047012101703F
:1048800000218170704700210170704700BF00BF98
:104890007B14AE47E17A843FB400B43B00BF00BF55
:1048A00070B58CB001910025CDE90255082108951D
:1048B000CDE90415A1210A918DF82C20110A8DF85B
:1048C0002D100446ADF82E500BF056FB000608D113
:1048D00020466E1C0BF050FB122D3546F6D90CB05D
:1048E00070BD01A90AAA20460BF0CEF80028F6D028
:1048F000FBF75AFE0CB070BD70B50A784B7863F3C5
:104900000A22A2F5806404804A788B78D20863F387
:104910004A12A2F5806646808A780D79CB789B0092
:1049200043EA921265F38A22A2F5806282800B79B3
:104930004D795B0865F3CA13A3F5806EA0F806E015
:104940000B7C4D7C65F30A23A3F58063038123B2BE
:1049500091F805C04FEA9C15857284EAE3344D79DD
:10496000A4EBE3339BB2C5F30114B3F5257FC47206
:104970002FD833B286EAE335A5EBE3339BB2B3F528
:10498000257F26D813B282EAE332A2EBE33292B259
:10499000B2F5257F1DD80FFA8EF28EEAE233A3EB33
:1049A000E23292B2B2F5257F13D8BCF1400F10D39A
:1049B0007CB1CA8882810A89C2814A8902820A7BC3
:1049C00082744A7BC274C98981820121C175002029
:1049D00070BD30211CF01EFF012070BD00BF00BF64
:1049E0000B2863D8DFE800F0063B232B14424A3340
:1049F0005A1C520E43F27821C2F20041097DC1F3E4
:104A0000801154E043F27821C2F20041097D3AE07E
:104A100043F27821C2F20041497DC1F3800146E0B2
:104A200043F27821C2F20041497DC9093FE043F2D7
:104A30007821C2F20041497D01F0010137E043F2E3
:104A40007821C2F20041497DC1F340012FE043F2D9
:104A50007821C2F20041497DC1F3401127E043F2C1
:104A60007821C2F20041097DC90920E043F2782192
:104A7000C2F20041497DC1F3C00118E043F2782140
:104A8000C2F20041497DC1F3001110E043F27821E8
:104A9000C2F20041097DC1F3401108E043F27821E0
:104AA000C2F20041497DC1F3801100E000210029DC
:104AB00042F6CC6142F60072C2F20041C2F20042FC
:104AC00004D0135C3BB111F820007047002313544D
:104AD00011F8200070470123135451F82020B2FA36
:104AE00082F2520941F8202011F82000704700BFDF
:104AF00042F6CC610022C2F2004141F8202070470A
:104B000010B50446FFF76CFF42F6CC61C2F20041DB
:104B100051F8240001284FF0000018BF10BD41F8E3
:104B20002400012010BD00BFB0B543F2A82C43F211
:104B3000A922C2F2004C43F2782EC2F20042C2F225
:104B4000004E9CF80010012808BF002905D000285D
:104B500008BF012959D1002156E0BEF90440BEF931
:104B6000063014F5FA7F06DAB3F5FA7F03DD117823
:104B700041F001011170B4F5FA7FC8BFB3F5FA7FB7
:104B800003DD117841F0020111704FF60C61B4F5AC
:104B9000FA7FCFF6FF7105DD8B4203DA157845F019
:104BA000040515708C42B8BF8B4203DA137843F0CA
:104BB00008031370BEF90240BEF90030B4F5FA7F65
:104BC00005DD8B4203DA157845F010051570B4F554
:104BD000FA7FC8BFB3F5FA7F02DC8C4206DB0CE03B
:104BE000157845F0200515708C4206DAB3F5FA7F8A
:104BF00003DD157845F0400515708C42B8BF8B4237
:104C000003DA117861F07F0111708CF800001078E0
:104C10008EF81600B0BD00BF43F27821C2F2004109
:104C2000897D084018BF0120704700BF00BF00BF4A
:104C300043F27821C2F20041C87D10B10020C8754E
:104C40007047012070470000113903293BD81368D1
:104C5000526800EE102A01EE103ADFE801F0022659
:104C60000E229FED1B2A0C2121EE021A9FED192A1C
:104C700081EE021A80ED001A22E09FED172A14211E
:104C800080EE020A9FED122A21EE021A9FED113AE0
:104C900020EE020A81EE031A80ED021A80EE030A6A
:104CA0000EE01C2180ED081A0AE09FED092A102170
:104CB00021EE021A9FED072A81EE021A80ED011AF9
:104CC000014481ED000A012180F82410704700BFE3
:104CD000DB0F4940000034436F12834100BF00BF27
:104CE00041F63421C2F2004191F82400012803D199
:104CF000002081F824007047012070470000000068
:104D00002DE9F04F81B041F2647543F2600643F241
:104D1000383943F2E40A04460027C2F20045C2F2E1
:104D20000046C2F20049C2F2004A00BF20794FF0AB
:104D3000010B287120682860C1B2A52940F00981C3
:104D40000521204686F800B000F01AFE002800F089
:104D5000F380B4F805004FF0000BB0F5007F1DDDC7
:104D6000B0F5407F4ADCA0F20120082800F2E48080
:104D7000DFE800F0055A7469E2897D979000E07CD5
:104D800089F80C00D4F80700C9F80000D4F80B101B
:104D9000D4F80F00C9E90110CEE000BFB0F5807F64
:104DA00019DC012800F08880022800F09C8003288C
:104DB00040F0C28041F60802D4F80700C2F2004277
:104DC000D4F80B101060D4F80F005160D4F8131011
:104DD000C2E90201B0E040F2011188427BD0B0F597
:104DE000827F00F0878040F20511884240F0A48065
:104DF000607A41F22961C2F2004180E040F2013163
:104E0000884200F0818040F20331884200F08780C0
:104E100040F20531884240F08F8042F6AC70E11DCF
:104E20001822C2F2004075E0B4F81300AAF80C0092
:104E3000D4F80700CAF80000D4F80B10D4F80F001B
:104E4000CAE9011078E041F2D052D4F80700C2F26A
:104E50000042D4F80B10C2E900016DE043F22C329D
:104E6000D4F80700D4F80B10C2F200425FE043F21E
:104E70008C52D4F80700C2F20042D4F80A10C2F8EB
:104E80000310106058E042F62C61E079C2F2004154
:104E9000087051E043F2AD21E07AC2F2004108719E
:104EA00006E043F2F801B4F80B00C2F2004188803A
:104EB000D4F8070008603FE041F61803D4F8070073
:104EC000C2F20043D4F80B10D4F80E20C3F8072028
:104ED000C3E9000130E041F23471D4F80700C2F2B6
:104EE0000041086028E041F60401E079C2F2004187
:104EF000087021E0607A43F2AA21C2F20041887072
:104F0000B4F80700088017E043F2B420E11D7622D0
:104F1000C2F200401CF065FC4FF0000B0CE042F6C2
:104F2000A072D4F80700D4F80B10C2F2004210604F
:104F3000D4F80F0051609060B5F80100044414F8F3
:104F4000090FA52805D1F8074FF0010708BFD8467B
:104F5000ECE6F80718BFC3465FFA8BF001B0BDE876
:104F6000F08F00BF00BF00BF42F6C461C2F2004133
:104F70000860704700BF00BF70B542F6C4660D46BA
:104F8000C2F2004604463368D3F88820202A07D0AE
:104F900001201AF0ADFB3368D3F888002028F7D140
:104FA000AAB218462146BDE8704015F08DBC00BF7E
:104FB00043F26001C2F20041087810B1002008708D
:104FC000704701207047000070B543F2A05543F2CE
:104FD000B004C2F20045C2F200443421204600264B
:104FE0002E61C5E90066C5E902661CF013FC0020CD
:104FF0000021C4F2702060600020C4F25C21C4F281
:10500000F010A1604CF6CD41E0600020C3F6CC6109
:10501000C4F22A302E74C4E904104CF6CD400021AD
:10502000C4F2BC10C4F22011C5E90210296070BDA1
:1050300043F2383043F2E401C2F20040C2F20041D0
:105040004089098900EE100A01EE101A43F2B000FF
:10505000C2F20040B8EE411AB8EE400A80ED011AE3
:1050600080ED020A704700BF9FED151AB7EEE02AE7
:1050700020EE011A9FED0C3B21EE201AB7EEC00A7C
:105080009FED0B4BB7EEC11A22EE033B20EE044B13
:10509000A3EE021BA4EE001B9FED070B31EE000BED
:1050A000B7EEC00B704700BF000000607880833E01
:1050B000000000803F82803E00000060E3A50840C1
:1050C0004F02063600BF00BFB0B52DED0C8B43F28A
:1050D000383043F2E401C2F20040C2F2004143F230
:1050E000B00441F2986540890989C2F20044C2F2D5
:1050F000004500EE100A01EE101A9FED7F8B002094
:1051000004F118019FED7E9BB8EE411A9FED80BA25
:105110009FED7DABB8EE400A84ED011A84ED020AE2
:10512000A06203E013300431132831D105EB800273
:10513000B2F93A30B2F9362000EE103A02EE102AF7
:10514000B8EEC01AB8EEC23AB8EEC22B21EE0B1A76
:10515000B8EEC00B21EE031A22EE083BB7EEC11ADF
:1051600020EE094BA3EE021BA4EE001B31EE0A0B4E
:10517000B7EEC00B81ED000AB5EE400AF1EE10FA71
:10518000D0DB94ED0A1A31EE000A84ED0A0AC9E771
:1051900094ED050A94ED0A1AB4EE401AF1EE10FAF5
:1051A00002DAB7EE000A4AE09FED5A1A00209FED9E
:1051B0005ACA31EE400AB0EE4CDA9FED581A9FED14
:1051C000582A00BF29184C304C28B1F93A20B1F9BF
:1051D000361003EE102A04EE101AB8EEC33AB8EEF9
:1051E000C44A23EE015A24EE0B6A24EE027AA5EE9D
:1051F00003DAA6EE03CAA7EE040AE3D0B9EE001A5A
:105200002DEE011A21EE000AACEE0C0AB5EE400AB2
:10521000F1EE10FA06DABEEE000A2CEE000A80EE7D
:105220000D0A0CE0B1EEC01AB4EE411AF1EE10FA1C
:105230005AD631EE4C0A3DEE0D1A80EE010AB5F950
:105240003A00B5F9861084ED0B0A01EE100A02EE61
:10525000101A04F11401B8EEC11AB8EEC22A20EEF9
:10526000011A20EE022ABDEEC11ABDEEC22A11EECD
:10527000100A688712EE100AA5F886000020A062C6
:1052800005EB800213301328B2F93A30B2F9362018
:1052900000EE103A02EE102AB8EEC01AB8EEC23A8A
:1052A000B8EEC22B21EE0B1AB8EEC00B21EE031A9A
:1052B00022EE083BB7EEC11A20EE094BA3EE021B0B
:1052C000A4EE001B31EE0A0BB7EEC00B81ED010A14
:1052D00001F1040194ED0A1A31EE000A84ED0A0A84
:1052E000CED0BDEC0C8BB0BD1DF026F9B0EE401A4F
:1052F0009FE700BF00BF00BF000000607880833ED2
:10530000000000803F82803E00000060E3A508406E
:105310004F0206361B2FC54000000000FC1104346C
:10532000C3031CB400BF00BFB0B52DED028B43F228
:10533000383043F2E401C2F20040C2F2004143F2CD
:10534000B0059FED5D3A40890989C2F2004500EE43
:10535000100A01EE101A41F29861002005F11802BE
:10536000C2F20041B8EE411AA862B8EE402A85EDBB
:10537000011A9FED4B0B85ED022A9FED4B1B9FED14
:105380004C2B03E013300432132831D101EB80039E
:10539000B3F93A40B3F9363004EE104A06EE103A4B
:1053A000B8EEC45AB8EEC67AB8EEC66B25EE035A0C
:1053B000B8EEC44B25EE075A26EE007BB7EEC55A71
:1053C00024EE018BA7EE065BA8EE045B35EE024BE4
:1053D000B7EEC44B82ED004AB5EE404AF1EE10FA4A
:1053E000D0DB95ED0A5A35EE044A85ED0A4AC9E745
:1053F00095ED050A9FED311A31EE400AA1F1120038
:105400009FED2F8A01219FED2F1A9FED2F2A9FEDEF
:105410002F3A00BF30F94C2FB0EE486A93B205EE38
:10542000102A04EE103A002AB8EEC55AB8EE444AE3
:10543000A5EE028AA4EE016A25EE034AA4EE050A4F
:1054400036FE088A0139E5D09FED211A20EE010AC7
:10545000A8EE080AB5EE400AF1EE10FA06DABEEE42
:10546000000A9FED1D1A28EE000A0AE0B1EEC01AEC
:10547000B4EE411AF1EE10FA0AD631EE480A9FED69
:10548000151A80EE010A85ED0B0ABDEC028BB0BD4A
:105490001DF052F8B0EE401AEFE700BF00BF00BFAA
:1054A000000000607880833E000000803F82803EE4
:1054B00000000060E3A508404F0206361B2FC540E0
:1054C000000000004F0286364F0286B6FC110434FD
:1054D000C3039CB5C3031C35C3039C3400BF00BF8A
:1054E000016843F2A05200EE101AC2F2004243F2E9
:1054F000B00C406892ED021A92ED032A30EE410A98
:10550000C2F2004C32EE411A116001238CF83030A7
:10551000506080EE010A9FED051A20EE010ABCEEF4
:10552000C00A10EE101A1174704700BF0000C84284
:1055300043F2B001C2F2004191F8300018B10020EE
:1055400081F8300070470120704700000000000023
:10555000B0B52DED048B47F298240146C2F2004409
:105560001C2204F120001CF03CF994F83B00CC28EC
:105570000ED194F8390094F8551081EA0002920691
:105580000BD12268013222600B2A06D3022000E0F0
:1055900001202071BDEC048BB0BD94ED080A00F031
:1055A0003F0510EE103A01F0C001294484F855106F
:1055B0000122E27723F000410022B1F1FF4F40F2D7
:1055C00001012271C7F68071226094F83A20A27717
:1055D00002D884ED0F0A01E0E26B226294ED090A21
:1055E00010EE102A22F000428A4202D284ED100A04
:1055F00001E0226C626294ED0A0A10EE102A22F099
:1056000000428A4202D284ED110A01E0626CA26279
:1056100094ED0C0A10EE102A22F000428A4202D2C7
:1056200084ED130A01E0E26C226394ED0D0A10EEA2
:10563000102A22F000428A4202D284ED140A01E0CC
:10564000216D616340B241F62405B0F1FF3FC2F223
:10565000004502DD0020607176E094ED090A9FEDBF
:10566000721A80EE010A94ED081A9FED6D9A0120DE
:1056700081EE091A9FED6B8A20EE082A6071C4F84A
:105680000600D5ED120A21EE080A9FED681A82FE87
:10569000011A10EE101A11EE100A9FED651AC4F8E7
:1056A0000A10C4F80E0000F0CBFAB0EEC00A9FED6D
:1056B000611AB4EE410AF1EE10FA02DDA86CC4F8EA
:1056C0000A00D4F80A0094ED0B2A94ED0A0A01EEC0
:1056D000100A80EE090A95ED123A82EE092A33EE9D
:1056E000411A20EE083A22EE080AB0EEC11A13EE73
:1056F000100AC4F8120010EE100AB4EE431AF1EECC
:1057000010FAC4F816001EDAD4F80E0095ED382A07
:1057100001EE100A32EE411AB0EEC11AB4EE401A90
:10572000F1EE10FA0FDAB7EE001A94ED0C0AB4EEAF
:10573000410AF1EE10FA68D0B0EE001AB4EE410A58
:10574000F1EE10FA61D00020C4F81A00D4F80A0073
:1057500095ED121A00EE100AD4F81200002147F25B
:105760009422C2F2004231EE400A01EE100AD4F84F
:105770000E0002EE100AD4F81600B0EEC00AB4EE25
:10578000410A95ED380A30EE420A01EE100AF1EEB8
:1057900010FAB8BF0121B0EEC00A00201170B4EEBB
:1057A000410AB7EE001AF1EE10FA94ED0C0AB8BFF8
:1057B0000120B4EE410AF1EE10FA507006D0B0EEBE
:1057C000001AB4EE410AF1EE10FA06D141F260700F
:1057D000C2F2004001680131016047F21430C2F2A8
:1057E00000400178012904D16179002904BF022118
:1057F00061716179017041F28850C2F2004001216B
:1058000080F83110BDEC048BB0BD43F2885101200B
:10581000C2F20041C4F81A0008680130086095E738
:1058200000003443DB0F4940000034C3CDCCCCBE74
:10583000DB0FC940A470DD3F80B541F634209FEDF9
:105840003D1AC2F2004047F240329FED3C3AC2F2AC
:10585000004290ED014A90ED000A84EE014A90ED7D
:10586000035A90ED046A80EE012A80EE030A9FED50
:10587000323A85EE015A112086EE011A107024EE9C
:10588000034A42F6C860C2F2004020EE030A21EE4D
:10589000031A537C22EE032A80ED000A14EE100A4C
:1058A00025EE035A43F2383C03F01E03C2F805000C
:1058B00011EE100A12EE101AC2F2004CC2F80D00DE
:1058C00041F28850C2F8011015EE101AC2F20040E1
:1058D000C2F809109CF80010D0F818E0C069C2F8AE
:1058E000130003F1600000F07C006429C2F817E0A7
:1058F0004FF0330188BF43F0620011771368507492
:105900002220D07647F21830C2F200400177516869
:10591000036093684160D16883601369C160516915
:10592000C0E904311E2192698261BDE88040FCF724
:1059300083BC00BFDB0F494000003443DB0F49C08C
:1059400047F29821C2F20041C87F10B10020C87709
:10595000704701207047000069B143F2B02C013854
:10596000C0F6020CD2B210F8013F01395A400B04C4
:105970001CF80220F6D11046704700BF00BF00BFE0
:105980004FF00002F0B103291CD3B1F1010C12D089
:1059900010B543F2B02E431EFF22C0F6020E614640
:1059A00013F8014F013962400C041EF80220F7D1B0
:1059B000BDE8104000E0FF2210F80C00101AB0FA09
:1059C00080F0420910467047E8B1032938BF70479C
:1059D000B1F1010C14D010B543F2B02E431EFF22DA
:1059E000C0F6020E614600BFD2B213F8014F013972
:1059F00062400C041EF80220F6D1BDE8104000E021
:105A0000FF2200F80C207047A0B189B143F2B00C1E
:105A10000138C0F6020C00BF10F8013F013983EADB
:105A20000203DBB292B23CF8133083EA1222F3D1C4
:105A300090B270474FF6FF7290B2704700BF00BF40
:105A40004FF0000248B3032927D3B1F1020C18D05C
:105A5000B0B543F2B00E421E4FF6FF73C0F6020E11
:105A6000644600BF12F8015F013C85EA0305EDB210
:105A70009BB23EF8155085EA1323F3D1BDE8B04040
:105A800000E0FF23DBB210F80C209A4207D1084453
:105A900010F8010CB0FA80F042091046704700205F
:105AA000704700BF00BF00BF28B3032938BF70474D
:105AB000B1F1020C18D0B0B543F2B00E421E4FF651
:105AC000FF73C0F6020E644612F8015F013C85EADE
:105AD0000305EDB29BB23EF8155085EA1323F3D1CE
