:020000040800F2
:10000000F0570124E1020008998B0008B97F00082D
:10001000918B000879050008C9B9000800000000AC
:10002000000000000000000000000000D18F000868
:10003000B90B000800000000D18B0008F98F000800
:10004000FB020008FB020008FB020008FB0200089C
:10005000FB020008FB020008FB020008FB0200088C
:10006000FB020008FB020008FB020008F105000883
:1000700001060008110600082106000831060008E4
:100080004106000851060008FB020008D10B0008D9
:10009000E10B0008FB020008FB020008FB0200085D
:1000A000FB020008B1910008FB020008FB020008F7
:1000B000C1910008FB020008FB020008FB020008D7
:1000C000FB020008FB020008FB020008798E000812
:1000D000FB020008899C0008A99C0008C99C000834
:1000E000FB020008FB02000800000000FB02000801
:1000F000FB020008FB020008FB0200086106000882
:10010000FB020008FB020008FB020008FB020008DB
:1001100039930008FB020008FB020008FB020008FC
:10012000710600088106000891060008A106000873
:10013000B1060008FB020008FB020008FB020008F1
:1001400000000000000000000000000000000000AF
:10015000FB020008FB020008FB020008E99C000803
:10016000FB020008FB020008B18B0008A18B00080D
:10017000FB020008C18B0008FB0200080000000021
:10018000FB020008FB020008FB020008FB0200085B
:10019000FB020008FB020008FB020008FB0200084B
:1001A000FB020008FB020008FB0200080000000040
:1001B000FB020008FB020008FB020008FB0200082B
:1001C000FB020008FB020008000000000000000025
:1001D0000000000000000000FB020008000000001A
:1001E000000000000000000000000000000000000F
:1001F0000000000000000000FB020008FB020008F5
:10020000FB020008FB02000800000000FB020008DF
:10021000FB020008FB020008FB020008FB020008CA
:10022000FB02000800000000FB02000800000000C4
:10023000FB020008FB02000800000000FB020008AF
:10024000FB020008FB020008FB020008FB0200089A
:10025000FB020008FB020008FB020008FB0200088A
:10026000FB020008FB020008FB020008FB0200087A
:10027000FB020008FB020008FB020008000000006F
:10028000FB020008FB020008FB020008FB0200085A
:1002900000000000FB020008FB0200080000000054
:1002A00000000000FB020008FB020008FB0200083F
:1002B000699C0008FB020008FB020008F10B000823
:1002C000FB020008FB020008FB020008DFF80CD06C
:1002D00000F0F6F80048004721E50008F057012437
:1002E0000648804706480047FEE7FEE7FEE7FEE7D0
:1002F000FEE7FEE7FEE7FEE7FEE7FEE7F190000817
:10030000CD0200082DE9F05F0546002092469B468D
:1003100088460646814640241BE02846414647461B
:10032000224600F0BDF853465A46C01A914110D3F8
:1003300011461846224600F0A4F82D1A67EB010872
:100340004F4622460120002100F09BF817EB0009E0
:100350004E41201EA4F10104DFDC484631462A4606
:100360004346BDE8F09F2DE9FE4F9A4616008846A9
:10037000054601AC4AD0B8F1020F47D300206060B7
:10038000A8F1010044F8040C4FF0FF3721E001FB15
:10039000065100FB065052469047002805DC54F8F1
:1003A0002700384444F8270013E06068324600FB19
:1003B000065154F8040C00FB065007E00B7890F847
:1003C00000C001F801CB00F8013B521E002AF5D114
:1003D0007F4254F8041C60688142D8DC481C00FB52
:1003E0000659A8EB0100401E676880464745534602
:1003F000324605DA39462846FFF7B5FF4D46BAE7DB
:1004000001464846FFF7AFFFB846B4E7BDE8FE8FA8
:1004100010B5431A934209D28318881803E010F8E4
:10042000011D03F8011D521EF9D210BD40EA01035F
:100430009B0703D009E008C9121F08C0042AFAD29A
:1004400003E011F8013B00F8013B521EF9D210BD48
:10045000D2B201E000F8012B491EFBD27047002206
:10046000F6E710B513460A4604461946FFF7F0FFB3
:10047000204610BD421C10F8011B0029FBD1801A38
:100480007047202A04DB203A00FA02F1002070476E
:100490009140C2F1200320FA03F3194390407047C2
:1004A000202A04DB203A21FA02F00021704721FAC9
:1004B00002F3D040C2F12002914008431946704730
:1004C0001CB509480090094801900546009C06E0CB
:1004D000E06840F0010394E8070098471034AC420C
:1004E000F6D3FFF7F7FE0000AC2C0108DC2C010866
:1004F00070B58C1810F8015B15F0070301D110F8E6
:10050000013B2A1106D110F8012B03E010F8016B12
:1005100001F8016B5B1EF9D12B0705D40023521E95
:100520000DD401F8013BFAE710F8013BCB1A921CFD
:1005300003E013F8015B01F8015B521EF9D5A142FB
:10054000D8D3002070BD00009FED071A80EE011A7D
:100550009FED062A31EE021A9FED052ABBFE411AD5
:10056000A1EE020A704700BFDB0FC94083F9A23D2C
:10057000DB0FC9C000000000FEE700000000000023
:1005800000207047000000000020704700000000BD
:1005900010B547F6184446F68871C2F20044C2F21C
:1005A00000410022204609F07FFD46F28871204676
:1005B000C2F2004109F068FD002010BD00000000FB
:1005C000B0B547F618450446C2F200452146284614
:1005D00009F05AFD284609F033FD20460FF02CFFA4
:1005E0000020B0BD000000000020704700000000A7
:1005F00048F23C20C2F2004000F012BF00000000B0
:1006000048F2B420C2F2004000F00ABF000000002F
:1006100048F24C10C2F2004000F002BF000000009F
:1006200048F2C410C2F2004000F0FABE0000000020
:1006300048F29440C2F2004000F0F2BE0000000018
:1006400048F22C30C2F2004000F0EABE0000000088
:1006500048F2A430C2F2004000F0E2BE0000000008
:1006600048F21C40C2F2004000F0DABE0000000078
:1006700048F25C00C2F2004000F0D2BE0000000070
:1006800048F2D400C2F2004000F0CABE00000000F0
:1006900047F6F460C2F2004000F0C2BE0000000065
:1006A00047F66C70C2F2004000F0BABE00000000D5
:1006B00047F6E470C2F2004000F0B2BE0000000055
:1006C00040F20F42D0F800C0C4F20202944510DCA0
:1006D0006F22C4F20202944520DC3F22C4F20202DF
:1006E000944536DC1022C4F20202944554D02822EC
:1006F0004EE040F26F42C4F2020294451ADC40F22E
:100700003F42C4F2020294452ADC40F21042C4F295
:100710000202944540D040F2284239E09F22C4F2C0
:100720000202944525DC7022C4F20202944533D0C3
:1007300088222DE040F29F42C4F2020294451FDC61
:1007400040F27042C4F20202944525D040F2884241
:100750001EE04022C4F2020294451DD0582217E048
:1007600040F24042C4F20202944515D040F2584291
:100770000EE0A022C4F2020294450DD0B82207E098
:1007800040F2B842C4F20202944505D040F2A042C1
:10079000C4F20202944517D10CF0F8024AF6AB23DA
:1007A000103ACAF6AA23A2FB033109A35F2AC1F3B8
:1007B00002115B5C40F2FF312CEA0101C36588BF86
:1007C00004318165084670472CF0FF01F9E700BF4E
:1007D000000610160006101670B540F26F44D0F8EF
:1007E00000C0C4F20204D0F858E0A44519DC9F25EB
:1007F000C4F20205AC4531DC5725C4F20205AC4514
:1008000056DC1025C4F20205AC4500F09280282584
:10081000C4F20205AC4500F08C804025C4F202050C
:1008200084E045F22F45C5F60205AC452BDC40F2CD
:10083000B745C4F20205AC4548DC40F27045C4F24D
:100840000205AC4575D040F28845C4F20205AC45BE
:100850006FD040F2A045C4F2020567E040F22745A0
:10086000C4F20205AC4540DCA025C4F20205AC454B
:100870005FD0B825C4F20205AC455AD040F210450D
:10088000C4F2020552E045F26B45C5F60205AC45DF
:100890003CDC45F23045C5F60205AC4549D045F291
:1008A0004445C5F60205AC4543D045F258453BE00A
:1008B0005825C4F20205AC453BD07025C4F20205B0
:1008C000AC4536D08825C4F202052FE040F2B84589
:1008D000C4F20205AC452CD045F20845C5F6020528
:1008E000AC4526D045F21C451EE040F22845C4F236
:1008F0000205AC451DD040F24045C4F20205AC45AE
:1009000017D040F25845C4F202050FE045F26C459D
:10091000C5F60205AC450CD045F29445C5F6020576
:10092000AC4506D045F28045C5F60205AC4540F021
:10093000CC80456EC66E002E866E6E601CBFD0E900
:100940001C566E60A44515DC9F24C4F20204A44525
:100950002BDC5724C4F20204A4454EDC1024C4F25C
:100960000204A44576D02824C4F20204A44571D020
:1009700040246BE045F22F44C5F60204A44527DC71
:1009800040F2B744C4F20204A44542DC40F2704491
:10099000C4F20204A4455DD040F28844C4F20204CB
:1009A000A44557D040F2A04450E040F22744C4F29E
:1009B0000204A4453CDCA024C4F20204A44549D0AE
:1009C000B824C4F20204A44544D040F210443DE0EF
:1009D00045F26B44C5F60204A44553DC45F23044AD
:1009E000C5F60204A4455FD045F24444C5F60204AE
:1009F000A44559D045F2584452E05824C4F20204A8
:100A0000A44527D07024C4F20204A44522D088242F
:100A10001CE040F2B844C4F20204A4451AD045F2E6
:100A20000844C5F60204A4453ED045F21C4437E014
:100A300040F22844C4F20204A4450BD040F24044E2
:100A4000C4F20204A44505D040F25844C4F20204A2
:100A5000A4453AD18468C06D00F01F003F2505FA17
:100A600000F0CEF80800DCF80000402C20F48020D4
:100A7000CCF80000CCF8043023D1CCF80820CCF816
:100A80000C1070BD45F26C44C5F60204A4450BD0B1
:100A900045F28044C5F60204A44505D045F29444CD
:100AA000C5F60204A44510D1C46D012504F01F044D
:100AB000806805FA04F4CEF804404028CCF80430ED
:100AC000DBD0CCF80810CCF80C2070BD0000000082
:100AD00080B582B041F2040ECEF2000EDEF80020A6
:100AE000009246F26822DDF800C0C2F200420368BC
:100AF000126800990160DEF8000046F2742EC2F21E
:100B0000004E01900199DEF80000814206D246F2C3
:100B10007820C2F20040016801310160ACEB0300B3
:100B200001EE102A00EE100A0198CEF80000B8EE8F
:100B3000411AB8EE400A80EE010A02B080BD000002
:100B40004EF6FC51CEF200010A6842F080720A6053
:100B500041F200010022CEF200014A600B6843F02E
:100B600001030B6044F24021C0F20F01484346F2FA
:100B70006821C2F20041086044F6D351C1F262011B
:100B8000A0FB01134DF68361C4F21B31A0FB0101F0
:100B900046F26C20C2F200409B090360880C46F2CA
:100BA0007021C2F20041086046F27820C2F2004093
:100BB0000260704700000000704700000000000065
:100BC000EFF3108072B600BFFEE7000000000000E7
:100BD00048F22050C2F2004002F002B800000000CB
:100BE00048F2C050C2F2004001F0FABF000000001D
:100BF00048F26060C2F2004001F0F2BF0000000065
:100C0000F0B5D1E900C4D1F808E00D692CB14EEA85
:100C10000C04254345F0804C03E045EA8C4444EA4B
:100C20000E0C856ED0F88470D1E907466B438D6950
:100C300044EA0660D1F814E0CC68054307EB830072
:100C400045EA0E0647F823C046EA04434360CB68F2
:100C5000002B08BFF0BD42F2F61C08300132002321
:100C6000C0F6010CD71857F8017CC750CF68043381
:100C70001CF80770BB42F5D3F0BD00000000000077
:100C800000F1080280ED000A00214160C2EC040A74
:100C9000C0ED072A80ED083A81617047000000002E
:100CA0002DE9F041044602F07BFD14B3054694F8AB
:100CB0003500022820D140F20F472668C4F202070F
:100CC00040F26F48BE426FF00E00C4F2020817DC1B
:100CD0006F21C4F202018E4223DC3F21C4F20201E3
:100CE0008E4239DC1021C4F202018E4258D02821F4
:100CF00051E00120BDE8F08180206065012037E2ED
:100D000046451ADC40F23F41C4F202018E422ADC21
:100D100040F21041C4F202018E4241D040F228411B
:100D200039E09F21C4F202018E4225DC7021C4F219
:100D300002018E4234D088212DE040F29F41C4F25E
:100D400002018E421FDC40F27041C4F202018E4269
:100D500026D040F288411EE04021C4F202018E42BA
:100D60001ED0582117E040F24041C4F202018E42E9
:100D700016D040F258410EE0A021C4F202018E428A
:100D80000ED0B82107E040F2B841C4F202018E4211
:100D900006D040F2A041C4F202018E42314607D192
:100DA0003146306820F01E0041F8140B6FF08000CF
:100DB0000A68464500EA0200086019DC9F20C4F278
:100DC0000200864231DC5720C4F20200864256DC23
:100DD0001020C4F20200864200F091802820C4F264
:100DE0000200864200F08B804020C4F2020084E0C2
:100DF00045F22F40C5F6020086422BDC40F2B74098
:100E0000C4F20200864248DC40F27040C4F20200A4
:100E1000864274D040F28840C4F2020086426ED00E
:100E200040F2A040C4F2020067E040F22740C4F262
:100E30000200864240DCA020C4F2020086425ED05E
:100E4000B820C4F20200864259D040F21040C4F2E9
:100E5000020052E045F26B40C5F6020086423CDCDF
:100E600045F23040C5F60200864248D045F2444083
:100E7000C5F60200864242D045F258403BE0582079
:100E8000C4F2020086423AD07020C4F202008642C8
:100E900035D08820C4F202002FE040F2B840C4F2FE
:100EA000020086422BD045F20840C5F60200864279
:100EB00025D045F21C401EE040F22840C4F202005A
:100EC00086421CD040F24040C4F20200864216D056
:100ED00040F25840C4F202000FE045F26C40C5F603
:100EE000020086420BD045F29440C5F602008642CD
:100EF00005D045F28040C5F60200864204D1206E3E
:100F0000016821F480710160306820F001003060D8
:100F10003068C0070BD002F043FC401B0628F7D313
:100F200020206065032084F83500012020E120683E
:100F30000821B8424FF03F0210DC6F23C4F20203D5
:100F400098421CDC3F23C4F20203984232DC102397
:100F5000C4F20203984251D028234AE040451ADCEB
:100F600040F23F43C4F2020398422ADC40F21043AD
:100F7000C4F20203984241D040F2284339E09F2353
:100F8000C4F20203984225DC7023C4F202039842A3
:100F900034D088232DE040F29F43C4F202039842EC
:100FA0001FDC40F27043C4F20203984226D040F2A4
:100FB00088431EE04023C4F2020398421ED0582307
:100FC00017E040F24043C4F20203984216D040F2C8
:100FD00058430EE0A023C4F2020398420ED0B82377
:100FE00007E040F2A043C4F20203984206D040F268
:100FF000B843C4F20203984240F0BF80D4E91637E8
:1010000007F01F07404502FA07F25A5019DC9F21EA
:10101000C4F20201884231DC5721C4F20201884245
:1010200056DC1021C4F20201884200F09180282190
:10103000C4F20201884200F08B804021C4F2020118
:1010400084E045F22F41C5F6020188422BDC40F2D4
:10105000B741C4F20201884248DC40F27041C4F258
:101060000201884274D040F28841C4F202018842F1
:101070006ED040F2A041C4F2020167E040F2274185
:10108000C4F20201884240DCA021C4F2020188427D
:101090005ED0B821C4F20201884259D040F210411A
:1010A000C4F2020152E045F26B41C5F602018842EA
:1010B0003CDC45F23041C5F60201884248D045F299
:1010C0004441C5F60201884242D045F258413BE016
:1010D0005821C4F2020188423AD07021C4F20201C0
:1010E000884235D08821C4F202012FE040F2B84195
:1010F000C4F2020188422BD045F20841C5F6020134
:10110000884225D045F21C411EE040F22841C4F23D
:10111000020188421CD040F24041C4F202018842E0
:1011200016D040F25841C4F202010FE045F26C4182
:10113000C5F6020188420BD045F29441C5F6020182
:10114000884205D045F28041C5F6020188420BD1A4
:10115000616EA26EE06E4A6030B1016821F4807168
:101160000160D4E91C014160012084F835000020B1
:10117000002184F83410BDE8F081042101223DE70C
:10118000F0B190F83510022918D180B540F20F4225
:101190000168C4F20202914214DC6F23C4F202031C
:1011A000994224DC3F23C4F2020399423ADC102323
:1011B000C4F20203994258D0282352E080214165AD
:1011C0000120704740F26F43C4F2020399421ADCD7
:1011D00040F23F43C4F2020399422ADC40F210433A
:1011E000C4F20203994240D040F2284339E09F23E1
:1011F000C4F20203994225DC7023C4F2020399422F
:1012000033D088232DE040F29F43C4F20203994279
:101210001FDC40F27043C4F20203994225D040F231
:1012200088431EE04023C4F2020399421DD0582394
:1012300017E040F24043C4F20203994215D040F255
:1012400058430EE0A023C4F2020399420DD0B82304
:1012500007E040F2B843C4F20203994205D040F2DD
:10126000A043C4F2020399426ED191424FF00402AE
:1012700080F8352010DC6F20C4F20200814220DCAF
:101280003F20C4F20200814236DC1020C4F202008A
:10129000814253D028204EE040F26F40C4F2020059
:1012A00081421ADC40F23F40C4F2020081422ADC53
:1012B00040F21040C4F2020081423FD040F2284088
:1012C00039E09F20C4F20200814225DC7020C4F284
:1012D0000200814232D088202DE040F29F40C4F2CB
:1012E000020081421FDC40F27040C4F202008142E1
:1012F00024D040F288401EE04020C4F20200814227
:101300001CD0582017E040F24040C4F20200814255
:1013100014D040F258400EE0A020C4F202008142F6
:101320000CD0B82007E040F2B840C4F2020081427D
:1013300004D040F2A040C4F202008142086820F0CC
:1013400001000860002080BD0A6822F00E020A60D9
:1013500045F25742C5F6020291420A6822F00102A4
:101360000A600EDC45F22F42C5F60202914217DCFC
:1013700045F20842C5F60202914226D045F21C42CF
:101380001FE045F27F42C5F60202914211DC45F2B0
:101390005842C5F60202914217D045F26C4210E065
:1013A00045F23042C5F6020291420ED045F2444267
:1013B00007E045F29442C5F60202914205D045F29B
:1013C0008042C5F6020291421AD1D0E9181CD0E938
:1013D00016E30A6822F480720A6003F01F010122FA
:1013E00002FA01F1CEF80410816ECCF80410C16E3F
:1013F00031B10A6822F480720A60D0E91C124A6096
:10140000012180F83510016D0022002980F8342078
:1014100098D08847002080BD406D704700000000D4
:101420002DE9F04381B00021009146F2081148F205
:10143000B513C2F20041C1F64E33856D40F26F49DB
:101440000A680168C4F202092E68A2FB0328494514
:101450002B6815DC9F22C4F2020291422BDC57223A
:10146000C4F2020291424FDC1022C4F20202914205
:1014700078D02822C4F20202914273D040226CE05C
:1014800045F22F42C5F60202914227DC40F2B742F4
:10149000C4F20202914243DC40F27042C4F2020202
:1014A00091425FD040F28842C4F20202914259D088
:1014B00040F2A04251E040F22742C4F202029142BF
:1014C0003DDCA022C4F2020291424BD0B822C4F209
:1014D0000202914246D040F210423EE045F26B4299
:1014E000C5F60202914275DC45F23042C5F60202B1
:1014F000914200F0828045F24442C5F602029142D8
:101500007BD045F2584273E05822C4F20202914265
:1015100028D07022C4F20202914223D088221CE01B
:1015200040F2B842C4F2020291421BD045F2084296
:10153000C5F60202914260D045F21C4258E040F2EA
:101540002842C4F2020291420CD040F24042C4F25E
:101550000202914206D040F25842C4F20202914285
:1015600040F02D84C26D082302F01F0293403342E5
:1015700000F0168140F20F44C4F20204A1424FF081
:10158000040413DC6F27C4F20207B94200F3918010
:101590003F27C4F20207B94200F3D2801027C4F2F9
:1015A0000207B94200F0F0802827E8E0494500F33F
:1015B0008C8040F23F47C4F20207B94200F3C78073
:1015C00040F21047C4F20207B94200F0DD8040F259
:1015D0002847D4E045F26C42C5F6020291420CD095
:1015E00045F28042C5F60202914206D045F294428D
:1015F000C5F60202914240F0E2830E68C26D02F02D
:101600001F02042707FA02F41C4218BF16F0040751
:101610002CD1022707FA02F41C4218BF16F0020769
:1016200062D1D3401B0740F1CA8316F0080300F0D3
:10163000C68340F20F43C4F2020399426FF01C03C9
:1016400000F318836F27C4F20207B94200F35483F2
:101650003F27C4F20207B94200F3B4831027C4F253
:101660000207B94200F0D3832827CAE332046C6032
:101670005ED4B20600F1A18340F20F42C4F202022E
:1016800091426FF0080200F3E3826F23C4F2020379
:10169000994200F302833F23C4F20203994200F30C
:1016A00047831023C4F20203994200F08383282366
:1016B0007AE39F27C4F20207B94251DC7027C4F2D3
:1016C0000207B94260D0882759E040F29F47C4F230
:1016D0000207B9424BDC40F27047C4F20207B9423C
:1016E00052D040F288474AE032046C6000F19C829C
:1016F000B20600F1CF8340F20F42C4F202029142DF
:101700006FF0140200F3D6826F23C4F202039942F1
:1017100000F315833F23C4F20203994200F38C8344
:101720001023C4F20203994200F0AB832823A2E302
:10173000F10300F14283816C002940F079833EE39C
:101740004027C4F20207B9421ED0582717E040F2E2
:101750004047C4F20207B94216D040F258470EE0A3
:10176000A027C4F20207B9420ED0B82707E040F222
:10177000A047C4F20207B94206D040F2B847C4F20B
:101780000207B94218BF08240F68274208D00F6823
:1017900027F004070F60AB60436D43F0010343651E
:1017A0000123934033426FD040F20F47C4F2020747
:1017B000B94210DC6F27C4F20207B9421CDC3F2794
:1017C000C4F20207B94232DC1027C4F20207B94260
:1017D00051D028274AE049451ADC40F23F47C4F27D
:1017E0000207B9422ADC40F21047C4F20207B942AC
:1017F00041D040F2284739E09F27C4F20207B9429E
:1018000025DC7027C4F20207B94234D088272DE0C6
:1018100040F29F47C4F20207B9421FDC40F2704712
:10182000C4F20207B94226D040F288471EE04027A2
:10183000C4F20207B9421ED0582717E040F24047D1
:10184000C4F20207B94216D040F258470EE0A02772
:10185000C4F20207B9420ED0B82707E040F2B847F9
:10186000C4F20207B94206D040F2A047C4F2020710
:10187000B94240F0E1814F6907F0800424B1AB60C8
:10188000436D43F0020343650423934033426FD01A
:1018900040F20F47C4F20207B94210DC6F27C4F2CE
:1018A0000207B9421CDC3F27C4F20207B94232DC0E
:1018B0001027C4F20207B94251D028274AE049450F
:1018C0001ADC40F23F47C4F20207B9422ADC40F278
:1018D0001047C4F20207B94241D040F2284739E02C
:1018E0009F27C4F20207B94225DC7027C4F2020721
:1018F000B94234D088272DE040F29F47C4F2020756
:10190000B9421FDC40F27047C4F20207B94226D048
:1019100040F288471EE04027C4F20207B9421ED0B9
:10192000582717E040F24047C4F20207B94216D0E8
:1019300040F258470EE0A027C4F20207B9420ED089
:10194000B82707E040F2B847C4F20207B94206D010
:1019500040F2A047C4F20207B94240F073810F6819
:1019600007F0020424B1AB60436D43F00403436508
:10197000102303FA02F232427ED040F20F43C4F247
:10198000020399424FF0080310DC6F27C4F20207EC
:10199000B9421CDC3F27C4F20207B94232DC1027EF
:1019A000C4F20207B94251D028274AE049451ADC5F
:1019B00040F23F47C4F20207B9422ADC40F2104726
:1019C000C4F20207B94241D040F2284739E09F27CC
:1019D000C4F20207B94225DC7027C4F20207B942FB
:1019E00034D088272DE040F29F47C4F20207B94265
:1019F0001FDC40F27047C4F20207B94226D040F221
:101A000088471EE04027C4F20207B9421ED058277B
:101A100017E040F24047C4F20207B94216D040F244
:101A200058470EE0A027C4F20207B9420ED0B827EB
:101A300007E040F2A047C4F20207B94206D040F2E4
:101A4000B847C4F20207B94218BF04230F681F4207
:101A500012D0AA600A6852030A6806D4D20506D4D6
:101A60000A6822F008020A6001E0110352D4016CF6
:101A700011B1044688472046C16D01F01F022021A4
:101A800001FA02F3334200F0A68040F20F470168EA
:101A9000C4F202071026B94210DC6F27C4F2020715
:101AA000B9421CDC3F27C4F20207B94236DC1027DA
:101AB000C4F20207B94255D028274EE049451ADC46
:101AC00040F23F47C4F20207B9422EDC40F2104711
:101AD000C4F20207B94245D040F228473DE09F27B3
:101AE000C4F20207B94229DC7027C4F20207B942E6
:101AF00038D0882731E040F29F47C4F20207B9424C
:101B000023DC40F27047C4F20207B9422AD040F207
:101B1000884722E0816C0029ABD1ADE74027C4F2B1
:101B20000207B9421ED0582717E040F24047C4F2DE
:101B30000207B94216D040F258470EE0A027C4F27F
:101B40000207B9420ED0B82707E040F2A047C4F21E
:101B50000207B94206D040F2B847C4F20207B942C0
:101B600018BF02260F68374235D0AB6090F8353089
:101B7000042B0B6816D123F016030B604B6923F07E
:101B800080034B61036C0BB9836C1BB10B6823F0B2
:101B900008030B603F219140A960012180F83510B6
:101BA000016D3FE15A030A680CD4D2050ED40A68CD
:101BB00022F010020A60012180F83510002180F81F
:101BC000341003E0110301D4416C00E0C16B11B18A
:101BD000044688472046416D002900F0F080416DA1
:101BE000C9071CD0042180F8351001684FEA9822FB
:101BF0000B6823F001030B60009B013300939342B9
:101C000002D80B68DB07F7D10968C9074FF0030159
:101C100008BF012180F83510002180F83410C16C14
:101C2000002940F00581CAE0F10300F13381416CE5
:101C3000002940F0FD80C2E000240F68002C7FF4F2
:101C40001EAE21E600240F68002C7FF48CAE8FE6D8
:101C5000494542DC40F23F43C4F2020399427CDC36
:101C600040F21043C4F20203994200F0A38040F214
:101C7000284399E049454CDC40F23F47C4F2020753
:101C8000B94200F3A68040F21047C4F20207B942FD
:101C900000F0BD8040F22847B3E09F23C4F2020366
:101CA000994263DC7023C4F20203994200F08280FF
:101CB000882379E0494560DC40F23F43C4F20203E7
:101CC000994200F3C08040F21043C4F202039942EB
:101CD00000F0D78040F22843CDE040F29F43C4F2A9
:101CE0000203994258DC40F27043C4F20203994265
:101CF00060D040F2884357E09F27C4F20207B94200
:101D000070DC7027C4F20207B94200F08080882797
:101D100077E040F29F47C4F20207B94269DC40F223
:101D20007047C4F20207B94271D040F2884768E0B8
:101D30004023C4F2020399423CD0582334E09F234D
:101D4000C4F20203994200F387807023C4F20203B5
:101D5000994200F0968088238DE040F24043C4F21F
:101D60000203994226D040F258431DE0A023C4F25A
:101D7000020399421ED0B82316E040F29F43C4F2FA
:101D8000020399426FDC40F27043C4F202039942AD
:101D900077D040F288436EE040F2A043C4F20203E1
:101DA000994207D040F2B843C4F20203994218BFE7
:101DB0006FF004020B681A400A60016CC1BB01B0ED
:101DC000BDE8F0834027C4F20207B9421FD058276C
:101DD00017E040F24047C4F20207B94217D040F280
:101DE00058470EE0A027C4F20207B9420FD0B82727
:101DF00007E040F2A047C4F20207B94207D040F220
:101E0000B847C4F20207B94218BF6FF00E030F685B
:101E10003B400B60012101FA02F26A60416580F8E3
:101E20003510C16C00294FF0000280F83420C6D074
:101E300001B0BDE8F04308474023C4F202039942D1
:101E40001FD0582317E040F24043C4F202039942E6
:101E500017D040F258430EE0A023C4F20203994287
:101E60000FD0B82307E040F2A043C4F20203994226
:101E700007D040F2B843C4F20203994218BF6FF092
:101E80000A020B681A400A60012180F8351000210F
:101E900080F83410C16B0029CAD190E7000000001F
:101EA0002DE9F041044601F07BFCECB140F26F48B3
:101EB00005462068C4F20208404518DC9F21C4F2A0
:101EC000020188422EDC5721C4F20201884254DC10
:101ED0001021C4F2020188427ED02821C4F20201FE
:101EE000884279D0402172E00120BDE8F08145F2BE
:101EF0002F41C5F60201884227DC40F2B741C4F207
:101F00000201884245DC40F27041C4F2020188427D
:101F100062D040F28841C4F2020188425CD040F2B3
:101F2000A04154E040F22741C4F20201884240DC63
:101F3000A021C4F2020188424ED0B821C4F20201AD
:101F4000884249D040F2104141E045F26B41C5F66C
:101F50000201884200F3B88045F23041C5F6020123
:101F6000884200F0C38045F24441C5F60201884230
:101F700000F0BC8045F25841B4E05821C4F202019F
:101F8000884229D07021C4F20201884224D08821DD
:101F90001DE040F2B841C4F2020188421CD045F273
:101FA0000841C5F60201884200F0A08045F21C41BC
:101FB00098E040F22841C4F2020188420CD040F27D
:101FC0004041C4F20201884206D040F25841C4F2B6
:101FD0000201884240F0CE80022184F835100021B1
:101FE00084F83410016821F0010101602068016863
:101FF000C9070CD001F0D4FB401B0628F6D32020E3
:102000006065032084F835000120BDE8F08148F2C6
:102010003F0204F108070168CFF6106211406669BB
:102020008CCF1143D4F818C01943E3693943276AA8
:102030000E43616A3343042943EA070343EA0C036E
:1020400003D1D4E90B7637433B436568A5F12906F4
:10205000292E00F2A1800127DFE806F015151515DD
:1020600015159E9E9E9E9E9E9E9E9E9E9E9E9E9EA2
:102070009E9E151515159E9E9E9E15159E9E9E9EB6
:102080009E9E15151515002F18BF43F480130429C3
:102090000360426922F0070241EA020140F09080A9
:1020A000D4E90A53002B41EA050100F08980BCF510
:1020B000005F61D0BCF1000F6AD1022D74D0012DF8
:1020C00060D0002D70D072E045F26C41C5F602017F
:1020D00088420BD045F28041C5F60201884205D006
:1020E00045F29441C5F60201884243D104F1080E3D
:1020F000022184F83510002184F834100168A369A6
:102100009EE80450A2F18005E769B5FA85F5666995
:102110006D09402A4FEA853543EA07026FF3101133
:1021200042EA060208BF102541EADC0142EA0E023B
:102130002943236A41EAD2014AF6F832CAF2FD7213
:102140004CF6CD470244CCF6CC4741EA1311A2FB32
:10215000072301606FF0030000EA9300E06520466A
:10216000FEF7AEFAE16D012201F01F0102FA01F162
:10217000416030E0402043E7032D18D8DFE805F048
:102180000A140A02A3F1C072B2FA82F252090FE0F5
:10219000032D08D201220BE025F00302743AB2FAB3
:1021A00082F257096FE702D1C3F3006200E0002218
:1021B00032B140206065012084F83500BDE8F0812F
:1021C00041612046FEF77CFAE16D3F2201F01F01DC
:1021D00002FA01F181602068404519DC9F21C4F2B8
:1021E0000201884231DC5721C4F20201884256DCE8
:1021F0001021C4F20201884200F092802821C4F22A
:102200000201884200F08C804021C4F2020184E087
:1022100045F22F41C5F6020188422BDC40F2B7415E
:10222000C4F20201884248DC40F27041C4F202016B
:10223000884275D040F28841C4F2020188426FD0D2
:1022400040F2A041C4F2020167E040F22741C4F22B
:102250000201884240DCA021C4F2020188425FD022
:10226000B821C4F2020188425AD040F21041C4F2AF
:10227000020152E045F26B41C5F6020188423CDCA6
:1022800045F23041C5F60201884249D045F2444149
:10229000C5F60201884243D045F258413BE058213F
:1022A000C4F2020188423BD07021C4F2020188428C
:1022B00036D08821C4F202012FE040F2B841C4F2C6
:1022C000020188422CD045F20841C5F6020188423D
:1022D00026D045F21C411EE040F22841C4F2020122
:1022E00088421DD040F24041C4F20201884217D01A
:1022F00040F25841C4F202010FE045F26C41C5F6CC
:10230000020188420CD045F29441C5F60201884290
:1023100006D045F28041C5F60201884240F0D080E7
:1023200045F2574C45F6FC0EC5F6020CC5F6020EFA
:1023300060450EDC45F22F43C5F60203984217DCD8
:1023400045F20843C5F60203984226D045F21C43E5
:102350001FE045F27F43C5F60203984211DC45F2C7
:102360005843C5F60203984217D045F26C4310E07B
:1023700045F23043C5F6020398420ED045F244437D
:1023800007E045F29443C5F60203984205D045F2B2
:102390008043C5F60203984250D100F0FC034CF68E
:1023A000CD47083BCCF6CC47A3FB0737AEF1FC0585
:1023B000AEF17C063B0905EB83022266A26803F0BE
:1023C0001F030127802A666607FA03F2A26601D17D
:1023D000002262606368A56ED4E91826DFB2591E38
:1023E00007291760756015D87E1E072E62D86045D4
:1023F0000EF1440213DC45F22F41C5F6020188427A
:102400003CDC45F20841C5F6020188424BD045F25A
:102410001C4144E000206067C4E91B0050E045F225
:102420007F41C5F60201884231DC45F25841C5F6CC
:102430000201884237D045F26C4130E000F0F803E9
:102440004AF6AB27103BCAF6AA27A3FB073740F290
:102450000F43C4F2020308253E09984203F1AA0281
:10246000334688BF05EB171340F600059042C4F2CF
:10247000020528BF334605F180069CE745F230414E
:10248000C5F6020188420ED045F2444107E045F20C
:102490008041C5F60201884205D045F29441C5F657
:1024A0000201884213D10EEB8300E066012022670F
:1024B000B040606704F16C02002307CA03604A6001
:1024C00000206065012184F83510BDE8F08140F6F8
:1024D0000000C4F2020000F1FC0E00F5A072E2E779
:1024E00030B110B590F83440012C03D1022010BD5A
:1024F00001207047012480F8344090F83540012CC9
:102500002BD1022480F8354000244465D0F800C067
:10251000DCF8004024F00104CCF800400446FEF74B
:102520005BF940F20F4C2068C4F2020C40F26F419C
:102530006045C4F2020118DC6F23C4F20203984222
:1025400024DC3F23C4F2020398423ADC1023C4F295
:102550000203984259D0282352E04FF400614165AC
:10256000002180F83410012010BD88421ADC40F2AE
:102570003F43C4F2020398422ADC40F21043C4F203
:102580000203984241D040F2284339E09F23C4F22D
:102590000203984225DC7023C4F20203984234D02F
:1025A00088232DE040F29F43C4F2020398421FDCCF
:1025B00040F27043C4F20203984226D040F28843AE
:1025C0001EE04023C4F2020398421ED0582317E0B5
:1025D00040F24043C4F20203984216D040F25843FE
:1025E0000EE0A023C4F2020398420ED0B82307E005
:1025F00040F2B843C4F20203984206D040F2A0432E
:10260000C4F20203984240F0238103680B2262F374
:1026100044030360226C1AB1082302681A43026063
:10262000884219DC9F22C4F20202904231DC572218
:10263000C4F20202904256DC1022C4F2020290421E
:1026400000F091802822C4F20202904200F08B80B8
:102650004022C4F2020284E045F22F42C5F6020293
:1026600090422BDC40F2B742C4F20202904248DCB6
:1026700040F27042C4F20202904274D040F28842AA
:10268000C4F2020290426ED040F2A042C4F20202B2
:1026900067E040F22742C4F20202904240DCA022EE
:1026A000C4F2020290425ED0B822C4F2020290420A
:1026B00059D040F21042C4F2020252E045F26B429D
:1026C000C5F6020290423CDC45F23042C5F60202F9
:1026D000904248D045F24442C5F60202904242D0B0
:1026E00045F258423BE05822C4F2020290423AD0EE
:1026F0007022C4F20202904235D08822C4F2020253
:102700002FE040F2B842C4F2020290422BD045F2D0
:102710000842C5F60202904225D045F21C421EE056
:1027200040F22842C4F2020290421CD040F24042E1
:10273000C4F20202904216D040F25842C4F20202A1
:102740000FE045F26C42C5F6020290420BD045F212
:102750009442C5F60202904205D045F28042C5F689
:10276000020290426ED1236E1A68D20303D51A6812
:1027700042F480721A60E36E1BB11A6842F48072F0
:102780001A60604510DC6F21C4F2020188421CDC33
:102790003F21C4F20201884232DC1021C4F202015E
:1027A00088424FD028214AE088421ADC40F23F415B
:1027B000C4F2020188422ADC40F21041C4F2020154
:1027C00088423FD040F2284139E09F21C4F2020103
:1027D000884225DC7021C4F20201884232D088216F
:1027E0002DE040F29F41C4F2020188421FDC40F21A
:1027F0007041C4F20201884224D040F288411EE0B8
:102800004021C4F2020188421CD0582117E040F256
:102810004041C4F20201884214D040F258410EE017
:10282000A021C4F2020188420CD0B82107E040F296
:10283000B841C4F20201884204D040F2A041C4F27F
:1028400002018842016841F001010160002010BDD1
:102850000268052363F343020260226C002A3FF4FE
:10286000DFAE0423D9E60000B0B5044600F098FFBF
:1028700046F250210546C2F20041621C097818BF99
:102880000C4400BF00F08CFF401BA042FAD3B0BD47
:1028900090F89830013B012B0BD80068836D0B42F8
:1028A0000CD0836D0B408B420CD1C36D43F00203FF
:1028B00009E000F19C010120022221E0C36D43F0F8
:1028C000010300E00323C3658B0504D5D0F8E03095
:1028D0001343C0F8E0304B0504D5D0F8E4301A4378
:1028E000C0F8E4204FF6FF72436DC3F6CF720A4082
:1028F0001A4342658A0F4AF614010020C4F200010F
:102900000B681A430A60704790F89830022B1BD16D
:10291000B0B50368D3F8C05015F07C5F1CD0D3F875
:10292000C450AD021DD4D3F8C4300546C3F30444EB
:102930002346FEF765F928680121A140C0F8D010B0
:102940000020C5F89410B0BDD0F89C1041F00801EB
:10295000C0F89C1001207047D0F89C1041F0200175
:1029600003E0D0F89C1041F40071C0F89C100120E5
:10297000B0BD000000000000704700000000000033
:1029800090F89820013A012A0BD880B50A68002AED
:10299000CA680ED00B69072A43EA427E16D18B69BA
:1029A00019E0D0F89C1041F00201C0F89C10012001
:1029B0007047072A18D10A69D1E906C3120442EA0E
:1029C000032242EA0C0242F0605217E0D1F808C03C
:1029D0004B6943EA8C73006F496800EBC10240F811
:1029E00031E05360002080BD8B68D1E904CE9B07A5
:1029F00043EAC26242EA0C4242EA0E024968C06EF1
:102A000040F82120002080BD90F898C0BCF1010F53
:102A10000DD19200006842EA0111DDF800C041EAE0
:102A2000430141EA0C01C0F8801000207047D0F843
:102A30009C1041F00401C0F89C1001207047000078
:102A40007047000000000000704700000000000018
:102A500070B590F89850022D11D1402914D1046816
:102A6000D4F8A05015F4FE0F2BD0D4F8A4506D0666
:102A70002CD0D4F8A450ED0130D4002531E0D0F8AA
:102A80009C1041F0080125E041290FD10468D4F8D9
:102A9000B05015F4FE0F14D0D4F8B4506D0615D014
:102AA000D4F8B450ED0126D4002527E0056DA942E5
:102AB00007D200F17C04D0F854E04FF0000C0D4632
:102AC00026E0D0F89C1041F0200103E0D0F89C10E3
:102AD00041F48071C0F89C10012070BDD4F8A05062
:102AE000ED0FD4F8A440C4F3052404EB050E00F167
:102AF0007404456C0BE0D4F8B050ED0FD4F8B4403A
:102B0000C4F3052404EB050E00F17804C56CF4460B
:102B100005FB0EFE256855F82E4014F080445460E5
:102B200055F82E4024F0604608BFC4F38A4616606C
:102B300055F82E4004F00054946005EB8E0455F8CF
:102B40002E6006F000461661A688D661E68816F06B
:102B50000F06D660666806F480165661666806F44D
:102B600000169661E67906F07F06166266684FEAFF
:102B7000D67656620ED042F2F61E04F10805002405
:102B8000C0F6010E2E5D1E550134D6681EF8066093
:102B9000B442F7D3402904D10068C0F8A8C000208F
:102BA00070BD412904D10068C0F8B8C0002070BDD4
:102BB0001F2907D80068012202FA01F1C0F8981015
:102BC000002070BD006801F01F01012202FA01F12E
:102BD000C0F89C10002070BD70470000000000008D
:102BE0002DE9F04F87B004464AF61000C4F2000009
:102BF00001684AF61400C4F20000026820680A4026
:102C0000D0F850B0D0F85490056D466D036D029326
:102C1000436D0193036D0693436D0593036D049318
:102C2000436D0393D0F854A0D0F850805FEACA53A4
:102C300010D518F480710DD04FF4807101654AF6FB
:102C400010010020C4F20001174608602046FFF77B
:102C5000C3FF3A460BEA090B4AF610095FEA4A50ED
:102C6000C4F200094FEA82771AD518F4806017D0B1
:102C700020689146D0F8DC10D0F8E42011404FF4E1
:102C8000806202654AF61002C4F200020020106061
:102C9000204600F099FC4A464AF61009C4F20009A1
:102CA00005EA06050BF4704657B12068002101655E
:102CB00002F00300C9F8000020463946FFF75CFE29
:102CC000DDE9011000EA010705F00F0546B12068B3
:102CD000314606650020C9F80000204600F07CFC63
:102CE00007F0F00645B12068294605650020C9F8BF
:102CF0000000204600F098FB46B12068314606658A
:102D00000020C9F80000204600F0D2FB5FEA0A501C
:102D10000CD518F4006009D020684FF400610165FB
:102D20000020C9F80000204600F05AFC5FEA8A50F3
:102D300011D518F400700ED02068D0F8D810D0F853
:102D4000E02011404FF4007202650020C9F8000035
:102D5000204600F03DFC5FEA0A300CD518F4002054
:102D600009D020684FF4002101650020C9F8000057
:102D7000204600F055FB5FEACA300CD518F48030CD
:102D800009D020684FF4803101650020C9F80000A7
:102D9000204600F015FC5FEA4A30DDE9031000EA46
:102DA00001050CD518F4802009D020684FF480214B
:102DB00001650020C9F80000204600F0FDFB5FEA35
:102DC0008A30DDE9051000EA010005F060710FD5D9
:102DD00018F400320CD022684FF40033136500223F
:102DE000C9F80020D4F89C2042F08002C4F89C204E
:102DF00000F0715539B1206801650020C9F8000064
:102E00002046FFF721FE4DB1206805650020C9F876
:102E10000000D4F89C002843C4F89C002068A9F561
:102E20000161884209D0D4F89C00002868D020466F
:102E300007B0BDE8F04FFFF703BE606881688907FF
:102E4000F1D0016A426A036A476A114003EA070245
:102E500002F03005D0F82080D0F82490D0F820B0CF
:102E6000466A026A069211F00F01426A0592D0F892
:102E700024A0026A049203D00162204600F090FB75
:102E800008EA09072DB1606829460562204600F06E
:102E90008FFB5FEA4A6006EA0B0607F4C0750ED5A1
:102EA000049810F040000AD060684023C16BC26BE8
:102EB000090C02F03F020362204600F075FBDDE9D9
:102EC000051000EA010706F4FC462DB160682946AA
:102ED0000562204600F060FB07F4F02036B161681F
:102EE0000E62D4F89C103143C4F89C1000289AD08C
:102EF00061680862D4F89C100843C4F89C0092E70B
:102F000007B0BDE8F08F000040B32DE9F04F83B06B
:102F10004AF200080446C4F200080068404502D1A5
:102F200008F58070606094F8980028B9002084F853
:102F30009900204600F0CCF92068816921F0100149
:102F4000816100F02DFC054620688169090707D5DD
:102F500000F026FC401B0B28F6D312E0012070473E
:102F6000816941F00101816100F01AFC054600BF52
:102F700020688169C90711D100F012FC401B0B28A1
:102F8000F6D30120D4F89C100843C4F89C00032019
:102F900084F89800012003B0BDE8F08F816941F00A
:102FA00002018161217C826922F04002012918BF5F
:102FB00040328261617C826922F48042012908BF2B
:102FC00002F580428261A17C826922F4805201294B
:102FD00018BF02F580528261816921F44073D4E9FF
:102FE00002120B438361836923F0A40383610369A5
:102FF00023F0100303619AB1012A0DD0022A09D0EF
:103000008369032A43F080038361036943F010025C
:10301000026105D1202200E0042283691A43826103
:10302000D4E90572E369561E6FF0FF02256A02EBD0
:103030000323B1F5407F43EA4663A5F1010646EA62
:10304000030640F20003CFF6FF7303EB074746EA9F
:103050000701C16110D1D4E90B65D4E90917013F1B
:1030600002EB06226FF00F063A4306EB05173A43D0
:1030700003EB01411143C160236E2BB1616ED0F8A7
:10308000C0201143C0F8C010E16DCDE90113D94251
:1030900041F6F061C0F6010109D0D0F8C820A36E56
:1030A00022F0070251F823301A43C0F8C820D4F8A0
:1030B00040C0BCF1000F09D0D0F8BC20636C22F0F6
:1030C000070251F823301A43C0F8BC20D4F848B0A6
:1030D000BBF1000F0AD0D0F8BC20E36C22F07002E4
:1030E00051F8233042EA0312C0F8BC20D4F850A0B3
:1030F000BAF1000F0AD0D0F8BC20636D22F4E06270
:1031000051F8231042EA0121C0F8BC10404504D117
:1031100061688A6822F003028A600021C4F8941072
:10312000C4F89C10012184F8981004F13409D0F8F7
:1031300084104FF6FC729143656C99E80C0200957F
:1031400041EA8201C0F88410D0F8841021F47F0194
:1031500041EA0341C0F884109918D0F888306FF321
:103160008F0343EA8103C0F88830D0F8883023F415
:10317000FE0343EA0943C0F8883001EB4903D0F865
:10318000A0606FF38F0646EA8306C0F8A060D0F80F
:10319000A06026F4FE0646EA0C46C0F8A06005FBD7
:1031A0000C36D0F8B0306FF38F0343EA8603C0F8D3
:1031B000B030D0F8B03023F4FE0343EA0B43C0F83C
:1031C000B030E36CD0F8AC506FF38F0503FB0B66A7
:1031D00045EA8605C0F8AC50D4F8548008FB0A656F
:1031E000D0F8F0606FF38F0646EA8506C0F8F0600D
:1031F000D0F8F0E0A66D2EF47C1747EA0647C0F839
:10320000F070F70007EB8507D0F8C0506FF38F051B
:103210002F43C0F8C070D0F8C070009DDDF804E006
:1032200027F47C1705FB0CFC4AF2000547EA0E4721
:10323000C0F8C070C4F2000503FB0BC305F540677E
:10324000D0F8C05007EB820207EB810125F07C57D4
:10325000029D47EA0567C0F8C07001EBC90008FB92
:103260000A372167A16E00EB8C0C606700EB8303CB
:10327000E266C4E91EC30EFB01F300EB870069435D
:10328000C4F8800000EBC600C4F8840000EB8300A3
:10329000C4F8880000EB81004DF2FC31C4F200015B
:1032A000C4F89000884201D920206BE6824208D2FF
:1032B000002000BF42F8040BD4F890108A42F9D3E2
:1032C00069E6002003B0BDE8F08F000000000000B8
:1032D00010B586B04DF200420068C4F20002002131
:1032E00090420591CDE90311CDE901115BD04AF27D
:1032F0000041C4F2000188422AD04AF20001C4F21F
:103300000001884240F0898046F2EC2144F2E0401E
:10331000C2F20041C5F602000A68002A02F1010269
:103320000A6008D1C16841F48071C160C16801F4CC
:103330008071009100990168132441F00801016037
:103340000068092100F008000090009803224EE078
:1033500046F2EC2144F2E040C2F20041C5F6020020
:103360000A68002A02F101020A6008D1C16841F42A
:103370008071C160C16801F4807100910099016899
:10338000142441F0020101600068092100F00200EC
:103390000090009840F60040C5F602004FF44052FD
:1033A000A0F5006027E046F2EC2144F2E040C2F2D2
:1033B0000041C5F602000A68002A02F101020A6013
:1033C00008D1C16841F48071C160C16801F48071A5
:1033D0000091009901689F2441F008010160006894
:1033E000052100F0080000904FF44052009840F68C
:1033F0000040C5F60200059101A901920222029245
:103400000022CDE9032200F0EFF80521002220463A
:1034100000F096FA204600F07FFA06B010BD0000DA
:103420007047000000000000C90708BF7047B0B532
:103430004AF2FC754AF2BB73C2F20045C2F2004385
:1034400040212A460446FFF703FB4DF20041206865
:10345000C4F2000188421AD04AF20041C4F20001CD
:1034600088420DD04AF20001C4F20001884216D110
:1034700028784AF2BB71C2F2004109F0F9FE0EE071
:103480004AF2BB722968C2F20042012005E04AF20A
:10349000BB722968C2F20042022009F0F5FC01214A
:1034A00000222046BDE8B040FFF7F2B9000000005E
:1034B000C90658BF7047B0B54AF664054AF62403FA
:1034C000C2F20045C2F2004341212A460446FFF7FA
:1034D000BFFA4DF200412068C4F20001884215D0C5
:1034E0004AF20041C4F2000188421AD12968A1F1D0
:1034F000110004281CD247F2C8704AF62402C2F216
:103500000040C2F200420AF087F90AE04EF60430A9
:103510004AF624022968C2F20040C2F200420DF0CD
:1035200073F8102100222046BDE8B040FFF7B0B983
:10353000B1F5807F0AD040F201108142F1D14AF604
:103540002400C2F200400BF0E3F9EAE74AF6240057
:10355000C2F200400BF0B4F9E3E700000000000005
:1035600090F8981001290CD1022180F89810016878
:103570008A6922F001028A610021C0F89C100020B3
:103580007047D0F89C1041F00401C0F89C10012055
:1035900070470000000000007047000000000000BD
:1035A00070470000000000007047000000000000AD
:1035B000704700000000000070470000000000009D
:1035C000704700000000000070470000000000008D
:1035D000704700000000000070470000000000007D
:1035E00070470000000000002DE9F04F83B00E6826
:1035F000002E00F0C78000F1264742F2004507F197
:10360000FF77C5F602050A22A8424FEAB72500F166
:10361000200308BF09220093082D38BF4FEAB722C4
:10362000002400274FF0000A01920AE00AF1010A83
:103630000E6836FA0AF207F1020704F1040400F0FA
:10364000A180012202FA0AFB16EA0B08EED0D1F89B
:103650000490032209F0030EAEF10106012E02FAD6
:1036600007F610D8D0F808C0CD682CEA0602BD4095
:103670002A438260C9F30015426822EA0B0205FA68
:103680000AF52A434260BEF1030F1FD0C2688D685D
:10369000B243BD40BEF1020F42EA0502C26015D13D
:1036A0006FF00302009D02EA5A0B04F01C030F2284
:1036B00055F80BC002FA03FED1F810902CEA0E0C5C
:1036C00009FA03F343EA0C0345F80B3002684B6830
:1036D000B24303F00306BE4013F4403F42EA060241
:1036E0000260A3D044F2F44340F2084CC5F6020352
:1036F000C5F6000C0F251A6842F002021A601A681B
:1037000002F0020202922AF00302029B04F00C0370
:1037100052F80C609D40AE43019D05FA03F333431C
:1037200042F80C304FF0B04CDCF800204B6842EA15
:103730000806DD0258BF22EA08069D02CCF80060A8
:1037400040F2040CC5F6000CDCF8002042EA080642
:1037500058BF22EA08069D03CCF80060DCF8802000
:1037600042EA080658BF22EA0806DB03CCF880606C
:10377000DCF87C2042EA080658BF22EA0806CCF8AA
:103780007C6053E703B0BDE8F08F0000000000004C
:10379000002A08BF09048161704700000000000092
:1037A0004EF6E020C2F200400068704700000000C2
:1037B000016800204AF6AA220A6070470000000053
:1037C00046F250204EF6E021C2F20040C2F2004123
:1037D00000780A681044086070470000000000008C
:1037E00080B5032000F0DCF801F082FF44F21841BC
:1037F00042F2CC03C5F60201C0F601030A68C2F327
:1038000003229A5C096801F00F0102F01F02595C63
:10381000D04046F20C12C2F2004201F01F0120FA21
:1038200001F1116046F20811C2F200410860002067
:1038300000F00AF800281CBF012080BD00F054F8F9
:10384000002080BD000000000F2842D8B0B58AB02B
:103850000446192000222146002500F071F81920A5
:1038600000F05AF846F25420C2F20040046044F2DC
:10387000F040C5F60200016841F0010101600068F6
:1038800001A900F001000290029802A801F07CFE5C
:1038900001F0FEFE4DF683614000C4F21B310022B0
:1038A000A0FB010148F69040C2F200404FF0FF3308
:1038B000C4F20102026003EB9141C0E9011540F23C
:1038C000E731C0E9031502F0FBFE20B101200AB088
:1038D000B0BD0120704748F69040C2F2004002F0AF
:1038E0003FFF0AB0B0BD000081B044F2F4400022B6
:1038F000C5F60200016841F00201016000680F2175
:1039000000F0020000906FF00100009B01B000F099
:1039100017B8000000000000002848BF704700F002
:103920001F01012202FA01F14EF20012C0F34A1007
:10393000CEF2000242F820107047000000000000A4
:1039400070B54EF60C5C4FF0FF36CEF2000C00F175
:10395000604505F56445DCF80030C3F3022E8EF0B7
:103960000703042B28BF0423BEF1030406FA03F364
:1039700021EA030100F00F0338BF0024043B0028B4
:10398000634406FA04F048BF03F10C05A14022EAA3
:10399000000008430001287070BD00000000000016
:1039A0004EF60C514FF6FF03CEF200010A681A40A2
:1039B00060F30A2242F0806040F0FD7008607047BA
:1039C00001680122C0F8D824002280F8CC2488693C
:1039D00040F000608861486D40F08052002042F065
:1039E00003024A65704700007047000000000000B5
:1039F0000268002051627047B0B5D0F800E0DEF8F0
:103A00002400D1B1DEF82830B1F1010C00EB1343F2
:103A10000BD05FFA8CF10EF58070002450F8045F33
:103A200001348C4203EB1543F8D30EEB8C0043EAD0
:103A30000241C0F804110020B0BD40EA0240CEF8B7
:103A400028000020B0BD0000D0F8E00406F0D4BD8E
:103A500001EBC10200EB8202D0F8E004126A06F02A
:103A600037BD00000000000001EBC10200EB820244
:103A7000D0F8E004D2F8602206F082BD0000000019
:103A8000D0F8E00406F0BCBD10B54FFA81FC0A4640
:103A900001F00F0E4FF41571BCF1000F4FEAD21276
:103AA00048BF14210EEBCE0C90F89444431803EB5E
:103AB0008C01012C03F82CE04A7001D1022010BDCA
:103AC000012280F8942402680446104607F0F0FAB8
:103AD000002084F8940410BDB0B5027901F00F0302
:103AE000934201D90120B0BD4AB24FF41574002AA7
:103AF00003EBC30E48BF1424C909021990F894447B
:103B000002EB8E0C012C4FF000048CF801108CF8A5
:103B1000024002F82E3001D10220B0BD012180F810
:103B20009414016805460846614607F04DFC20469E
:103B300085F89444B0BD000001F00F0101EBC10114
:103B400000EB8100D0F86802704700000000000020
:103B500070B58C464FF4157449B20CF00F0E002965
:103B600048BF14240EEBCE0604445FEADC1504EBD8
:103B7000860104F826E04D708A600B7118BFA1F829
:103B80001AE0022B01D100224A7190F89424012AF4
:103B900001D1022070BD012280F8942402680446FD
:103BA000104607F0A5F9002084F8940470BD0000C9
:103BB00080B501F00F0C0CEBCC0100EB810E002165
:103BC000CEE998238379CEF868128EF855120EF557
:103BD0001571012B8EF854C208BFCA6100681A46DD
:103BE00007F03AFC002080BDB0B5027901F00F0467
:103BF00094424FF001022AD84BB24FEAD11C002B5D
:103C00004FF4157548BF214648BF142590F894E439
:103C100001EBC1030544BEF1010F05EB830105F87B
:103C2000234081F801C08A7001D10220B0BD80F824
:103C300094240546006807F0EFFB2CB9A9792868A1
:103C400005F29C4207F090FB002285F89424104670
:103C5000B0BD00000000000080B501F00F0C90F82E
:103C600006E00CEBCC01BEF1010F00EB810101F885
:103C700014CF4FF0000C0B614FF00103CA60C1F884
:103C800014C04B7008BFCA610068724607F0E4FBBD
:103C9000002080BD000000002DE9F04F87B00568CE
:103CA0008246284607F054FD10B107B0BDE8F08FFA
:103CB000DAF8000007F07CFD0028F6D0D5F80808F7
:103CC000C0F30D20CAF8D404DAF8000007F070FD44
:103CD000800705D5DAF80000416901F00201416171
:103CE00005F500600590DAF8000007F061FDC006F8
:103CF000069536D5DAF80000816921F0100181615E
:103D00002C6A04F00F0000EBC001C4F343400AEB3F
:103D10008101062801F5157511D002281AD147F640
:103D2000F07014EA000615D03409E96806982246B6
:103D300007F042FDE86800EB1610E86007E00AF2C1
:103D40009C410822069807F037FDC4F30A146869FD
:103D500020446861DAF80000816941F01001816156
:103D6000069DDAF8000007F023FD000340F1F28021
:103D7000DAF8000007F0F8FC002800F0EB800646B7
:103D80004FF4306800244FF0000B0AF29C4004907E
:103D900009E000BF0BF1010B760808F1200804F1DF
:103DA000240400F0D780F007F4D05FFA8BF9DAF83A
:103DB0000000494607F0F4FC0746C0075FD005EB5A
:103DC000080001218160DAF8000008EB0001036CB3
:103DD0008A689AF80650012D25D1150732D4950628
:103DE00000F1B08043F20B05C4F65475AB42069D5A
:103DF00002D312F400422FD10AEB0402D2F874323B
:103E000009696FF3DF41A3EB0101C2F8681294BBAB
:103E1000D2F86432002B00F09B80D2F86002084494
:103E2000C2F8600227E043F20B05C4F65475FF3573
:103E3000AB4217D11004069D0ED490061BD520204E
:103E4000886018E043F20B00069DC4F6547083426C
:103E500015D312F4004012D04FF4004088603807A8
:103E60000FD437E0069D34B9DAF8641219B900218D
:103E7000049A07F079FA50464946FFF7F5FD3807EE
:103E800028D505EB08000821816043F20B01DAF820
:103E90000000C4F65471056C40448D42816805D31E
:103EA00011F400411CBF4FF400418160504600F006
:103EB000D7FB43F20B00C4F654708542069D09D32C
:103EC0009AF80600012805D1DAF800000121049AC9
:103ED00007F04AFAF80607D4B8070BD4B80624D47A
:103EE000B8047FF557AF27E005EB0800102181608B
:103EF000B807F3D56869000604D50599486840F409
:103F0000806048600AEB040090F85712012906D13E
:103F1000002180F857125046494600F0ADFA05EBF3
:103F2000080002218160B806DAD505EB08002021DF
:103F30008160B8047FF52EAF05EB08004FF4005107
:103F4000816027E720208860069D380799D4C1E763
:103F500001218DE7DAF8000007F02AFC400340F168
:103F6000DC80DAF8000007F0F7FB002800F0D580CD
:103F70000646069800F510690AF1140B00270AF2AC
:103F80009C400290CDE903B905E000BF760807F137
:103F9000010700F0C280F007F8D0FDB2DAF80000A7
:103FA000294607F0E9FB0446C0070BD1200733D4AC
:103FB000E00637D460063BD4A0073FD42006E5D501
:103FC00055E000BF059B07F00F004FF0010C09EB17
:103FD00047120CFA00F0596B21EA00005863C2F84E
:103FE00008C09AF80600012810D107EBC7000BEBB8
:103FF0008000D0E902121144C1603FB9006928B9BC
:10400000DAF800000121029A07F0AEF9504629467D
:10401000FFF71EFD2007CBD509EB47100821816073
:10402000E006C7D509EB4710102181606006C3D5B3
:1040300009EB471040218160A007BFD5069839469B
:1040400007F052FB07EBC7000BEB800010F8031FD3
:10405000012905D1002101705046294600F008FAD7
:1040600009EB47100221816020067FF58FAF07EB37
:10407000C7000BEB8008D8E904108142FFF486AF3B
:10408000DAF80040081AD8F80810884238BF01460C
:1040900004EB47100331D0F8182992B2B2EB910F1C
:1040A00028D300F5106900BFD8E90410814221D956
:1040B000081A9AF80620D8E902B1584538BF834655
:1040C000009220461FFA8BF32A4607F069FCD8F8C5
:1040D0000C00D8F814105844C8F80C0001EB0B0081
:1040E000C8F814000BF10300D9F8181089B2B1EB2D
:1040F000900FD9D2D8E904018842DDE903B93FF62F
:1041000045AF07F00F00012101FA00F0D4F8341890
:1041100021EA0000C4F8340838E7DAF8000007F0B4
:1041200047FBB0F1FF3F069C19DC0599486820F079
:10413000010048609AF8CC04012807D100208AF8D1
:10414000CC0400215046FFF74FFC02E0504600F03F
:104150006BFADAF80000416901F000414161DAF8D8
:10416000000007F025FB00050CD505988068C00706
:1041700002D0504600F09CFADAF80000416901F4E0
:1041800000614161DAF8000007F012FB000117D569
:10419000DAF80000416901F0006141619AF8CC143D
:1041A00019B1504600F084FA0AE001218AF8CC14D3
:1041B000406DC0F38300CAF8D0045046FFF714FCEA
:1041C000DAF8000007F0F4FAC00453D505994868FE
:1041D00020F001004860DAF80000102107F084FAAE
:1041E0009AF80400D8B104F510614FF67F3200BF91
:1041F0008A6001380B6823F400130B60C1F80822B1
:10420000D1F8003223F40013C1F80032D1F80032A3
:1042100043F00063C1F8003201F12001E8D1059FAD
:1042200084214422F86940F00110F8619AF80F00E7
:1042300000284FF00B0008BF142104BF42F22B00EE
:1042400010227B5818437850B85840F00B00B850F3
:1042500038680AF29C4220F4FE6038609AF8061032
:10426000DAF8000007F080F8DAF80000416901F49C
:1042700080514161DAF8000007F09AFA80041CD5F9
:10428000DAF8000006F078FEDAF8000007F050FADD
:104290008AF80700DAF8004001F0A2F99AF807203E
:1042A0000146204607F0F4FA504600F0A9F9DAF882
:1042B0000000416901F400514161DAF8000007F0A3
:1042C00077FA000708D5504600F0B2F9DAF8000096
:1042D000416901F008014161DAF8000007F068FA6D
:1042E00000062AD50699886920F0800088619AF82E
:1042F0000400022821D30AF515740AF114050126D9
:1043000040F27B2706E000BF9AF80400013624370C
:10431000864212D21AF807000128F5D106F00F00E4
:10432000320600EBC00005EB800158BF04EB8001B2
:10433000DAF8000007F088F9E6E7DAF8000007F09D
:1043400037FAC0022FD59AF80400022825D3069820
:104350000AF1140400F512650AF13B064FF001085A
:10436000012706E09AF804000137203524368742F9
:1043700013D2286871780129F4D1B0F1FF3FF1DC44
:1043800007F00F0086F8008000EBC00004EB80010E
:10439000DAF8000007F058F9E4E7DAF800004169BC
:1043A00001F480114161DAF8000007F001FA80029F
:1043B00035D59AF80410069D02292AD305F53260F6
:1043C00001390AF51F72012306E000BF013900F12F
:1043D000200002F124021CD007681678012EF5D1C6
:1043E000B7F1FF3FF2DCDAF8D46407F4803706F067
:1043F0000106B742EAD102F8013CAF6947F08007F5
:10440000AF616F693F06E1D40599486840F40070D8
:104410004860DAF80000416901F400114161DAF8FE
:10442000000007F0C5F9400008D55046FFF70CFB27
:10443000DAF80000416901F080414161DAF80000DA
:1044400007F0B6F940077FF530ACDAF800004468B1
:10445000600702D55046FFF713FBDAF80000416809
:104460002143416007B0BDE8F08F0000000000006C
:10447000D0F8E00406F028B9D0F8E00406F03CB922
:10448000002862D010B582B0044690F8950428B98F
:10449000002084F89404204600F06AF8032084F891
:1044A0009504206806F058FFD4E9000194F810C084
:1044B000D4E90223CDF800C006F06EFD00283ED1FD
:1044C0002068002107F09CF9C8BB207960B300EB9D
:1044D000C00000214FEA800E4FF0010C00230022A3
:1044E000E01824339E450275C28502F1010280F86E
:1044F00015C00176C16101624162F1D10021002243
:10450000002300BFA0182432964580F8543203F1EE
:10451000010380F8551280F85812C0F85C12C0F8F8
:104520006012C0F86412EDD1D4E9000194F810C013
:10453000D4E90223CDF800C006F01AFE38B10220FB
:1045400084F89504012002B010BD012070470020BE
:104550006074012084F89504207B012802D1204654
:10456000FFF72EFA206806F0F3FD002002B010BD20
:1045700010B5B0B0044602A8B821FBF770FF0021C7
:104580002068C4F20401884201D030B010BD002080
:1045900003904FF4802002904FF44010239002A823
:1045A00000F006FA08B1FCF70BFB00F0C1F844F28A
:1045B000D8400022C5F60200016841F00071016098
:1045C0000068052100F00070019001984A20FFF773
:1045D000B7F94A20FFF7A0F94B2005210022FFF789
:1045E000AFF94B20FFF798F94D2005210022FFF786
:1045F000A7F94D20FFF790F930B010BD0000000082
:1046000010B5C179044621B1022901D0FCF7D8FACE
:104610000121D4F8E00406F0FBF8D4F8E004BDE88A
:10462000104006F0A9B80000D0F8E00406F0D4B8B5
:10463000D0F8E00406F0DCB890F89424012A01D107
:104640000220704710B5012280F89424417404467A
:104650000268104607F008F9002084F8940410BDA1
:10466000D0F8E02400F29C41104606F0E9B80000C2
:1046700010B5044690F89404012801D1022010BD21
:104680002068012184F89414C168490606D5617B2D
:10469000012903D1816B41F48031816307F01CF85B
:1046A000206806F045FD002084F8940410BD000049
:1046B00010B50446D0F8E00406F01AF92068D0F8E6
:1046C000001E41F00101C0F8001EE07A002808BF7A
:1046D00010BD4EF61050CEF20000016841F0060108
:1046E000016010BD00000000B0B544F60C05C5F631
:1046F000020529684907296805D401F00701081A4D
:1047000018BF0120B0BD21F0070108432860FFF762
:1047100047F8044655F8080C800407D4FFF740F822
:10472000001BB0F57A7FF5D90120B0BD0020B0BDE7
:1047300044F60C00C5F60200016841F0807101608A
:10474000704700000000000080B500F049FF44F20F
:10475000204142F2CC02C5F60201C0F6010209680E
:10476000C1F30211515C01F01F01C84080BD00007F
:1047700080B544F2384EC5F6020E5EF8103C5EF885
:10478000101C5EF80C2CC1F3053CDEF80410BCF1E3
:10479000000F18D0C9089FED3A1AD20601EAE2715B
:1047A00003F003026FF35F3100EE101AB8EE400A17
:1047B000DFE802F0021F0E1F5EF8381C89060AD4DB
:1047C0009FED311A15E000218160C0E9001180BD24
:1047D0009FED2C1A0DE05EF8381C49F20002C0F281
:1047E000D032C1F3C10122FA01F101EE101AB8EE84
:1047F000411ADEF800109FED253A6FF35F2102EEBB
:10480000101ADEF80010C1F34621B8EE422A013139
:1048100000EE032A00EE10CAB7EE003AB8EE400AE6
:1048200081EE000A32EE031A20EE010A01EE101AA0
:10483000B8EE411A80EE011ABCEEC11A80ED001AE2
:10484000DEF80010C1F30641013101EE101AB8EE96
:10485000411A80EE011ABCEEC11A80ED011ADEF891
:104860000010C1F30661013101EE101AB8EE411AD1
:1048700080EE010ABCEEC00A10EE101A816080BD05
:104880000024744A0024744B0024744C0000003946
:1048900080B544F2404EC5F6020E5EF8183C5EF854
:1048A000181C5EF8142CC1F3055CDEF80410BCF192
:1048B000000F18D0C9089FED3A1AD20501EAE2713B
:1048C00003F003026FF35F3100EE101AB8EE400AF6
:1048D000DFE802F0021F0E1F5EF8401C89060AD4B2
:1048E0009FED311A15E000218160C0E9001180BD03
:1048F0009FED2C1A0DE05EF8401C49F20002C0F258
:10490000D032C1F3C10122FA01F101EE101AB8EE62
:10491000411ADEF800109FED253A6FF35F2102EE99
:10492000101ADEF80010C1F34621B8EE422A013118
:1049300000EE032A00EE10CAB7EE003AB8EE400AC5
:1049400081EE000A32EE031A20EE010A01EE101A7F
:10495000B8EE411A80EE011ABCEEC11A80ED001AC1
:10496000DEF80010C1F30641013101EE101AB8EE75
:10497000411A80EE011ABCEEC11A80ED011ADEF870
:104980000010C1F30661013101EE101AB8EE411AB0
:1049900080EE010ABCEEC00A10EE101A816080BDE4
:1049A0000024744A0024744B0024744C0000003925
:1049B0002DE9F04381B00446C07844F22C49000749
:1049C000C5F6020901D4002520E0606E4FEA3050A0
:1049D000032835D80025DFE800F0020A1C22D9F8A8
:1049E000000040F40030C9F80000D5B906E004F139
:1049F0000800022104F020F9054695B9D9F82400F1
:104A0000616E20F440100843C9F824004FF00008FC
:104A100008E004F12800022104F09EF90546002D6B
:104A2000ECD0A8466078C0071ED0A06D04283ED800
:104A3000DFE800F02B340A0303006DB1A84613E051
:104A40000125002DEDD1D9E704F12800002104F063
:104A500083F90546002DF1D1D9F82400A16D20F08D
:104A600007000843C9F824006078400747D5D4F808
:104A7000A4004FEA705005282CD8DFE800F01C2F66
:104A80002503030395B3A84639E0D9F8000040F4A4
:104A90000030C9F80000002DD0D1DDE704F1080096
:104AA000002104F0C9F80546002DC7D1D4E701253F
:104AB000002DC3D1D0E7D9F8000040F40030C9F888
:104AC0000000002DDFD111E004F12800002104F0E6
:104AD00043F908E00125002DD5D107E004F10800D5
:104AE000002104F0A9F80546002DCCD1D9F82C00FE
:104AF000D4F8A41020F460000843C9F82C006078B2
:104B0000000731D5D4F8A8004FEA3060052816D840
:104B1000DFE800F006190F030303E5B1A84623E020
:104B2000D9F8000040F40030C9F80000002DF5D19C
:104B300011E004F12800002104F00EF908E001253D
:104B4000002DEBD107E004F10800002104F074F817
:104B50000546002DE2D1D9F82C00D4F8A81020F099
:104B6000E0600843C9F82C00E07880071BD5E06CB2
:104B70004FEA301003282FD8DFE800F002052502A5
:104B80004DB1A8460FE0D9F8000040F40030C9F854
:104B90000000002DF5D1D9F82000E16C20F03000A4
:104BA0000843C9F820006078C00629D5E06D4FEAB7
:104BB0003030042849D8DFE800F0363F1303030003
:104BC000B5B1A8461CE004F10800022104F034F855
:104BD0000546002DD5D1DEE70125002DD1D1DAE73C
:104BE00004F12800002104F0B7F80546002DE8D1B3
:104BF000D9F82400E16D20F4E0400843C9F824000E
:104C00006078800639D5206E4FEA3040052829D8D3
:104C1000DFE800F025031F25252504F10800012108
:104C200004F00AF81AE0D9F8000040F40030C9F89E
:104C30000000002DC5D1DBE704F10800002103F0DE
:104C4000FBFF0546002DBCD1D2E70125002DB8D1D0
:104C5000CEE704F12800012104F07EF8054625B1D5
:104C6000A8460AE00125002DFAD1D9F82400216ECA
:104C700020F4E0200843C9F824006078400625D5D8
:104C8000D4F8AC004FEA3070052813D8DFE800F004
:104C90000F03090F0F0F04F10800012103F0CCFFEF
:104CA00004E004F12800012104F056F8054625B17E
:104CB000A8460BE00125002DFAD1D9F82C00D4F834
:104CC000AC1020F0E0400843C9F82C0060780006E2
:104CD00020D5E06ED8B1B0F1005F12D0B0F1805FA6
:104CE00026D1D9F8000040F40030C9F8000085B999
:104CF000D9F82400E16E20F040500843C9F82400A0
:104D000008E004F10800012103F096FF0546002D9C
:104D1000EED0A846E078C0071ED0A06C032800F2B1
:104D20008080DFE800F0020974026DB1A84613E04C
:104D30000125002DEDD1DBE7D9F8000040F400306B
:104D4000C9F80000002DF1D1D9F82000A16C20F0A5
:104D500003000843C9F82000A078400644D5D9F8DC
:104D6000D40340F48070C9F8D403FEF719FD064659
:104D7000D9F8D403C00505D4FEF712FD801B6528C1
:104D8000F6D303257DBBD9F84410D4F8B0004140D8
:104D900011F4407F11D0D9F84410D9F8442042F4DE
:104DA0008032C9F84420D9F8442021F4407122F41B
:104DB0008032C9F84420C9F84410B0F5807F0FD183
:104DC000FEF7EEFC064641F2893700BFD9F84400F1
:104DD000800705D4FEF7E4FC801BB842F6D3032518
:104DE000002D00F07A82A8462078C00732D0A06F4C
:104DF0004FEAF000052822D8DFE800F01E03181E55
:104E00001E1E04F10800012103F016FF13E004F157
:104E10000800022103F010FF0546002D7FF486AF45
:104E200092E70125002D7FF481AF8DE704F1280082
:104E3000012103F091FF054625B1A8460AE00125AE
:104E4000002DFAD1D9F82800A16F20F038000843CE
:104E5000C9F828002078800721D5606F052813D86D
:104E6000DFE800F00F03090F0F0F04F10800012124
:104E700003F0E2FE04E004F12800012103F06CFFDE
:104E8000054625B1A8460AE00125002DFAD1D9F83A
:104E90002800616F20F007000843C9F82800207837
:104EA000400723D5D4F89000052813D8DFE800F098
:104EB0000F03090F0F0F04F10800012103F0BCFEDE
:104EC00004E004F12800012103F046FF054625B166
:104ED000A8460BE00125002DFAD1D9F82C00D4F812
:104EE000901020F007000843C9F82C0020788006B5
:104EF00025D5D4F88C004FEA3070052813D8DFE8A8
:104F000000F00F03090F0F0F04F10800002103F058
:104F100093FE04E004F12800022103F01DFF054682
:104F200025B1A8460BE00125002DFAD1D9F82800BB
:104F3000D4F88C1020F0E0400843C9F8280020780D
:104F4000400625D5D4F898004FEAB020052813D89C
:104F5000DFE800F00F03090F0F0F04F10800002134
:104F600003F06AFE04E004F12800022103F0F4FEDD
:104F7000054625B1A8460BE00125002DFAD1D9F848
:104F80002C00D4F8981020F4E0500843C9F82C0005
:104F90002078000625D5D4F89C004FEA703005280B
:104FA00013D8DFE800F00F03090F0F0F04F108001A
:104FB000002103F041FE04E004F12800022103F087
:104FC000CBFE054625B1A8460BE00125002DFAD100
:104FD000D9F82C00D4F89C1020F460400843C9F89C
:104FE0002C002078000716D5D4F88000B0F5805F3B
:104FF00008D104F12800022103F0AEFE002818BFFA
:105000004FF00108D9F82800D4F8801020F440505F
:105010000843C9F828002078C00616D5D4F89400B3
:10502000B0F5807F08D104F12800022103F094FE3E
:10503000002818BF4FF00108D9F82C00D4F89410BC
:1050400020F440700843C9F82C00A078000724D54C
:10505000D4F8A000B0F5003F1CD0B0F5803F13D0CD
:10506000002840F0E58004F10800002103F0E4FD91
:1050700005468DB9D9F82C00D4F8A01020F44030A2
:105080000843C9F82C0008E004F12800022103F0CD
:1050900063FE0546002DEDD0A846A078400725D533
:1050A000D4F88400B0F5401F1DD0B0F5001F14D017
:1050B000B0F5801F40F0C180D9F8000040F4003006
:1050C000C9F800008DB9D9F82800D4F8841020F46C
:1050D00040100843C9F8280008E004F12800012125
:1050E00003F03AFE0546002DEDD0A846A078C00793
:1050F0001FD0206DB0F5803F0BD0002840F093808A
:10510000D9F8000040F40030C9F800004DB1A846BD
:105110000FE004F10800022103F08EFD0546002D8A
:10512000F5D1D9F82000216D20F480300843C9F86A
:105130002000E078800608D504F12800022103F061
:105140000BFE002818BF4FF00108D4E900108A03B5
:1051500040F18280E26F6FF0010303EB3223022BF8
:105160000AD34FEA32233BB1012B6BD1D9F800307F
:1051700043F40033C9F80030002D66D0CA026ED463
:105180008A0277D44A0000F18080CA0F40F08D80F7
:10519000090200F19580C00707D004F10800002142
:1051A00003F04AFD002818BF05462079800707D57F
:1051B00004F10800012103F03FFD002818BF054657
:1051C0002079400707D504F10800022103F034FDDF
:1051D000002818BF05462079000707D504F12800EC
:1051E000002103F0B9FD002818BF05462079C0064C
:1051F00007D504F12800012103F0AEFD002818BFF7
:1052000005462079800607D504F12800022103F025
:10521000A3FD002818BF0125002D18BF0125284631
:1052200001B0BDE8F0830125002D7FF470AF78E771
:105230000125002D7FF430AF1CE70125002D7FF400
:1052400054AF40E70125002D98D1D9F8283023F438
:1052500040731A43C9F828204546CA0290D5D9F8A8
:105260002420236F22F000421A43C9F824208A0226
:105270007FF588AFD9F82420A36E22F080721A43FC
:10528000C9F824204A007FF580AF59F81C2C22F47D
:10529000004249F81C2CD4F8B42059F81C3C1A439D
:1052A00049F81C2CCA0F3FF473AFD9F82020636D66
:1052B00022F040521A43C9F8202009027FF56BAF53
:1052C000D9F82810D4F8882021F440011143C9F8F6
:1052D0002810C0077FF461AF67E74FF6CF73D4F8AB
:1052E000B00059F81C2CC0F2FF0300F4407122F406
:1052F0007C5203EA1013B1F5407F08BF1A436FF3E5
:105300001F3049F81C2CD9F844100843C9F8440050
:105310006AE5000000000000704700000000000087
:105320002DE9F04381B0002800F0F88042F2000837
:105330000446C5F200288946D8F8000000F00F00A6
:1053400081420ED9D8F8000020F00F0040EA090091
:10535000C8F80000D8F8000000F00F00484540F001
:10536000DD80206844F218474107C5F602070AD5D8
:1053700021693A6802F07002914204D93A6822F039
:1053800070021143396001070AD561697A6802F039
:105390007002914204D97A6822F070021143796058
:1053A000C1060AD5A1697A6802F4E062914204D983
:1053B0007A6822F4E0621143796081060AD5E169D6
:1053C000BA6802F07002914204D9BA6822F0700201
:1053D0001143B96081070AD5E1683A6802F00F020B
:1053E000914204D93A6822F00F0211433960C00794
:1053F00040F08080206881070AD5E1683A6802F0B1
:105400000F02914204D23A6822F00F021143396030
:10541000D8F8001001F00F0189450DD2D8F800101E
:1054200021F00F0141EA0901C8F80010D8F8001076
:1054300001F00F01494571D141070AD521693A6848
:1054400002F07002914204D23A6822F070021143D5
:10545000396001070AD561697A6802F070029142E9
:1054600004D27A6822F0700211437960C1060AD52D
:10547000A1697A6802F4E062914204D27A6822F467
:10548000E0621143796080060AD5E069B96801F0ED
:105490007001884204D2B96821F070010843B860F5
:1054A00000F026F9396842F2CC02C0F60102C1F3DD
:1054B0000321515C3B6803F00F0301F01F01D25C34
:1054C00020FA01F102F01F0046F20C12C2F2004273
:1054D00021FA00F0106046F2542046F20812C2F29F
:1054E0000040C2F200420068116001B0BDE8F04324
:1054F000FEF7AAB9386820F47061D4E901021143BB
:105500003960012857F8181C0CD0032804D0022851
:1055100028D1890302D507E0890105D4012001B013
:10552000BDE8F083C905F9D557F8081C21F007013B
:10553000084347F8080CFEF733F9064641F2883570
:1055400057F8080C616800F03800B0EBC10F3FF469
:1055500051AFFEF725F9801BA842F1D9032001B015
:10556000BDE8F0834907D9D5DEE700000000000060
:1055700044F20040C5F60200016841F400210160D8
:1055800070470000000000003F22026044F2184211
:10559000C5F6020252F8083C03F0070343601368A3
:1055A00003F470638360136803F00F03C360136830
:1055B00003F070030361536803F0700343615368A1
:1055C00003F4E0638361926802F07002C26142F208
:1055D0000000C5F20020006800F00F00086070476E
:1055E00080B500F085F844F2184142F2CC03C5F6CC
:1055F0000201C0F601030A68C2F303229A5C09683B
:1056000001F00F0102F01F02595C20FA02F201F0D2
:105610001F0046F20C11C2F2004122FA00F00860AD
:1056200046F20811C2F200410A6080BD000000008D
:1056300080B500F05DF844F2184C42F2CC03C5F698
:10564000020CC0F60103DCF80020C2F303229A5CCE
:10565000DCF8001001F00F0102F01F02595CD0408D
:1056600046F20C12C2F2004201F01F0120FA01F1D1
:10567000116046F20812C2F200421060DCF8040029
:10568000C0F30210185C00F01F0021FA00F080BD8A
:1056900080B500F02DF844F2184C42F2CC03C5F668
:1056A000020CC0F60103DCF80020C2F303229A5C6E
:1056B000DCF8001001F00F0102F01F02595CD0402D
:1056C00046F20C12C2F2004201F01F0120FA01F171
:1056D000116046F20812C2F200421060DCF80400C9
:1056E000C0F30220185C00F01F0021FA00F080BD1A
:1056F00044F20041C5F602010869C0F3C200032864
:1057000014D002280DD088BB0868800649F200003A
:10571000C0F2D03058BF70470968C1F3C101C8401A
:10572000704742F20040C0F2F40070478B6A886A0A
:10573000D1F82CC04A6BC0F30510E0B1C2F3CC0223
:1057400003F0030300EE102A9FED291AB8EE400A79
:1057500020EE010A9FED271ADFE803F0021F0F1F5A
:105760000A6892060CD49FED251A16E040F6001048
:10577000C0F23D007047002070479FED1F1A0CE0FB
:105780000A6849F20003C0F2D033C2F3C10223FA1F
:1057900002F201EE102AB8EE411A0A6B9FED183A98
:1057A0006FF35F2202EE102A5FEACC7203FE000A5A
:1057B00003EE100A086BB8EE422AC0F34620B8EE9A
:1057C000433A013030EE020AB7EE002A81EE031AA6
:1057D00030EE020A21EE000A01EE100AB8EE411A7C
:1057E00080EE010ABCEEC00A10EE100A704700BF3E
:1057F000000000390024744A0024744B0024744CC7
:10580000000000000000000010B544F26444C5F63A
:1058100002042068400558BF10BDFFF77DFD4FF41E
:105820008060606010BD00002DE9F04381B0002869
:1058300000F097818046007844F20049C007C5F621
:10584000020954D0D9F8100000F03801D9F8280026
:10585000102905D018290CD100F00300022808D126
:10586000D9F8000080033ED5D8F80400D8BB012742
:105870002CE0D8F80450D9F800002DB1B5F5A02FD0
:105880000BD0B5F5803F0ED020F48030C9F8000071
:10589000D9F8000020F4802007E040F48020C9F807
:1058A0000000D9F8000040F48030C9F80000FDF78E
:1058B00077FF002D054612D0D9F80000800312D4DE
:1058C000FDF76EFF401B6428F6D90327002070B94E
:1058D0008CE100BFFDF764FF401B6428F5D8D9F8C0
:1058E00000008003F6D40120002800F07F8198F8A2
:1058F000000080076AD5D9F8100010F03801D9F8F7
:1059000028001DD0182908BF5FEA807018D0D8F889
:105910000C00D9F80010002840D021F019010843EC
:10592000C9F80000FDF73CFF054600BFD9F80000AC
:10593000400727D4FDF734FF401B0228F6D91EE0AC
:10594000D9F80000400704D5D8F80C00002800F072
:10595000AC81D9F80000D8F80C1020F019000843E9
:10596000C9F80000FDF71CFF054600BFD9F800008C
:10597000400707D4FDF714FF401B0228F6D9032780
:10598000002420E0D9F80400D8F8101020F0FE40E0
:10599000012440EA0160C9F8040014E021F001008C
:1059A000C9F80000FDF7FCFE05460126D9F8000005
:1059B00010F0040086EA900405D0FDF7F1FE401BCC
:1059C0000228F3D90327002C00F0108198F800007A
:1059D000C00656D5D9F8100000F03801D9F82800D3
:1059E000082905D0182917D100F00300012813D188
:1059F000D9F80000C00503D5D8F81C0080283BD199
:105A0000D9F80C00D8F8201020F07C50012440EA8E
:105A10000160C9F80C0031E0D8F81C000028D9F862
:105A2000000012D040F08000C9F80000FDF7B8FE79
:105A3000054600BFD9F80000C005E1D4FDF7B0FE6F
:105A4000401B0228F6D9032717E020F08000C9F890
:105A50000000FDF7A5FE0546012600BFD9F80000AD
:105A600010F4807086EA102408D0FDF799FE401BE0
:105A70000228F3D9032701E001270024002C00F0BD
:105A8000B58098F8000000076DD498F800008006F3
:105A900000F1818098F80000400700F19480D8F868
:105AA0002440002C5BD0D9F8100000F038001828F2
:105AB00040F0D980012CD9F82810D9F8300050D006
:105AC00001F00302D8F828309A424AD1C1F30511F7
:105AD000D8F82C20914244D10146D8F830206FF3F9
